{
  "contractName": "DataManager",
  "abi": [
    {
      "constant": false,
      "inputs": [
        {
          "name": "_accessManager",
          "type": "address"
        }
      ],
      "name": "updateAccessManager",
      "outputs": [],
      "payable": false,
      "stateMutability": "nonpayable",
      "type": "function"
    },
    {
      "constant": true,
      "inputs": [
        {
          "name": "",
          "type": "address"
        }
      ],
      "name": "currencySymbols",
      "outputs": [
        {
          "name": "",
          "type": "bytes32"
        }
      ],
      "payable": false,
      "stateMutability": "view",
      "type": "function"
    },
    {
      "constant": true,
      "inputs": [
        {
          "name": "",
          "type": "address"
        }
      ],
      "name": "depositClientIds",
      "outputs": [
        {
          "name": "",
          "type": "bytes32"
        }
      ],
      "payable": false,
      "stateMutability": "view",
      "type": "function"
    },
    {
      "constant": true,
      "inputs": [],
      "name": "version",
      "outputs": [
        {
          "name": "",
          "type": "uint256"
        }
      ],
      "payable": false,
      "stateMutability": "view",
      "type": "function"
    },
    {
      "constant": true,
      "inputs": [
        {
          "name": "",
          "type": "bytes32"
        }
      ],
      "name": "blockchainActionIdData",
      "outputs": [
        {
          "name": "currency",
          "type": "bytes32"
        },
        {
          "name": "amount",
          "type": "uint256"
        },
        {
          "name": "accountId",
          "type": "bytes32"
        },
        {
          "name": "to",
          "type": "address"
        },
        {
          "name": "pptFee",
          "type": "uint256"
        }
      ],
      "payable": false,
      "stateMutability": "view",
      "type": "function"
    },
    {
      "constant": true,
      "inputs": [
        {
          "name": "",
          "type": "bytes32"
        }
      ],
      "name": "actionStatus",
      "outputs": [
        {
          "name": "",
          "type": "bool"
        }
      ],
      "payable": false,
      "stateMutability": "view",
      "type": "function"
    },
    {
      "constant": true,
      "inputs": [
        {
          "name": "",
          "type": "bytes32"
        }
      ],
      "name": "currencyAddresses",
      "outputs": [
        {
          "name": "",
          "type": "address"
        }
      ],
      "payable": false,
      "stateMutability": "view",
      "type": "function"
    },
    {
      "constant": true,
      "inputs": [
        {
          "name": "",
          "type": "bytes32"
        }
      ],
      "name": "depositAddresses",
      "outputs": [
        {
          "name": "",
          "type": "address"
        }
      ],
      "payable": false,
      "stateMutability": "view",
      "type": "function"
    },
    {
      "constant": true,
      "inputs": [],
      "name": "AM",
      "outputs": [
        {
          "name": "",
          "type": "address"
        }
      ],
      "payable": false,
      "stateMutability": "view",
      "type": "function"
    },
    {
      "inputs": [
        {
          "name": "_accessManager",
          "type": "address"
        },
        {
          "name": "_version",
          "type": "uint256"
        }
      ],
      "payable": false,
      "stateMutability": "nonpayable",
      "type": "constructor"
    },
    {
      "constant": false,
      "inputs": [
        {
          "name": "_blockchainActionId",
          "type": "bytes32"
        },
        {
          "name": "_currencyAddress",
          "type": "address"
        },
        {
          "name": "_currencySymbol",
          "type": "bytes32"
        }
      ],
      "name": "setCurrency",
      "outputs": [
        {
          "name": "success",
          "type": "bool"
        }
      ],
      "payable": false,
      "stateMutability": "nonpayable",
      "type": "function"
    },
    {
      "constant": false,
      "inputs": [
        {
          "name": "_blockchainActionId",
          "type": "bytes32"
        },
        {
          "name": "_currencyAddress",
          "type": "address"
        },
        {
          "name": "_currencySymbol",
          "type": "bytes32"
        }
      ],
      "name": "_setCurrency",
      "outputs": [
        {
          "name": "success",
          "type": "bool"
        }
      ],
      "payable": false,
      "stateMutability": "nonpayable",
      "type": "function"
    },
    {
      "constant": false,
      "inputs": [
        {
          "name": "_blockchainActionId",
          "type": "bytes32"
        },
        {
          "name": "currency",
          "type": "bytes32"
        },
        {
          "name": "amount",
          "type": "uint256"
        },
        {
          "name": "accountId",
          "type": "bytes32"
        },
        {
          "name": "to",
          "type": "address"
        },
        {
          "name": "pptFee",
          "type": "uint256"
        }
      ],
      "name": "setBlockchainActionData",
      "outputs": [
        {
          "name": "success",
          "type": "bool"
        }
      ],
      "payable": false,
      "stateMutability": "nonpayable",
      "type": "function"
    },
    {
      "constant": false,
      "inputs": [
        {
          "name": "_blockchainActionId",
          "type": "bytes32"
        },
        {
          "name": "_clientId",
          "type": "bytes32"
        },
        {
          "name": "_depositContract",
          "type": "address"
        }
      ],
      "name": "_setDepositAddress",
      "outputs": [
        {
          "name": "success",
          "type": "bool"
        }
      ],
      "payable": false,
      "stateMutability": "nonpayable",
      "type": "function"
    },
    {
      "constant": false,
      "inputs": [
        {
          "name": "_blockchainActionId",
          "type": "bytes32"
        },
        {
          "name": "_depositAddress",
          "type": "address"
        },
        {
          "name": "_clientId",
          "type": "bytes32"
        }
      ],
      "name": "setDepositAddress",
      "outputs": [
        {
          "name": "success",
          "type": "bool"
        }
      ],
      "payable": false,
      "stateMutability": "nonpayable",
      "type": "function"
    },
    {
      "constant": true,
      "inputs": [
        {
          "name": "_clientId",
          "type": "bytes32"
        }
      ],
      "name": "getDepositAddress",
      "outputs": [
        {
          "name": "clientDepositAddress",
          "type": "address"
        }
      ],
      "payable": false,
      "stateMutability": "view",
      "type": "function"
    },
    {
      "constant": true,
      "inputs": [
        {
          "name": "_depositContract",
          "type": "address"
        }
      ],
      "name": "getClientIdWithDepositAddress",
      "outputs": [
        {
          "name": "depositClientId",
          "type": "bytes32"
        }
      ],
      "payable": false,
      "stateMutability": "view",
      "type": "function"
    },
    {
      "constant": true,
      "inputs": [
        {
          "name": "_currencySymbol",
          "type": "bytes32"
        }
      ],
      "name": "getCurrency",
      "outputs": [
        {
          "name": "currencyAddress",
          "type": "address"
        }
      ],
      "payable": false,
      "stateMutability": "view",
      "type": "function"
    },
    {
      "constant": true,
      "inputs": [
        {
          "name": "_currencyAddress",
          "type": "address"
        }
      ],
      "name": "getCurrencySymbol",
      "outputs": [
        {
          "name": "currencySymbol",
          "type": "bytes32"
        }
      ],
      "payable": false,
      "stateMutability": "view",
      "type": "function"
    },
    {
      "constant": true,
      "inputs": [
        {
          "name": "_currencyAddress",
          "type": "address"
        }
      ],
      "name": "getCurrencyDetails",
      "outputs": [
        {
          "name": "_symbol",
          "type": "bytes32"
        },
        {
          "name": "_name",
          "type": "bytes32"
        },
        {
          "name": "_decimals",
          "type": "uint8"
        }
      ],
      "payable": false,
      "stateMutability": "view",
      "type": "function"
    },
    {
      "constant": true,
      "inputs": [
        {
          "name": "_blockchainActionId",
          "type": "bytes32"
        }
      ],
      "name": "getBlockchainActionIdData",
      "outputs": [
        {
          "name": "_currency",
          "type": "bytes32"
        },
        {
          "name": "_amount",
          "type": "uint256"
        },
        {
          "name": "_accountId",
          "type": "bytes32"
        },
        {
          "name": "_to",
          "type": "address"
        }
      ],
      "payable": false,
      "stateMutability": "view",
      "type": "function"
    },
    {
      "constant": true,
      "inputs": [
        {
          "name": "_blockchainActionId",
          "type": "bytes32"
        }
      ],
      "name": "getActionStatus",
      "outputs": [
        {
          "name": "_blockchainActionStatus",
          "type": "bool"
        }
      ],
      "payable": false,
      "stateMutability": "view",
      "type": "function"
    },
    {
      "constant": true,
      "inputs": [],
      "name": "getVersion",
      "outputs": [
        {
          "name": "_version",
          "type": "uint256"
        }
      ],
      "payable": false,
      "stateMutability": "view",
      "type": "function"
    }
  ],
  "bytecode": "0x608060405234801561001057600080fd5b5060405160408061259583398101806040528101908080519060200190929190805190602001909291905050508180600760006101000a81548173ffffffffffffffffffffffffffffffffffffffff021916908373ffffffffffffffffffffffffffffffffffffffff160217905550508060008190555050506124fd806100986000396000f300608060405260043610610128576000357c0100000000000000000000000000000000000000000000000000000000900463ffffffff16806302ab72c41461012d5780630d8e6e2c146101705780630e8ba1671461019b578063120ab58c146102125780632a01a451146102a85780632cc8faea1461031957806334791f811461037857806345d9ff7e146103d757806354fd4d5014610436578063554c9b6a1461046157806359d334b2146104c057806392c4b8671461055d5780639cd1b53f146105f6578063a533ad021461066d578063a5f43a51146106b6578063b7e72ae614610727578063bea0897c146107a2578063c3751fd8146107eb578063c7062df31461085c578063c9939d0e146108d3578063d383b80d1461094a578063f7f01b4b146109bb575b600080fd5b34801561013957600080fd5b5061016e600480360381019080803573ffffffffffffffffffffffffffffffffffffffff169060200190929190505050610a12565b005b34801561017c57600080fd5b50610185610b60565b6040518082815260200191505060405180910390f35b3480156101a757600080fd5b506101f86004803603810190808035600019169060200190929190803573ffffffffffffffffffffffffffffffffffffffff1690602001909291908035600019169060200190929190505050610b69565b604051808215151515815260200191505060405180910390f35b34801561021e57600080fd5b506102416004803603810190808035600019169060200190929190505050610fc6565b60405180856000191660001916815260200184815260200183600019166000191681526020018273ffffffffffffffffffffffffffffffffffffffff1673ffffffffffffffffffffffffffffffffffffffff16815260200194505050505060405180910390f35b3480156102b457600080fd5b506102d760048036038101908080356000191690602001909291905050506110b2565b604051808273ffffffffffffffffffffffffffffffffffffffff1673ffffffffffffffffffffffffffffffffffffffff16815260200191505060405180910390f35b34801561032557600080fd5b5061035a600480360381019080803573ffffffffffffffffffffffffffffffffffffffff1690602001909291905050506110f7565b60405180826000191660001916815260200191505060405180910390f35b34801561038457600080fd5b506103b9600480360381019080803573ffffffffffffffffffffffffffffffffffffffff169060200190929190505050611140565b60405180826000191660001916815260200191505060405180910390f35b3480156103e357600080fd5b50610418600480360381019080803573ffffffffffffffffffffffffffffffffffffffff169060200190929190505050611158565b60405180826000191660001916815260200191505060405180910390f35b34801561044257600080fd5b5061044b611170565b6040518082815260200191505060405180910390f35b34801561046d57600080fd5b506104a2600480360381019080803573ffffffffffffffffffffffffffffffffffffffff169060200190929190505050611176565b60405180826000191660001916815260200191505060405180910390f35b3480156104cc57600080fd5b506104ef60048036038101908080356000191690602001909291905050506111bf565b60405180866000191660001916815260200185815260200184600019166000191681526020018373ffffffffffffffffffffffffffffffffffffffff1673ffffffffffffffffffffffffffffffffffffffff1681526020018281526020019550505050505060405180910390f35b34801561056957600080fd5b506105dc60048036038101908080356000191690602001909291908035600019169060200190929190803590602001909291908035600019169060200190929190803573ffffffffffffffffffffffffffffffffffffffff16906020019092919080359060200190929190505050611215565b604051808215151515815260200191505060405180910390f35b34801561060257600080fd5b506106536004803603810190808035600019169060200190929190803573ffffffffffffffffffffffffffffffffffffffff1690602001909291908035600019169060200190929190505050611595565b604051808215151515815260200191505060405180910390f35b34801561067957600080fd5b5061069c6004803603810190808035600019169060200190929190505050611954565b604051808215151515815260200191505060405180910390f35b3480156106c257600080fd5b506106e56004803603810190808035600019169060200190929190505050611974565b604051808273ffffffffffffffffffffffffffffffffffffffff1673ffffffffffffffffffffffffffffffffffffffff16815260200191505060405180910390f35b34801561073357600080fd5b50610768600480360381019080803573ffffffffffffffffffffffffffffffffffffffff1690602001909291905050506119a7565b60405180846000191660001916815260200183600019166000191681526020018260ff1660ff168152602001935050505060405180910390f35b3480156107ae57600080fd5b506107d16004803603810190808035600019169060200190929190505050611b96565b604051808215151515815260200191505060405180910390f35b3480156107f757600080fd5b5061081a6004803603810190808035600019169060200190929190505050611bc8565b604051808273ffffffffffffffffffffffffffffffffffffffff1673ffffffffffffffffffffffffffffffffffffffff16815260200191505060405180910390f35b34801561086857600080fd5b506108b96004803603810190808035600019169060200190929190803573ffffffffffffffffffffffffffffffffffffffff1690602001909291908035600019169060200190929190505050611bfb565b604051808215151515815260200191505060405180910390f35b3480156108df57600080fd5b5061093060048036038101908080356000191690602001909291908035600019169060200190929190803573ffffffffffffffffffffffffffffffffffffffff169060200190929190505050612058565b604051808215151515815260200191505060405180910390f35b34801561095657600080fd5b506109796004803603810190808035600019169060200190929190505050612466565b604051808273ffffffffffffffffffffffffffffffffffffffff1673ffffffffffffffffffffffffffffffffffffffff16815260200191505060405180910390f35b3480156109c757600080fd5b506109d06124ab565b604051808273ffffffffffffffffffffffffffffffffffffffff1673ffffffffffffffffffffffffffffffffffffffff16815260200191505060405180910390f35b60011515600760009054906101000a900473ffffffffffffffffffffffffffffffffffffffff1673ffffffffffffffffffffffffffffffffffffffff1663fda08958336040518263ffffffff167c0100000000000000000000000000000000000000000000000000000000028152600401808273ffffffffffffffffffffffffffffffffffffffff1673ffffffffffffffffffffffffffffffffffffffff168152602001915050602060405180830381600087803b158015610ad357600080fd5b505af1158015610ae7573d6000803e3d6000fd5b505050506040513d6020811015610afd57600080fd5b81019080805190602001909291905050501515141515610b1c57600080fd5b80600760006101000a81548173ffffffffffffffffffffffffffffffffffffffff021916908373ffffffffffffffffffffffffffffffffffffffff16021790555050565b60008054905090565b600060011515600760009054906101000a900473ffffffffffffffffffffffffffffffffffffffff1673ffffffffffffffffffffffffffffffffffffffff1663fda08958336040518263ffffffff167c0100000000000000000000000000000000000000000000000000000000028152600401808273ffffffffffffffffffffffffffffffffffffffff1673ffffffffffffffffffffffffffffffffffffffff168152602001915050602060405180830381600087803b158015610c2c57600080fd5b505af1158015610c40573d6000803e3d6000fd5b505050506040513d6020811015610c5657600080fd5b810190808051906020019092919050505015151480610d70575060011515600760009054906101000a900473ffffffffffffffffffffffffffffffffffffffff1673ffffffffffffffffffffffffffffffffffffffff166305fd22d0336040518263ffffffff167c0100000000000000000000000000000000000000000000000000000000028152600401808273ffffffffffffffffffffffffffffffffffffffff1673ffffffffffffffffffffffffffffffffffffffff168152602001915050602060405180830381600087803b158015610d3157600080fd5b505af1158015610d45573d6000803e3d6000fd5b505050506040513d6020811015610d5b57600080fd5b81019080805190602001909291905050501515145b1515610d7b57600080fd5b6000151560056000866000191660001916815260200190815260200160002060009054906101000a900460ff161515141515610db657600080fd5b600060036000846000191660001916815260200190815260200160002060009054906101000a900473ffffffffffffffffffffffffffffffffffffffff1673ffffffffffffffffffffffffffffffffffffffff16148015610e5d57506000600102600460008573ffffffffffffffffffffffffffffffffffffffff1673ffffffffffffffffffffffffffffffffffffffff1681526020019081526020016000205460001916145b1515610e6857600080fd5b8260036000846000191660001916815260200190815260200160002060006101000a81548173ffffffffffffffffffffffffffffffffffffffff021916908373ffffffffffffffffffffffffffffffffffffffff16021790555081600460008573ffffffffffffffffffffffffffffffffffffffff1673ffffffffffffffffffffffffffffffffffffffff1681526020019081526020016000208160001916905550600060036000846000191660001916815260200190815260200160002060009054906101000a900473ffffffffffffffffffffffffffffffffffffffff1673ffffffffffffffffffffffffffffffffffffffff1614158015610fb357506000600102600460008573ffffffffffffffffffffffffffffffffffffffff1673ffffffffffffffffffffffffffffffffffffffff168152602001908152602001600020546000191614155b1515610fbb57fe5b600190509392505050565b6000806000806001151560056000876000191660001916815260200190815260200160002060009054906101000a900460ff16151514151561100757600080fd5b60066000866000191660001916815260200190815260200160002060000154600660008760001916600019168152602001908152602001600020600101546006600088600019166000191681526020019081526020016000206002015460066000896000191660001916815260200190815260200160002060030160009054906101000a900473ffffffffffffffffffffffffffffffffffffffff1693509350935093509193509193565b600060036000836000191660001916815260200190815260200160002060009054906101000a900473ffffffffffffffffffffffffffffffffffffffff169050919050565b6000600460008373ffffffffffffffffffffffffffffffffffffffff1673ffffffffffffffffffffffffffffffffffffffff168152602001908152602001600020549050919050565b60026020528060005260406000206000915090505481565b60046020528060005260406000206000915090505481565b60005481565b6000600260008373ffffffffffffffffffffffffffffffffffffffff1673ffffffffffffffffffffffffffffffffffffffff168152602001908152602001600020549050919050565b60066020528060005260406000206000915090508060000154908060010154908060020154908060030160009054906101000a900473ffffffffffffffffffffffffffffffffffffffff16908060040154905085565b600060011515600760009054906101000a900473ffffffffffffffffffffffffffffffffffffffff1673ffffffffffffffffffffffffffffffffffffffff1663fda08958336040518263ffffffff167c0100000000000000000000000000000000000000000000000000000000028152600401808273ffffffffffffffffffffffffffffffffffffffff1673ffffffffffffffffffffffffffffffffffffffff168152602001915050602060405180830381600087803b1580156112d857600080fd5b505af11580156112ec573d6000803e3d6000fd5b505050506040513d602081101561130257600080fd5b81019080805190602001909291905050501515148061141c575060011515600760009054906101000a900473ffffffffffffffffffffffffffffffffffffffff1673ffffffffffffffffffffffffffffffffffffffff166305fd22d0336040518263ffffffff167c0100000000000000000000000000000000000000000000000000000000028152600401808273ffffffffffffffffffffffffffffffffffffffff1673ffffffffffffffffffffffffffffffffffffffff168152602001915050602060405180830381600087803b1580156113dd57600080fd5b505af11580156113f1573d6000803e3d6000fd5b505050506040513d602081101561140757600080fd5b81019080805190602001909291905050501515145b151561142757600080fd5b6000151560056000896000191660001916815260200190815260200160002060009054906101000a900460ff16151514151561146257600080fd5b85600660008960001916600019168152602001908152602001600020600001816000191690555084600660008960001916600019168152602001908152602001600020600101819055508360066000896000191660001916815260200190815260200160002060020181600019169055508260066000896000191660001916815260200190815260200160002060030160006101000a81548173ffffffffffffffffffffffffffffffffffffffff021916908373ffffffffffffffffffffffffffffffffffffffff1602179055508160066000896000191660001916815260200190815260200160002060040181905550600160056000896000191660001916815260200190815260200160002060006101000a81548160ff021916908315150217905550600190509695505050505050565b600060011515600760009054906101000a900473ffffffffffffffffffffffffffffffffffffffff1673ffffffffffffffffffffffffffffffffffffffff1663fda08958336040518263ffffffff167c0100000000000000000000000000000000000000000000000000000000028152600401808273ffffffffffffffffffffffffffffffffffffffff1673ffffffffffffffffffffffffffffffffffffffff168152602001915050602060405180830381600087803b15801561165857600080fd5b505af115801561166c573d6000803e3d6000fd5b505050506040513d602081101561168257600080fd5b81019080805190602001909291905050501515148061179c575060011515600760009054906101000a900473ffffffffffffffffffffffffffffffffffffffff1673ffffffffffffffffffffffffffffffffffffffff166305fd22d0336040518263ffffffff167c0100000000000000000000000000000000000000000000000000000000028152600401808273ffffffffffffffffffffffffffffffffffffffff1673ffffffffffffffffffffffffffffffffffffffff168152602001915050602060405180830381600087803b15801561175d57600080fd5b505af1158015611771573d6000803e3d6000fd5b505050506040513d602081101561178757600080fd5b81019080805190602001909291905050501515145b15156117a757600080fd5b6000151560056000866000191660001916815260200190815260200160002060009054906101000a900460ff1615151415156117e257600080fd5b81600260008573ffffffffffffffffffffffffffffffffffffffff1673ffffffffffffffffffffffffffffffffffffffff16815260200190815260200160002081600019169055508260016000846000191660001916815260200190815260200160002060006101000a81548173ffffffffffffffffffffffffffffffffffffffff021916908373ffffffffffffffffffffffffffffffffffffffff160217905550600060016000846000191660001916815260200190815260200160002060009054906101000a900473ffffffffffffffffffffffffffffffffffffffff1673ffffffffffffffffffffffffffffffffffffffff161415801561192d57506000600102600260008573ffffffffffffffffffffffffffffffffffffffff1673ffffffffffffffffffffffffffffffffffffffff168152602001908152602001600020546000191614155b151561193557fe5b6119488483600080600102876000611215565b50600190509392505050565b60056020528060005260406000206000915054906101000a900460ff1681565b60016020528060005260406000206000915054906101000a900473ffffffffffffffffffffffffffffffffffffffff1681565b60008060008373ffffffffffffffffffffffffffffffffffffffff166395d89b416040518163ffffffff167c0100000000000000000000000000000000000000000000000000000000028152600401602060405180830381600087803b158015611a1057600080fd5b505af1158015611a24573d6000803e3d6000fd5b505050506040513d6020811015611a3a57600080fd5b81019080805190602001909291905050508473ffffffffffffffffffffffffffffffffffffffff166306fdde036040518163ffffffff167c0100000000000000000000000000000000000000000000000000000000028152600401602060405180830381600087803b158015611aaf57600080fd5b505af1158015611ac3573d6000803e3d6000fd5b505050506040513d6020811015611ad957600080fd5b81019080805190602001909291905050508573ffffffffffffffffffffffffffffffffffffffff1663313ce5676040518163ffffffff167c0100000000000000000000000000000000000000000000000000000000028152600401602060405180830381600087803b158015611b4e57600080fd5b505af1158015611b62573d6000803e3d6000fd5b505050506040513d6020811015611b7857600080fd5b81019080805190602001909291905050509250925092509193909250565b600060056000836000191660001916815260200190815260200160002060009054906101000a900460ff169050919050565b60036020528060005260406000206000915054906101000a900473ffffffffffffffffffffffffffffffffffffffff1681565b600060011515600760009054906101000a900473ffffffffffffffffffffffffffffffffffffffff1673ffffffffffffffffffffffffffffffffffffffff1663fda08958336040518263ffffffff167c0100000000000000000000000000000000000000000000000000000000028152600401808273ffffffffffffffffffffffffffffffffffffffff1673ffffffffffffffffffffffffffffffffffffffff168152602001915050602060405180830381600087803b158015611cbe57600080fd5b505af1158015611cd2573d6000803e3d6000fd5b505050506040513d6020811015611ce857600080fd5b810190808051906020019092919050505015151480611e02575060011515600760009054906101000a900473ffffffffffffffffffffffffffffffffffffffff1673ffffffffffffffffffffffffffffffffffffffff166305fd22d0336040518263ffffffff167c0100000000000000000000000000000000000000000000000000000000028152600401808273ffffffffffffffffffffffffffffffffffffffff1673ffffffffffffffffffffffffffffffffffffffff168152602001915050602060405180830381600087803b158015611dc357600080fd5b505af1158015611dd7573d6000803e3d6000fd5b505050506040513d6020811015611ded57600080fd5b81019080805190602001909291905050501515145b1515611e0d57600080fd5b6000151560056000866000191660001916815260200190815260200160002060009054906101000a900460ff161515141515611e4857600080fd5b6000600102600260008573ffffffffffffffffffffffffffffffffffffffff1673ffffffffffffffffffffffffffffffffffffffff1681526020019081526020016000205460001916148015611eef5750600060016000846000191660001916815260200190815260200160002060009054906101000a900473ffffffffffffffffffffffffffffffffffffffff1673ffffffffffffffffffffffffffffffffffffffff16145b1515611efa57600080fd5b81600260008573ffffffffffffffffffffffffffffffffffffffff1673ffffffffffffffffffffffffffffffffffffffff16815260200190815260200160002081600019169055508260016000846000191660001916815260200190815260200160002060006101000a81548173ffffffffffffffffffffffffffffffffffffffff021916908373ffffffffffffffffffffffffffffffffffffffff160217905550600060016000846000191660001916815260200190815260200160002060009054906101000a900473ffffffffffffffffffffffffffffffffffffffff1673ffffffffffffffffffffffffffffffffffffffff161415801561204557506000600102600260008573ffffffffffffffffffffffffffffffffffffffff1673ffffffffffffffffffffffffffffffffffffffff168152602001908152602001600020546000191614155b151561204d57fe5b600190509392505050565b600060011515600760009054906101000a900473ffffffffffffffffffffffffffffffffffffffff1673ffffffffffffffffffffffffffffffffffffffff1663fda08958336040518263ffffffff167c0100000000000000000000000000000000000000000000000000000000028152600401808273ffffffffffffffffffffffffffffffffffffffff1673ffffffffffffffffffffffffffffffffffffffff168152602001915050602060405180830381600087803b15801561211b57600080fd5b505af115801561212f573d6000803e3d6000fd5b505050506040513d602081101561214557600080fd5b81019080805190602001909291905050501515148061225f575060011515600760009054906101000a900473ffffffffffffffffffffffffffffffffffffffff1673ffffffffffffffffffffffffffffffffffffffff166305fd22d0336040518263ffffffff167c0100000000000000000000000000000000000000000000000000000000028152600401808273ffffffffffffffffffffffffffffffffffffffff1673ffffffffffffffffffffffffffffffffffffffff168152602001915050602060405180830381600087803b15801561222057600080fd5b505af1158015612234573d6000803e3d6000fd5b505050506040513d602081101561224a57600080fd5b81019080805190602001909291905050501515145b151561226a57600080fd5b6000151560056000866000191660001916815260200190815260200160002060009054906101000a900460ff1615151415156122a557600080fd5b8160036000856000191660001916815260200190815260200160002060006101000a81548173ffffffffffffffffffffffffffffffffffffffff021916908373ffffffffffffffffffffffffffffffffffffffff16021790555082600460008473ffffffffffffffffffffffffffffffffffffffff1673ffffffffffffffffffffffffffffffffffffffff16815260200190815260200160002081600019169055508173ffffffffffffffffffffffffffffffffffffffff1660036000856000191660001916815260200190815260200160002060009054906101000a900473ffffffffffffffffffffffffffffffffffffffff1673ffffffffffffffffffffffffffffffffffffffff1614801561240357508260001916600460008473ffffffffffffffffffffffffffffffffffffffff1673ffffffffffffffffffffffffffffffffffffffff1681526020019081526020016000205460001916145b151561240b57fe5b61245a84600060010260008660036000896000191660001916815260200190815260200160002060009054906101000a900473ffffffffffffffffffffffffffffffffffffffff166000611215565b50600190509392505050565b600060016000836000191660001916815260200190815260200160002060009054906101000a900473ffffffffffffffffffffffffffffffffffffffff169050919050565b600760009054906101000a900473ffffffffffffffffffffffffffffffffffffffff16815600a165627a7a7230582000b915bd2a9336bd64447cfb0e01f57b395538e72a6fc1aa80510f662837d8210029",
  "source": "pragma solidity ^0.4.17;\n\n\nimport \"./iERC20Token.sol\";\nimport \"./CurrencyToken.sol\";\nimport \"./withAccessManager.sol\";\nimport \"./iDataManager.sol\";\n\n/// @title DataManager contract\ncontract DataManager is iDataManager, withAccessManager {\n    \n\n    // NON-CONSTANT METHODS\n\n    /** @dev Constructor that sets the server when contract is deployed.\n      * @param _accessManager The address to set as the access manager.\n      */\n    constructor(address _accessManager, uint256 _version) public withAccessManager(_accessManager) {\n        version = _version;\n    }\n\n    /** @dev Adds a new currency sumbol and smart contract address  \n      * @param _currencyAddress the currency smart contract address\n      * @param _currencySymbol the currency symbol\n      * @return success true/false denoting successful function call\n      */\n    function setCurrency(bytes32 _blockchainActionId, address _currencyAddress, bytes32 _currencySymbol) public onlyServerOrOnlyPopulous returns (bool success) {\n        require(actionStatus[_blockchainActionId] == false);\n        require(currencySymbols[_currencyAddress] == 0x0 && currencyAddresses[_currencySymbol] == 0x0);\n        currencySymbols[_currencyAddress] = _currencySymbol;\n        currencyAddresses[_currencySymbol] = _currencyAddress;\n        assert(currencyAddresses[_currencySymbol] != 0x0 && currencySymbols[_currencyAddress] != 0x0);\n        return true;\n    }\n\n    /** @dev Updates a currency sumbol and smart contract address  \n      * @param _currencyAddress the currency smart contract address\n      * @param _currencySymbol the currency symbol\n      * @return success true/false denoting successful function call\n      */\n    function _setCurrency(bytes32 _blockchainActionId, address _currencyAddress, bytes32 _currencySymbol) public onlyServerOrOnlyPopulous returns (bool success) {\n        require(actionStatus[_blockchainActionId] == false);\n        currencySymbols[_currencyAddress] = _currencySymbol;\n        currencyAddresses[_currencySymbol] = _currencyAddress;\n        assert(currencyAddresses[_currencySymbol] != 0x0 && currencySymbols[_currencyAddress] != 0x0);\n        setBlockchainActionData(_blockchainActionId, _currencySymbol, 0, 0x0, _currencyAddress, 0);\n        return true;\n    }\n\n    /** @dev set blockchain action data in struct \n      * @param _blockchainActionId the blockchain action id\n      * @param currency the token currency symbol\n      * @param accountId the clientId\n      * @param to the blockchain address or smart contract address used in the transaction\n      * @param amount the amount of tokens in the transaction\n      * @return success true/false denoting successful function call\n      */\n    function setBlockchainActionData(\n        bytes32 _blockchainActionId, bytes32 currency, \n        uint amount, bytes32 accountId, address to, uint pptFee) \n        public\n        onlyServerOrOnlyPopulous \n        returns (bool success)\n    {\n        require(actionStatus[_blockchainActionId] == false);\n        blockchainActionIdData[_blockchainActionId].currency = currency;\n        blockchainActionIdData[_blockchainActionId].amount = amount;\n        blockchainActionIdData[_blockchainActionId].accountId = accountId;\n        blockchainActionIdData[_blockchainActionId].to = to;\n        blockchainActionIdData[_blockchainActionId].pptFee = pptFee;\n        actionStatus[_blockchainActionId] = true;\n        return true;\n    }\n    \n    /** @dev Updates a deposit address for client id\n      * @param _blockchainActionId the blockchain action id\n      * @param _clientId the client id\n      * @param _depositContract the deposit contract address for the client\n      * @return success true/false denoting successful function call\n      */\n    function _setDepositAddress(bytes32 _blockchainActionId, bytes32 _clientId, address _depositContract) public\n      onlyServerOrOnlyPopulous\n      returns (bool success)\n    {\n        require(actionStatus[_blockchainActionId] == false);\n        depositAddresses[_clientId] = _depositContract;\n        depositClientIds[_depositContract] = _clientId;\n        // check that deposit address has been stored for client Id\n        assert(depositAddresses[_clientId] == _depositContract && depositClientIds[_depositContract] == _clientId);\n        // set blockchain action data\n        setBlockchainActionData(_blockchainActionId, 0x0, 0, _clientId, depositAddresses[_clientId], 0);\n        return true;\n    }\n\n    /** @dev Adds a new deposit smart contract address linked to a client id\n      * @param _depositAddress the deposit smart contract address\n      * @param _clientId the client id\n      * @return success true/false denoting successful function call\n      */\n    function setDepositAddress(bytes32 _blockchainActionId, address _depositAddress, bytes32 _clientId) public onlyServerOrOnlyPopulous returns (bool success) {\n        require(actionStatus[_blockchainActionId] == false);\n        require(depositAddresses[_clientId] == 0x0 && depositClientIds[_depositAddress] == 0x0);\n        depositAddresses[_clientId] = _depositAddress;\n        depositClientIds[_depositAddress] = _clientId;\n        assert(depositAddresses[_clientId] != 0x0 && depositClientIds[_depositAddress] != 0x0);\n        return true;\n    }\n\n    \n    // CONSTANT METHODS\n\n    /** @dev Gets a deposit address with the client id \n      * @return clientDepositAddress The client's deposit address\n      */\n    function getDepositAddress(bytes32 _clientId) public view returns (address clientDepositAddress){\n        return depositAddresses[_clientId];\n    }\n\n    /** @dev Gets a client id linked to a deposit address \n      * @return depositClientId The client id\n      */\n    function getClientIdWithDepositAddress(address _depositContract) public view returns (bytes32 depositClientId){\n        return depositClientIds[_depositContract];\n    }\n\n    /** @dev Gets a currency smart contract address \n      * @return currencyAddress The currency address\n      */\n    function getCurrency(bytes32 _currencySymbol) public view returns (address currencyAddress) {\n        return currencyAddresses[_currencySymbol];\n    }\n   \n    /** @dev Gets a currency symbol given it's smart contract address \n      * @return currencySymbol The currency symbol\n      */\n    function getCurrencySymbol(address _currencyAddress) public view returns (bytes32 currencySymbol) {\n        return currencySymbols[_currencyAddress];\n    }\n\n    /** @dev Gets details of a currency given it's smart contract address \n      * @return _symbol The currency symbol\n      * @return _name The currency name\n      * @return _decimals The currency decimal places/precision\n      */\n    function getCurrencyDetails(address _currencyAddress) public view returns (bytes32 _symbol, bytes32 _name, uint8 _decimals) {\n        return (CurrencyToken(_currencyAddress).symbol(), CurrencyToken(_currencyAddress).name(), CurrencyToken(_currencyAddress).decimals());\n    } \n\n    /** @dev Get the blockchain action Id Data for a blockchain Action id\n      * @param _blockchainActionId the blockchain action id\n      * @return bytes32 currency\n      * @return uint amount\n      * @return bytes32 accountId\n      * @return address to\n      */\n    function getBlockchainActionIdData(bytes32 _blockchainActionId) public view \n    returns (bytes32 _currency, uint _amount, bytes32 _accountId, address _to) \n    {\n        require(actionStatus[_blockchainActionId] == true);\n        return (blockchainActionIdData[_blockchainActionId].currency, \n        blockchainActionIdData[_blockchainActionId].amount,\n        blockchainActionIdData[_blockchainActionId].accountId,\n        blockchainActionIdData[_blockchainActionId].to);\n    }\n\n    /** @dev Get the bool status of a blockchain Action id\n      * @param _blockchainActionId the blockchain action id\n      * @return bool actionStatus\n      */\n    function getActionStatus(bytes32 _blockchainActionId) public view returns (bool _blockchainActionStatus) {\n        return actionStatus[_blockchainActionId];\n    }\n\n    /** @dev Gets the version number for the current contract instance\n      * @return _version The version number\n      */\n    function getVersion() public view returns (uint256 _version) {\n        return version;\n    }\n\n}",
  "sourcePath": "/Users/najienka/Desktop/populous-app/populous-exchangecontracts/contracts/DataManager.sol",
  "compiler": {
    "name": "solc",
    "version": "0.4.25+commit.59dbf8f1.Emscripten.clang"
  },
  "schemaVersion": "2.0.2",
  "updatedAt": "2019-03-26T13:21:48.165Z"
}