{
  "contractName": "DepositContract",
  "abi": [
    {
      "constant": false,
      "inputs": [
        {
          "name": "_accessManager",
          "type": "address"
        }
      ],
      "name": "updateAccessManager",
      "outputs": [],
      "payable": false,
      "stateMutability": "nonpayable",
      "type": "function"
    },
    {
      "constant": true,
      "inputs": [],
      "name": "version",
      "outputs": [
        {
          "name": "",
          "type": "uint256"
        }
      ],
      "payable": false,
      "stateMutability": "view",
      "type": "function"
    },
    {
      "constant": true,
      "inputs": [],
      "name": "clientId",
      "outputs": [
        {
          "name": "",
          "type": "bytes32"
        }
      ],
      "payable": false,
      "stateMutability": "view",
      "type": "function"
    },
    {
      "constant": true,
      "inputs": [],
      "name": "AM",
      "outputs": [
        {
          "name": "",
          "type": "address"
        }
      ],
      "payable": false,
      "stateMutability": "view",
      "type": "function"
    },
    {
      "inputs": [
        {
          "name": "_clientId",
          "type": "bytes32"
        },
        {
          "name": "accessManager",
          "type": "address"
        }
      ],
      "payable": false,
      "stateMutability": "nonpayable",
      "type": "constructor"
    },
    {
      "payable": true,
      "stateMutability": "payable",
      "type": "fallback"
    },
    {
      "anonymous": false,
      "inputs": [
        {
          "indexed": false,
          "name": "to",
          "type": "address"
        },
        {
          "indexed": false,
          "name": "value",
          "type": "uint256"
        }
      ],
      "name": "EtherTransfer",
      "type": "event"
    },
    {
      "anonymous": false,
      "inputs": [
        {
          "indexed": false,
          "name": "to",
          "type": "address"
        },
        {
          "indexed": false,
          "name": "clientId",
          "type": "bytes32"
        },
        {
          "indexed": false,
          "name": "value",
          "type": "uint256"
        }
      ],
      "name": "EtherTransferToServer",
      "type": "event"
    },
    {
      "constant": false,
      "inputs": [
        {
          "name": "_operator",
          "type": "address"
        },
        {
          "name": "_from",
          "type": "address"
        },
        {
          "name": "_tokenId",
          "type": "uint256"
        },
        {
          "name": "_data",
          "type": "bytes"
        }
      ],
      "name": "onERC721Received",
      "outputs": [
        {
          "name": "",
          "type": "bytes4"
        }
      ],
      "payable": false,
      "stateMutability": "nonpayable",
      "type": "function"
    },
    {
      "constant": false,
      "inputs": [
        {
          "name": "_operator",
          "type": "address"
        },
        {
          "name": "_from",
          "type": "address"
        },
        {
          "name": "_id",
          "type": "uint256"
        },
        {
          "name": "_value",
          "type": "uint256"
        },
        {
          "name": "_data",
          "type": "bytes"
        }
      ],
      "name": "onERC1155Received",
      "outputs": [
        {
          "name": "",
          "type": "bytes4"
        }
      ],
      "payable": false,
      "stateMutability": "nonpayable",
      "type": "function"
    },
    {
      "constant": false,
      "inputs": [
        {
          "name": "populousTokenContract",
          "type": "address"
        },
        {
          "name": "_to",
          "type": "address"
        },
        {
          "name": "_value",
          "type": "uint256"
        }
      ],
      "name": "transfer",
      "outputs": [
        {
          "name": "success",
          "type": "bool"
        }
      ],
      "payable": false,
      "stateMutability": "nonpayable",
      "type": "function"
    },
    {
      "constant": false,
      "inputs": [
        {
          "name": "_to",
          "type": "address"
        },
        {
          "name": "_value",
          "type": "uint256"
        }
      ],
      "name": "transferEther",
      "outputs": [
        {
          "name": "success",
          "type": "bool"
        }
      ],
      "payable": false,
      "stateMutability": "nonpayable",
      "type": "function"
    },
    {
      "constant": false,
      "inputs": [
        {
          "name": "erc721Token",
          "type": "address"
        },
        {
          "name": "_to",
          "type": "address"
        },
        {
          "name": "_tokenId",
          "type": "uint256"
        }
      ],
      "name": "transferERC721",
      "outputs": [
        {
          "name": "success",
          "type": "bool"
        }
      ],
      "payable": false,
      "stateMutability": "nonpayable",
      "type": "function"
    },
    {
      "constant": false,
      "inputs": [
        {
          "name": "_erc1155Token",
          "type": "address"
        },
        {
          "name": "_to",
          "type": "address"
        },
        {
          "name": "_id",
          "type": "uint256"
        },
        {
          "name": "_value",
          "type": "uint256"
        }
      ],
      "name": "transferERC1155",
      "outputs": [
        {
          "name": "success",
          "type": "bool"
        }
      ],
      "payable": false,
      "stateMutability": "nonpayable",
      "type": "function"
    },
    {
      "constant": true,
      "inputs": [
        {
          "name": "populousTokenContract",
          "type": "address"
        }
      ],
      "name": "balanceOf",
      "outputs": [
        {
          "name": "",
          "type": "uint256"
        }
      ],
      "payable": false,
      "stateMutability": "view",
      "type": "function"
    },
    {
      "constant": true,
      "inputs": [
        {
          "name": "erc721Token",
          "type": "address"
        }
      ],
      "name": "balanceOfERC721",
      "outputs": [
        {
          "name": "",
          "type": "uint256"
        }
      ],
      "payable": false,
      "stateMutability": "view",
      "type": "function"
    },
    {
      "constant": true,
      "inputs": [
        {
          "name": "erc1155Token",
          "type": "address"
        },
        {
          "name": "_id",
          "type": "uint256"
        }
      ],
      "name": "balanceOfERC1155",
      "outputs": [
        {
          "name": "",
          "type": "uint256"
        }
      ],
      "payable": false,
      "stateMutability": "view",
      "type": "function"
    },
    {
      "constant": true,
      "inputs": [],
      "name": "getVersion",
      "outputs": [
        {
          "name": "",
          "type": "uint256"
        }
      ],
      "payable": false,
      "stateMutability": "view",
      "type": "function"
    },
    {
      "constant": true,
      "inputs": [],
      "name": "getServer",
      "outputs": [
        {
          "name": "",
          "type": "address"
        }
      ],
      "payable": false,
      "stateMutability": "view",
      "type": "function"
    },
    {
      "constant": true,
      "inputs": [],
      "name": "getClientId",
      "outputs": [
        {
          "name": "_clientId",
          "type": "bytes32"
        }
      ],
      "payable": false,
      "stateMutability": "view",
      "type": "function"
    }
  ],
  "bytecode": "0x6080604052600160025534801561001557600080fd5b50604051604080611a2f833981018060405281019080805190602001909291908051906020019092919050505080806000806101000a81548173ffffffffffffffffffffffffffffffffffffffff021916908373ffffffffffffffffffffffffffffffffffffffff160217905550508160018160001916905550505061198f806100a06000396000f3006080604052600436106100e6576000357c0100000000000000000000000000000000000000000000000000000000900463ffffffff16806302ab72c4146100e857806305b1137b1461012b578063089587cd146101905780630a7e880c146101e75780630d8e6e2c14610276578063150b7a02146102a15780631aca6376146103a6578063418ae2691461042b578063468f26221461048c578063527fe413146104e357806354fd4d50146105165780636bb3471a1461054157806370a0823114610574578063beabacc8146105cb578063f23a6e6114610650578063f7f01b4b1461075f575b005b3480156100f457600080fd5b50610129600480360381019080803573ffffffffffffffffffffffffffffffffffffffff1690602001909291905050506107b6565b005b34801561013757600080fd5b50610176600480360381019080803573ffffffffffffffffffffffffffffffffffffffff16906020019092919080359060200190929190505050610902565b604051808215151515815260200191505060405180910390f35b34801561019c57600080fd5b506101a5610bf4565b604051808273ffffffffffffffffffffffffffffffffffffffff1673ffffffffffffffffffffffffffffffffffffffff16815260200191505060405180910390f35b3480156101f357600080fd5b5061025c600480360381019080803573ffffffffffffffffffffffffffffffffffffffff169060200190929190803573ffffffffffffffffffffffffffffffffffffffff1690602001909291908035906020019092919080359060200190929190505050610cbb565b604051808215151515815260200191505060405180910390f35b34801561028257600080fd5b5061028b610fae565b6040518082815260200191505060405180910390f35b3480156102ad57600080fd5b50610352600480360381019080803573ffffffffffffffffffffffffffffffffffffffff169060200190929190803573ffffffffffffffffffffffffffffffffffffffff16906020019092919080359060200190929190803590602001908201803590602001908080601f0160208091040260200160405190810160405280939291908181526020018383808284378201915050505050509192919290505050610fb8565b60405180827bffffffffffffffffffffffffffffffffffffffffffffffffffffffff19167bffffffffffffffffffffffffffffffffffffffffffffffffffffffff1916815260200191505060405180910390f35b3480156103b257600080fd5b50610411600480360381019080803573ffffffffffffffffffffffffffffffffffffffff169060200190929190803573ffffffffffffffffffffffffffffffffffffffff16906020019092919080359060200190929190505050610fe8565b604051808215151515815260200191505060405180910390f35b34801561043757600080fd5b50610476600480360381019080803573ffffffffffffffffffffffffffffffffffffffff16906020019092919080359060200190929190505050611306565b6040518082815260200191505060405180910390f35b34801561049857600080fd5b506104cd600480360381019080803573ffffffffffffffffffffffffffffffffffffffff1690602001909291905050506113ee565b6040518082815260200191505060405180910390f35b3480156104ef57600080fd5b506104f86114cd565b60405180826000191660001916815260200191505060405180910390f35b34801561052257600080fd5b5061052b6114d7565b6040518082815260200191505060405180910390f35b34801561054d57600080fd5b506105566114dd565b60405180826000191660001916815260200191505060405180910390f35b34801561058057600080fd5b506105b5600480360381019080803573ffffffffffffffffffffffffffffffffffffffff1690602001909291905050506114e3565b6040518082815260200191505060405180910390f35b3480156105d757600080fd5b50610636600480360381019080803573ffffffffffffffffffffffffffffffffffffffff169060200190929190803573ffffffffffffffffffffffffffffffffffffffff16906020019092919080359060200190929190505050611616565b604051808215151515815260200191505060405180910390f35b34801561065c57600080fd5b5061070b600480360381019080803573ffffffffffffffffffffffffffffffffffffffff169060200190929190803573ffffffffffffffffffffffffffffffffffffffff1690602001909291908035906020019092919080359060200190929190803590602001908201803590602001908080601f016020809104026020016040519081016040528093929190818152602001838380828437820191505050505050919291929050505061190d565b60405180827bffffffffffffffffffffffffffffffffffffffffffffffffffffffff19167bffffffffffffffffffffffffffffffffffffffffffffffffffffffff1916815260200191505060405180910390f35b34801561076b57600080fd5b5061077461193e565b604051808273ffffffffffffffffffffffffffffffffffffffff1673ffffffffffffffffffffffffffffffffffffffff16815260200191505060405180910390f35b600115156000809054906101000a900473ffffffffffffffffffffffffffffffffffffffff1673ffffffffffffffffffffffffffffffffffffffff1663fda08958336040518263ffffffff167c0100000000000000000000000000000000000000000000000000000000028152600401808273ffffffffffffffffffffffffffffffffffffffff1673ffffffffffffffffffffffffffffffffffffffff168152602001915050602060405180830381600087803b15801561087657600080fd5b505af115801561088a573d6000803e3d6000fd5b505050506040513d60208110156108a057600080fd5b810190808051906020019092919050505015151415156108bf57600080fd5b806000806101000a81548173ffffffffffffffffffffffffffffffffffffffff021916908373ffffffffffffffffffffffffffffffffffffffff16021790555050565b6000600115156000809054906101000a900473ffffffffffffffffffffffffffffffffffffffff1673ffffffffffffffffffffffffffffffffffffffff1663fda08958336040518263ffffffff167c0100000000000000000000000000000000000000000000000000000000028152600401808273ffffffffffffffffffffffffffffffffffffffff1673ffffffffffffffffffffffffffffffffffffffff168152602001915050602060405180830381600087803b1580156109c457600080fd5b505af11580156109d8573d6000803e3d6000fd5b505050506040513d60208110156109ee57600080fd5b810190808051906020019092919050505015151480610b075750600115156000809054906101000a900473ffffffffffffffffffffffffffffffffffffffff1673ffffffffffffffffffffffffffffffffffffffff166305fd22d0336040518263ffffffff167c0100000000000000000000000000000000000000000000000000000000028152600401808273ffffffffffffffffffffffffffffffffffffffff1673ffffffffffffffffffffffffffffffffffffffff168152602001915050602060405180830381600087803b158015610ac857600080fd5b505af1158015610adc573d6000803e3d6000fd5b505050506040513d6020811015610af257600080fd5b81019080805190602001909291905050501515145b1515610b1257600080fd5b813073ffffffffffffffffffffffffffffffffffffffff163110151515610b3857600080fd5b600115158373ffffffffffffffffffffffffffffffffffffffff166108fc849081150290604051600060405180830381858888f193505050501515141515610b7f57600080fd5b7f1853ca9dc0208799379313b2b43364e45db022f073c72648fbc206dc0bacbcdc8383604051808373ffffffffffffffffffffffffffffffffffffffff1673ffffffffffffffffffffffffffffffffffffffff1681526020018281526020019250505060405180910390a16001905092915050565b60008060009054906101000a900473ffffffffffffffffffffffffffffffffffffffff1673ffffffffffffffffffffffffffffffffffffffff1663fd922a426040518163ffffffff167c0100000000000000000000000000000000000000000000000000000000028152600401602060405180830381600087803b158015610c7b57600080fd5b505af1158015610c8f573d6000803e3d6000fd5b505050506040513d6020811015610ca557600080fd5b8101908080519060200190929190505050905090565b6000600115156000809054906101000a900473ffffffffffffffffffffffffffffffffffffffff1673ffffffffffffffffffffffffffffffffffffffff1663fda08958336040518263ffffffff167c0100000000000000000000000000000000000000000000000000000000028152600401808273ffffffffffffffffffffffffffffffffffffffff1673ffffffffffffffffffffffffffffffffffffffff168152602001915050602060405180830381600087803b158015610d7d57600080fd5b505af1158015610d91573d6000803e3d6000fd5b505050506040513d6020811015610da757600080fd5b810190808051906020019092919050505015151480610ec05750600115156000809054906101000a900473ffffffffffffffffffffffffffffffffffffffff1673ffffffffffffffffffffffffffffffffffffffff166305fd22d0336040518263ffffffff167c0100000000000000000000000000000000000000000000000000000000028152600401808273ffffffffffffffffffffffffffffffffffffffff1673ffffffffffffffffffffffffffffffffffffffff168152602001915050602060405180830381600087803b158015610e8157600080fd5b505af1158015610e95573d6000803e3d6000fd5b505050506040513d6020811015610eab57600080fd5b81019080805190602001909291905050501515145b1515610ecb57600080fd5b8473ffffffffffffffffffffffffffffffffffffffff1663ae28b68c8585856040518463ffffffff167c0100000000000000000000000000000000000000000000000000000000028152600401808473ffffffffffffffffffffffffffffffffffffffff1673ffffffffffffffffffffffffffffffffffffffff16815260200183815260200182815260200180602001828103825260008152602001602001945050505050600060405180830381600087803b158015610f8a57600080fd5b505af1158015610f9e573d6000803e3d6000fd5b5050505060019050949350505050565b6000600254905090565b600063150b7a027c0100000000000000000000000000000000000000000000000000000000029050949350505050565b6000600115156000809054906101000a900473ffffffffffffffffffffffffffffffffffffffff1673ffffffffffffffffffffffffffffffffffffffff1663fda08958336040518263ffffffff167c0100000000000000000000000000000000000000000000000000000000028152600401808273ffffffffffffffffffffffffffffffffffffffff1673ffffffffffffffffffffffffffffffffffffffff168152602001915050602060405180830381600087803b1580156110aa57600080fd5b505af11580156110be573d6000803e3d6000fd5b505050506040513d60208110156110d457600080fd5b8101908080519060200190929190505050151514806111ed5750600115156000809054906101000a900473ffffffffffffffffffffffffffffffffffffffff1673ffffffffffffffffffffffffffffffffffffffff166305fd22d0336040518263ffffffff167c0100000000000000000000000000000000000000000000000000000000028152600401808273ffffffffffffffffffffffffffffffffffffffff1673ffffffffffffffffffffffffffffffffffffffff168152602001915050602060405180830381600087803b1580156111ae57600080fd5b505af11580156111c2573d6000803e3d6000fd5b505050506040513d60208110156111d857600080fd5b81019080805190602001909291905050501515145b15156111f857600080fd5b8373ffffffffffffffffffffffffffffffffffffffff1663b88d4fde3085856040518463ffffffff167c0100000000000000000000000000000000000000000000000000000000028152600401808473ffffffffffffffffffffffffffffffffffffffff1673ffffffffffffffffffffffffffffffffffffffff1681526020018373ffffffffffffffffffffffffffffffffffffffff1673ffffffffffffffffffffffffffffffffffffffff16815260200182815260200180602001828103825260008152602001602001945050505050600060405180830381600087803b1580156112e357600080fd5b505af11580156112f7573d6000803e3d6000fd5b50505050600190509392505050565b60008273ffffffffffffffffffffffffffffffffffffffff16633656eec283306040518363ffffffff167c0100000000000000000000000000000000000000000000000000000000028152600401808381526020018273ffffffffffffffffffffffffffffffffffffffff1673ffffffffffffffffffffffffffffffffffffffff16815260200192505050602060405180830381600087803b1580156113ab57600080fd5b505af11580156113bf573d6000803e3d6000fd5b505050506040513d60208110156113d557600080fd5b8101908080519060200190929190505050905092915050565b60008173ffffffffffffffffffffffffffffffffffffffff166370a08231306040518263ffffffff167c0100000000000000000000000000000000000000000000000000000000028152600401808273ffffffffffffffffffffffffffffffffffffffff1673ffffffffffffffffffffffffffffffffffffffff168152602001915050602060405180830381600087803b15801561148b57600080fd5b505af115801561149f573d6000803e3d6000fd5b505050506040513d60208110156114b557600080fd5b81019080805190602001909291905050509050919050565b6000600154905090565b60025481565b60015481565b60008073ffffffffffffffffffffffffffffffffffffffff168273ffffffffffffffffffffffffffffffffffffffff161415611538573073ffffffffffffffffffffffffffffffffffffffff16319050611611565b8173ffffffffffffffffffffffffffffffffffffffff166370a08231306040518263ffffffff167c0100000000000000000000000000000000000000000000000000000000028152600401808273ffffffffffffffffffffffffffffffffffffffff1673ffffffffffffffffffffffffffffffffffffffff168152602001915050602060405180830381600087803b1580156115d357600080fd5b505af11580156115e7573d6000803e3d6000fd5b505050506040513d60208110156115fd57600080fd5b810190808051906020019092919050505090505b919050565b6000600115156000809054906101000a900473ffffffffffffffffffffffffffffffffffffffff1673ffffffffffffffffffffffffffffffffffffffff1663fda08958336040518263ffffffff167c0100000000000000000000000000000000000000000000000000000000028152600401808273ffffffffffffffffffffffffffffffffffffffff1673ffffffffffffffffffffffffffffffffffffffff168152602001915050602060405180830381600087803b1580156116d857600080fd5b505af11580156116ec573d6000803e3d6000fd5b505050506040513d602081101561170257600080fd5b81019080805190602001909291905050501515148061181b5750600115156000809054906101000a900473ffffffffffffffffffffffffffffffffffffffff1673ffffffffffffffffffffffffffffffffffffffff166305fd22d0336040518263ffffffff167c0100000000000000000000000000000000000000000000000000000000028152600401808273ffffffffffffffffffffffffffffffffffffffff1673ffffffffffffffffffffffffffffffffffffffff168152602001915050602060405180830381600087803b1580156117dc57600080fd5b505af11580156117f0573d6000803e3d6000fd5b505050506040513d602081101561180657600080fd5b81019080805190602001909291905050501515145b151561182657600080fd5b8373ffffffffffffffffffffffffffffffffffffffff1663a9059cbb84846040518363ffffffff167c0100000000000000000000000000000000000000000000000000000000028152600401808373ffffffffffffffffffffffffffffffffffffffff1673ffffffffffffffffffffffffffffffffffffffff16815260200182815260200192505050602060405180830381600087803b1580156118c957600080fd5b505af11580156118dd573d6000803e3d6000fd5b505050506040513d60208110156118f357600080fd5b810190808051906020019092919050505090509392505050565b600063f23a6e617c010000000000000000000000000000000000000000000000000000000002905095945050505050565b6000809054906101000a900473ffffffffffffffffffffffffffffffffffffffff16815600a165627a7a7230582065a4776bfe41161549a512815bd92774acff9572c4bdfa12f18019a51d4c0cc40029",
  "source": "pragma solidity ^0.4.17;\n\nimport \"./iERC20Token.sol\";\nimport \"./withAccessManager.sol\";\nimport \"./ERC1155.sol\";\nimport \"./ERC721Basic.sol\";\n\n\n/// @title DepositContract contract\ncontract DepositContract is withAccessManager {\n\n    bytes32 public clientId; // client ID.\n    uint256 public version = 1;\n\n    // EVENTS\n    event EtherTransfer(address to, uint256 value);\n    event EtherTransferToServer(address to, bytes32 clientId, uint256 value);\n    // NON-CONSTANT METHODS \n\n    /** @dev Constructor that sets the _clientID when the contract is deployed.\n      * @dev The method also sets the manager to the msg.sender.\n      * @param _clientId A string of fixed length representing the client ID.\n      */\n    constructor(bytes32 _clientId, address accessManager) public withAccessManager(accessManager) {\n        clientId = _clientId;\n    }\n\n    // TOKEN RECEIVERS\n\n    // payable function to allow this contract receive ether\n    function () public payable {\n        // send ether to server\n        //require(getServer().send(msg.value) == true);\n        //EtherTransferToServer(getServer(), clientId, msg.value);\n    }\n\n    /**\n    * @notice Handle the receipt of an NFT\n    * @dev The ERC721 smart contract calls this function on the recipient\n    * after a `safetransfer` if the recipient is a smart contract. This function MAY throw to revert and reject the\n    * transfer. Return of other than the magic value (0x150b7a02) MUST result in the\n    * transaction being reverted.\n    * Note: the contract address is always the message sender.\n    * @param _operator The address which called `safeTransferFrom` function\n    * @param _from The address which previously owned the token\n    * @param _tokenId The NFT identifier which is being transferred\n    * @param _data Additional data with no specified format\n    * @return `bytes4(keccak256(\"onERC721Received(address,address,uint256,bytes)\"))`\n    */\n    function onERC721Received(address _operator, address _from, uint256 _tokenId, bytes _data) public returns(bytes4) {\n        return 0x150b7a02; \n    }\n\n    /// @notice Handle the receipt of an ERC1155 type\n    /// @dev The smart contract calls this function on the recipient\n    ///  after a `safeTransfer`. This function MAY throw to revert and reject the\n    ///  transfer. Return of other than the magic value MUST result in the\n    ///  transaction being reverted.\n    ///  Note: the contract address is always the message sender.\n    /// @param _operator The address which called `safeTransferFrom` function\n    /// @param _from The address which previously owned the token\n    /// @param _id The identifier of the item being transferred\n    /// @param _value The amount of the item being transferred\n    /// @param _data Additional data with no specified format\n    /// @return `bytes4(keccak256(\"onERC1155Received(address,address,uint256,uint256,bytes)\"))`\n    ///  unless throwing\n    function onERC1155Received(address _operator, address _from, uint256 _id, uint256 _value, bytes _data) public returns(bytes4) {\n        return 0xf23a6e61;\n    }\n\n\n    // TOKEN SENDERS\n     \n    /** @dev Transfers an amount '_value' of tokens from msg.sender to '_to' address/wallet.\n      * @param populousTokenContract The address of the ERC20 token contract which implements the transfer method.\n      * @param _value the amount of tokens to transfer.\n      * @param _to The address/wallet to send to.\n      * @return success boolean true or false indicating whether the transfer was successful or not.\n      */\n    function transfer(address populousTokenContract, address _to, uint256 _value) public\n        onlyServerOrOnlyPopulous returns (bool success) \n    {\n        return iERC20Token(populousTokenContract).transfer(_to, _value);\n    }\n\n    /** @dev Transfers ether from this contract to a specified wallet/address\n      * @param _to An address implementing to send ether to.\n      * @param _value The amount of ether to send in wei. \n      * @return bool Successful or unsuccessful transfer\n      */\n    function transferEther(address _to, uint256 _value) public \n        onlyServerOrOnlyPopulous returns (bool success) \n    {\n        require(this.balance >= _value);\n        require(_to.send(_value) == true);\n        EtherTransfer(_to, _value);\n        return true;\n    }\n\n    /**\n    * @dev Safely transfers the ownership of a given token ID to another address\n    * If the target address is a contract, it must implement `onERC721Received`,\n    * which is called upon a safe transfer, and return the magic value\n    * `bytes4(keccak256(\"onERC721Received(address,address,uint256,bytes)\"))`; otherwise,\n    * the transfer is reverted.\n    *\n    * Requires the msg sender to be the owner, approved, or operator\n    * @param erc721Token address of the erc721 token to target\n    * @param _to address to receive the ownership of the given token ID\n    * @param _tokenId uint256 ID of the token to be transferred\n    */\n    function transferERC721(\n        address erc721Token,\n        address _to,\n        uint256 _tokenId\n    )\n        public onlyServerOrOnlyPopulous returns (bool success)\n    {\n        // solium-disable-next-line arg-overflow\n        ERC721Basic(erc721Token).safeTransferFrom(this, _to, _tokenId, \"\");\n        return true;\n    }\n\n    /** @dev This function will transfer iERC1155 tokens\n     */\n    function transferERC1155(address _erc1155Token, address _to, uint256 _id, uint256 _value) \n        public onlyServerOrOnlyPopulous returns (bool success) {\n        ERC1155(_erc1155Token).safeTransfer(_to, _id, _value, \"\");\n        return true;\n    }\n\n    \n    // CONSTANT METHODS\n    \n    /** @dev Returns the ether or token balance of the current contract instance using the ERC20 balanceOf method.\n      * @param populousTokenContract An address implementing the ERC20 token standard. \n      * @return uint An unsigned integer representing the returned token balance.\n      */\n    function balanceOf(address populousTokenContract) public view returns (uint256) {\n        // ether\n        if (populousTokenContract == address(0)) {\n            return address(this).balance;\n        } else {\n            // erc20\n            return iERC20Token(populousTokenContract).balanceOf(this);\n        }\n    }\n\n    /**\n    * @dev Gets the balance of the specified address\n    * @param erc721Token address to erc721 token to target\n    * @return uint256 representing the amount owned by the passed address\n    */\n    function balanceOfERC721(address erc721Token) public view returns (uint256) {\n        return ERC721Basic(erc721Token).balanceOf(this);\n        // returns ownedTokensCount[_owner];\n    }\n\n    /**\n    * @dev Gets the balance of the specified address\n    * @param _id the token id\n    * @param erc1155Token address to erc1155 token to target\n    * @return uint256 representing the amount owned by the passed address\n    */\n    function balanceOfERC1155(address erc1155Token, uint256 _id) external view returns (uint256) {\n        return ERC1155(erc1155Token).balanceOf(_id, this);\n    }\n\n    /** @dev Gets the version of this deposit contract\n      * @return uint256 version\n      */\n    function getVersion() public view returns (uint256) {\n        return version;\n    }\n\n    function getServer() public view returns (address) {\n        return AM.server();\n    }\n\n    // CONSTANT FUNCTIONS\n\n    /** @dev This function gets the client ID or deposit contract owner\n     * returns _clientId\n     */\n    function getClientId() public view returns (bytes32 _clientId) {\n        return clientId;\n    }\n}",
  "sourcePath": "/Users/najienka/Desktop/populous-app/populous-exchangecontracts/contracts/DepositContract.sol",
  "compiler": {
    "name": "solc",
    "version": "0.4.25+commit.59dbf8f1.Emscripten.clang"
  },
  "schemaVersion": "2.0.2",
  "updatedAt": "2019-03-26T14:12:24.910Z"
}