{
  "contractName": "ERC1155",
  "abi": [
    {
      "constant": true,
      "inputs": [
        {
          "name": "",
          "type": "uint256"
        }
      ],
      "name": "metadataURIs",
      "outputs": [
        {
          "name": "",
          "type": "string"
        }
      ],
      "payable": false,
      "stateMutability": "view",
      "type": "function"
    },
    {
      "constant": true,
      "inputs": [
        {
          "name": "",
          "type": "uint256"
        }
      ],
      "name": "items",
      "outputs": [
        {
          "name": "name",
          "type": "string"
        },
        {
          "name": "totalSupply",
          "type": "uint256"
        }
      ],
      "payable": false,
      "stateMutability": "view",
      "type": "function"
    },
    {
      "constant": true,
      "inputs": [
        {
          "name": "",
          "type": "uint256"
        }
      ],
      "name": "symbols",
      "outputs": [
        {
          "name": "",
          "type": "string"
        }
      ],
      "payable": false,
      "stateMutability": "view",
      "type": "function"
    },
    {
      "constant": true,
      "inputs": [
        {
          "name": "",
          "type": "uint256"
        },
        {
          "name": "",
          "type": "address"
        },
        {
          "name": "",
          "type": "address"
        }
      ],
      "name": "allowances",
      "outputs": [
        {
          "name": "",
          "type": "uint256"
        }
      ],
      "payable": false,
      "stateMutability": "view",
      "type": "function"
    },
    {
      "anonymous": false,
      "inputs": [
        {
          "indexed": true,
          "name": "_owner",
          "type": "address"
        },
        {
          "indexed": true,
          "name": "_spender",
          "type": "address"
        },
        {
          "indexed": true,
          "name": "_id",
          "type": "uint256"
        },
        {
          "indexed": false,
          "name": "_oldValue",
          "type": "uint256"
        },
        {
          "indexed": false,
          "name": "_value",
          "type": "uint256"
        }
      ],
      "name": "Approval",
      "type": "event"
    },
    {
      "anonymous": false,
      "inputs": [
        {
          "indexed": false,
          "name": "_spender",
          "type": "address"
        },
        {
          "indexed": true,
          "name": "_from",
          "type": "address"
        },
        {
          "indexed": true,
          "name": "_to",
          "type": "address"
        },
        {
          "indexed": true,
          "name": "_id",
          "type": "uint256"
        },
        {
          "indexed": false,
          "name": "_value",
          "type": "uint256"
        }
      ],
      "name": "Transfer",
      "type": "event"
    },
    {
      "constant": false,
      "inputs": [
        {
          "name": "_from",
          "type": "address"
        },
        {
          "name": "_to",
          "type": "address"
        },
        {
          "name": "_id",
          "type": "uint256"
        },
        {
          "name": "_value",
          "type": "uint256"
        }
      ],
      "name": "transferFrom",
      "outputs": [],
      "payable": false,
      "stateMutability": "nonpayable",
      "type": "function"
    },
    {
      "constant": false,
      "inputs": [
        {
          "name": "_from",
          "type": "address"
        },
        {
          "name": "_to",
          "type": "address"
        },
        {
          "name": "_id",
          "type": "uint256"
        },
        {
          "name": "_value",
          "type": "uint256"
        },
        {
          "name": "_data",
          "type": "bytes"
        }
      ],
      "name": "safeTransferFrom",
      "outputs": [],
      "payable": false,
      "stateMutability": "nonpayable",
      "type": "function"
    },
    {
      "constant": false,
      "inputs": [
        {
          "name": "_spender",
          "type": "address"
        },
        {
          "name": "_id",
          "type": "uint256"
        },
        {
          "name": "_currentValue",
          "type": "uint256"
        },
        {
          "name": "_value",
          "type": "uint256"
        }
      ],
      "name": "approve",
      "outputs": [],
      "payable": false,
      "stateMutability": "nonpayable",
      "type": "function"
    },
    {
      "constant": true,
      "inputs": [
        {
          "name": "_id",
          "type": "uint256"
        },
        {
          "name": "_owner",
          "type": "address"
        }
      ],
      "name": "balanceOf",
      "outputs": [
        {
          "name": "",
          "type": "uint256"
        }
      ],
      "payable": false,
      "stateMutability": "view",
      "type": "function"
    },
    {
      "constant": true,
      "inputs": [
        {
          "name": "_id",
          "type": "uint256"
        },
        {
          "name": "_owner",
          "type": "address"
        },
        {
          "name": "_spender",
          "type": "address"
        }
      ],
      "name": "allowance",
      "outputs": [
        {
          "name": "",
          "type": "uint256"
        }
      ],
      "payable": false,
      "stateMutability": "view",
      "type": "function"
    },
    {
      "constant": false,
      "inputs": [
        {
          "name": "_to",
          "type": "address"
        },
        {
          "name": "_id",
          "type": "uint256"
        },
        {
          "name": "_value",
          "type": "uint256"
        }
      ],
      "name": "transfer",
      "outputs": [],
      "payable": false,
      "stateMutability": "nonpayable",
      "type": "function"
    },
    {
      "constant": false,
      "inputs": [
        {
          "name": "_to",
          "type": "address"
        },
        {
          "name": "_id",
          "type": "uint256"
        },
        {
          "name": "_value",
          "type": "uint256"
        },
        {
          "name": "_data",
          "type": "bytes"
        }
      ],
      "name": "safeTransfer",
      "outputs": [],
      "payable": false,
      "stateMutability": "nonpayable",
      "type": "function"
    },
    {
      "constant": false,
      "inputs": [
        {
          "name": "_from",
          "type": "address"
        },
        {
          "name": "_to",
          "type": "address"
        },
        {
          "name": "_ids",
          "type": "uint256[]"
        },
        {
          "name": "_values",
          "type": "uint256[]"
        }
      ],
      "name": "batchTransferFrom",
      "outputs": [],
      "payable": false,
      "stateMutability": "nonpayable",
      "type": "function"
    },
    {
      "constant": false,
      "inputs": [
        {
          "name": "_from",
          "type": "address"
        },
        {
          "name": "_to",
          "type": "address"
        },
        {
          "name": "_ids",
          "type": "uint256[]"
        },
        {
          "name": "_values",
          "type": "uint256[]"
        },
        {
          "name": "_data",
          "type": "bytes"
        }
      ],
      "name": "safeBatchTransferFrom",
      "outputs": [],
      "payable": false,
      "stateMutability": "nonpayable",
      "type": "function"
    },
    {
      "constant": false,
      "inputs": [
        {
          "name": "_spender",
          "type": "address"
        },
        {
          "name": "_ids",
          "type": "uint256[]"
        },
        {
          "name": "_currentValues",
          "type": "uint256[]"
        },
        {
          "name": "_values",
          "type": "uint256[]"
        }
      ],
      "name": "batchApprove",
      "outputs": [],
      "payable": false,
      "stateMutability": "nonpayable",
      "type": "function"
    },
    {
      "constant": false,
      "inputs": [
        {
          "name": "_to",
          "type": "address"
        },
        {
          "name": "_ids",
          "type": "uint256[]"
        },
        {
          "name": "_values",
          "type": "uint256[]"
        }
      ],
      "name": "batchTransfer",
      "outputs": [],
      "payable": false,
      "stateMutability": "nonpayable",
      "type": "function"
    },
    {
      "constant": false,
      "inputs": [
        {
          "name": "_to",
          "type": "address"
        },
        {
          "name": "_ids",
          "type": "uint256[]"
        },
        {
          "name": "_values",
          "type": "uint256[]"
        },
        {
          "name": "_data",
          "type": "bytes"
        }
      ],
      "name": "safeBatchTransfer",
      "outputs": [],
      "payable": false,
      "stateMutability": "nonpayable",
      "type": "function"
    },
    {
      "constant": true,
      "inputs": [
        {
          "name": "_id",
          "type": "uint256"
        }
      ],
      "name": "name",
      "outputs": [
        {
          "name": "",
          "type": "string"
        }
      ],
      "payable": false,
      "stateMutability": "view",
      "type": "function"
    },
    {
      "constant": true,
      "inputs": [
        {
          "name": "_id",
          "type": "uint256"
        }
      ],
      "name": "symbol",
      "outputs": [
        {
          "name": "",
          "type": "string"
        }
      ],
      "payable": false,
      "stateMutability": "view",
      "type": "function"
    },
    {
      "constant": true,
      "inputs": [
        {
          "name": "_id",
          "type": "uint256"
        }
      ],
      "name": "decimals",
      "outputs": [
        {
          "name": "",
          "type": "uint8"
        }
      ],
      "payable": false,
      "stateMutability": "view",
      "type": "function"
    },
    {
      "constant": true,
      "inputs": [
        {
          "name": "_id",
          "type": "uint256"
        }
      ],
      "name": "totalSupply",
      "outputs": [
        {
          "name": "",
          "type": "uint256"
        }
      ],
      "payable": false,
      "stateMutability": "view",
      "type": "function"
    },
    {
      "constant": true,
      "inputs": [
        {
          "name": "_id",
          "type": "uint256"
        }
      ],
      "name": "uri",
      "outputs": [
        {
          "name": "",
          "type": "string"
        }
      ],
      "payable": false,
      "stateMutability": "view",
      "type": "function"
    },
    {
      "constant": false,
      "inputs": [
        {
          "name": "_to",
          "type": "address[]"
        },
        {
          "name": "_ids",
          "type": "uint256[]"
        },
        {
          "name": "_values",
          "type": "uint256[]"
        }
      ],
      "name": "multicastTransfer",
      "outputs": [],
      "payable": false,
      "stateMutability": "nonpayable",
      "type": "function"
    },
    {
      "constant": false,
      "inputs": [
        {
          "name": "_to",
          "type": "address[]"
        },
        {
          "name": "_ids",
          "type": "uint256[]"
        },
        {
          "name": "_values",
          "type": "uint256[]"
        },
        {
          "name": "_data",
          "type": "bytes"
        }
      ],
      "name": "safeMulticastTransfer",
      "outputs": [],
      "payable": false,
      "stateMutability": "nonpayable",
      "type": "function"
    }
  ],
  "bytecode": "0x608060405234801561001057600080fd5b50613d2b806100206000396000f300608060405260043610610132576000357c0100000000000000000000000000000000000000000000000000000000900463ffffffff168062ad800c14610137578063095bcdb6146101dd5780630d550b75146102345780630e89341c146102b557806317fad7fc1461035b5780632eb2c2d6146103ee5780633656eec214610499578063368b2842146104fa5780633f47e662146105855780634e41a1fb146105cc5780634ed5c558146106725780634f4df4421461071857806367fd9da314610779578063ae28b68c146107e4578063bd85b03914610853578063bfb231d214610894578063ccce413b14610941578063d1bab4cc146109e7578063dbd3c37214610a72578063e39c6d8014610af5578063e70d6dc514610b68578063f242432a14610be9578063fe99049a14610c78575b600080fd5b34801561014357600080fd5b5061016260048036038101908080359060200190929190505050610cef565b6040518080602001828103825283818151815260200191508051906020019080838360005b838110156101a2578082015181840152602081019050610187565b50505050905090810190601f1680156101cf5780820380516001836020036101000a031916815260200191505b509250505060405180910390f35b3480156101e957600080fd5b50610232600480360381019080803573ffffffffffffffffffffffffffffffffffffffff1690602001909291908035906020019092919080359060200190929190505050610da7565b005b34801561024057600080fd5b5061029f60048036038101908080359060200190929190803573ffffffffffffffffffffffffffffffffffffffff169060200190929190803573ffffffffffffffffffffffffffffffffffffffff169060200190929190505050610fc0565b6040518082815260200191505060405180910390f35b3480156102c157600080fd5b506102e060048036038101908080359060200190929190505050611059565b6040518080602001828103825283818151815260200191508051906020019080838360005b83811015610320578082015181840152602081019050610305565b50505050905090810190601f16801561034d5780820380516001836020036101000a031916815260200191505b509250505060405180910390f35b34801561036757600080fd5b506103ec600480360381019080803573ffffffffffffffffffffffffffffffffffffffff169060200190929190803573ffffffffffffffffffffffffffffffffffffffff16906020019092919080359060200190820180359060200191909192939192939080359060200190820180359060200191909192939192939050505061110e565b005b3480156103fa57600080fd5b50610497600480360381019080803573ffffffffffffffffffffffffffffffffffffffff169060200190929190803573ffffffffffffffffffffffffffffffffffffffff169060200190929190803590602001908201803590602001919091929391929390803590602001908201803590602001919091929391929390803590602001908201803590602001919091929391929390505050611743565b005b3480156104a557600080fd5b506104e460048036038101908080359060200190929190803573ffffffffffffffffffffffffffffffffffffffff169060200190929190505050611e06565b6040518082815260200191505060405180910390f35b34801561050657600080fd5b50610583600480360381019080803573ffffffffffffffffffffffffffffffffffffffff169060200190929190803590602001908201803590602001919091929391929390803590602001908201803590602001919091929391929390803590602001908201803590602001919091929391929390505050611e64565b005b34801561059157600080fd5b506105b06004803603810190808035906020019092919050505061215e565b604051808260ff1660ff16815260200191505060405180910390f35b3480156105d857600080fd5b506105f760048036038101908080359060200190929190505050612187565b6040518080602001828103825283818151815260200191508051906020019080838360005b8381101561063757808201518184015260208101905061061c565b50505050905090810190601f1680156106645780820380516001836020036101000a031916815260200191505b509250505060405180910390f35b34801561067e57600080fd5b5061069d6004803603810190808035906020019092919050505061223c565b6040518080602001828103825283818151815260200191508051906020019080838360005b838110156106dd5780820151818401526020810190506106c2565b50505050905090810190601f16801561070a5780820380516001836020036101000a031916815260200191505b509250505060405180910390f35b34801561072457600080fd5b50610777600480360381019080803573ffffffffffffffffffffffffffffffffffffffff1690602001909291908035906020019092919080359060200190929190803590602001909291905050506122ec565b005b34801561078557600080fd5b506107e2600480360381019080803590602001908201803590602001919091929391929390803590602001908201803590602001919091929391929390803590602001908201803590602001919091929391929390505050612498565b005b3480156107f057600080fd5b50610851600480360381019080803573ffffffffffffffffffffffffffffffffffffffff1690602001909291908035906020019092919080359060200190929190803590602001908201803590602001919091929391929390505050612734565b005b34801561085f57600080fd5b5061087e60048036038101908080359060200190929190505050612999565b6040518082815260200191505060405180910390f35b3480156108a057600080fd5b506108bf600480360381019080803590602001909291905050506129b9565b6040518080602001838152602001828103825284818151815260200191508051906020019080838360005b838110156109055780820151818401526020810190506108ea565b50505050905090810190601f1680156109325780820380516001836020036101000a031916815260200191505b50935050505060405180910390f35b34801561094d57600080fd5b5061096c60048036038101908080359060200190929190505050612a75565b6040518080602001828103825283818151815260200191508051906020019080838360005b838110156109ac578082015181840152602081019050610991565b50505050905090810190601f1680156109d95780820380516001836020036101000a031916815260200191505b509250505060405180910390f35b3480156109f357600080fd5b50610a70600480360381019080803573ffffffffffffffffffffffffffffffffffffffff169060200190929190803590602001908201803590602001919091929391929390803590602001908201803590602001919091929391929390803590602001908201803590602001919091929391929390505050612b25565b005b348015610a7e57600080fd5b50610af3600480360381019080803590602001908201803590602001919091929391929390803590602001908201803590602001919091929391929390803590602001908201803590602001919091929391929390803590602001908201803590602001919091929391929390505050612d4c565b005b348015610b0157600080fd5b50610b66600480360381019080803573ffffffffffffffffffffffffffffffffffffffff1690602001909291908035906020019082018035906020019190919293919293908035906020019082018035906020019190919293919293905050506130a1565b005b348015610b7457600080fd5b50610bd360048036038101908080359060200190929190803573ffffffffffffffffffffffffffffffffffffffff169060200190929190803573ffffffffffffffffffffffffffffffffffffffff16906020019092919050505061330c565b6040518082815260200191505060405180910390f35b348015610bf557600080fd5b50610c76600480360381019080803573ffffffffffffffffffffffffffffffffffffffff169060200190929190803573ffffffffffffffffffffffffffffffffffffffff169060200190929190803590602001909291908035906020019092919080359060200190820180359060200191909192939192939050505061333e565b005b348015610c8457600080fd5b50610ced600480360381019080803573ffffffffffffffffffffffffffffffffffffffff169060200190929190803573ffffffffffffffffffffffffffffffffffffffff169060200190929190803590602001909291908035906020019092919050505061370b565b005b6060600360008381526020019081526020016000206000018054600181600116156101000203166002900480601f016020809104026020016040519081016040528092919081815260200182805460018160011615610100020316600290048015610d9b5780601f10610d7057610100808354040283529160200191610d9b565b820191906000526020600020905b815481529060010190602001808311610d7e57829003601f168201915b50505050509050919050565b610e0d816003600085815260200190815260200160002060020160003373ffffffffffffffffffffffffffffffffffffffff1673ffffffffffffffffffffffffffffffffffffffff16815260200190815260200160002054613a8c90919063ffffffff16565b6003600084815260200190815260200160002060020160003373ffffffffffffffffffffffffffffffffffffffff1673ffffffffffffffffffffffffffffffffffffffff16815260200190815260200160002081905550610eca6003600084815260200190815260200160002060020160008573ffffffffffffffffffffffffffffffffffffffff1673ffffffffffffffffffffffffffffffffffffffff1681526020019081526020016000205482613aa590919063ffffffff16565b6003600084815260200190815260200160002060020160008573ffffffffffffffffffffffffffffffffffffffff1673ffffffffffffffffffffffffffffffffffffffff16815260200190815260200160002081905550818373ffffffffffffffffffffffffffffffffffffffff163373ffffffffffffffffffffffffffffffffffffffff167f1b3d7edb2e9c0b0e7c525b20aaaef0f5940d2ed71663c7d39266ecafac7288593385604051808373ffffffffffffffffffffffffffffffffffffffff1673ffffffffffffffffffffffffffffffffffffffff1681526020018281526020019250505060405180910390a4505050565b60006002600085815260200190815260200160002060008473ffffffffffffffffffffffffffffffffffffffff1673ffffffffffffffffffffffffffffffffffffffff16815260200190815260200160002060008373ffffffffffffffffffffffffffffffffffffffff1673ffffffffffffffffffffffffffffffffffffffff1681526020019081526020016000205490509392505050565b6060600460008381526020019081526020016000208054600181600116156101000203166002900480601f0160208091040260200160405190810160405280929190818152602001828054600181600116156101000203166002900480156111025780601f106110d757610100808354040283529160200191611102565b820191906000526020600020905b8154815290600101906020018083116110e557829003601f168201915b50505050509050919050565b60008060003373ffffffffffffffffffffffffffffffffffffffff168973ffffffffffffffffffffffffffffffffffffffff1614156113a957600090505b868690508110156113a457868682818110151561116557fe5b905060200201359250848482818110151561117c57fe5b9050602002013591506111eb826003600086815260200190815260200160002060020160008c73ffffffffffffffffffffffffffffffffffffffff1673ffffffffffffffffffffffffffffffffffffffff16815260200190815260200160002054613a8c90919063ffffffff16565b6003600085815260200190815260200160002060020160008b73ffffffffffffffffffffffffffffffffffffffff1673ffffffffffffffffffffffffffffffffffffffff168152602001908152602001600020819055506112a86003600085815260200190815260200160002060020160008a73ffffffffffffffffffffffffffffffffffffffff1673ffffffffffffffffffffffffffffffffffffffff1681526020019081526020016000205483613aa590919063ffffffff16565b6003600085815260200190815260200160002060020160008a73ffffffffffffffffffffffffffffffffffffffff1673ffffffffffffffffffffffffffffffffffffffff16815260200190815260200160002081905550828873ffffffffffffffffffffffffffffffffffffffff168a73ffffffffffffffffffffffffffffffffffffffff167f1b3d7edb2e9c0b0e7c525b20aaaef0f5940d2ed71663c7d39266ecafac7288593386604051808373ffffffffffffffffffffffffffffffffffffffff1673ffffffffffffffffffffffffffffffffffffffff1681526020018281526020019250505060405180910390a480600101905061114c565b611738565b600090505b868690508110156117375786868281811015156113c757fe5b90506020020135925084848281811015156113de57fe5b905060200201359150611487826002600086815260200190815260200160002060008c73ffffffffffffffffffffffffffffffffffffffff1673ffffffffffffffffffffffffffffffffffffffff16815260200190815260200160002060003373ffffffffffffffffffffffffffffffffffffffff1673ffffffffffffffffffffffffffffffffffffffff16815260200190815260200160002054613a8c90919063ffffffff16565b6002600085815260200190815260200160002060008b73ffffffffffffffffffffffffffffffffffffffff1673ffffffffffffffffffffffffffffffffffffffff16815260200190815260200160002060003373ffffffffffffffffffffffffffffffffffffffff1673ffffffffffffffffffffffffffffffffffffffff1681526020019081526020016000208190555061157e826003600086815260200190815260200160002060020160008c73ffffffffffffffffffffffffffffffffffffffff1673ffffffffffffffffffffffffffffffffffffffff16815260200190815260200160002054613a8c90919063ffffffff16565b6003600085815260200190815260200160002060020160008b73ffffffffffffffffffffffffffffffffffffffff1673ffffffffffffffffffffffffffffffffffffffff1681526020019081526020016000208190555061163b6003600085815260200190815260200160002060020160008a73ffffffffffffffffffffffffffffffffffffffff1673ffffffffffffffffffffffffffffffffffffffff1681526020019081526020016000205483613aa590919063ffffffff16565b6003600085815260200190815260200160002060020160008a73ffffffffffffffffffffffffffffffffffffffff1673ffffffffffffffffffffffffffffffffffffffff16815260200190815260200160002081905550828873ffffffffffffffffffffffffffffffffffffffff168a73ffffffffffffffffffffffffffffffffffffffff167f1b3d7edb2e9c0b0e7c525b20aaaef0f5940d2ed71663c7d39266ecafac7288593386604051808373ffffffffffffffffffffffffffffffffffffffff1673ffffffffffffffffffffffffffffffffffffffff1681526020018281526020019250505060405180910390a48060010190506113ae565b5b505050505050505050565b60008060008092505b888890508310156117d4576117be8b8b8b8b87818110151561176a57fe5b905060200201358a8a88818110151561177f57fe5b9050602002013589898080601f016020809104026020016040519081016040528093929190818152602001838380828437820191505050505050613ac1565b15156117c957600080fd5b82600101925061174c565b3373ffffffffffffffffffffffffffffffffffffffff168b73ffffffffffffffffffffffffffffffffffffffff161415611a6a57600092505b88889050831015611a6557888884818110151561182657fe5b905060200201359150868684818110151561183d57fe5b9050602002013590506118ac816003600085815260200190815260200160002060020160008e73ffffffffffffffffffffffffffffffffffffffff1673ffffffffffffffffffffffffffffffffffffffff16815260200190815260200160002054613a8c90919063ffffffff16565b6003600084815260200190815260200160002060020160008d73ffffffffffffffffffffffffffffffffffffffff1673ffffffffffffffffffffffffffffffffffffffff168152602001908152602001600020819055506119696003600084815260200190815260200160002060020160008c73ffffffffffffffffffffffffffffffffffffffff1673ffffffffffffffffffffffffffffffffffffffff1681526020019081526020016000205482613aa590919063ffffffff16565b6003600084815260200190815260200160002060020160008c73ffffffffffffffffffffffffffffffffffffffff1673ffffffffffffffffffffffffffffffffffffffff16815260200190815260200160002081905550818a73ffffffffffffffffffffffffffffffffffffffff168c73ffffffffffffffffffffffffffffffffffffffff167f1b3d7edb2e9c0b0e7c525b20aaaef0f5940d2ed71663c7d39266ecafac7288593385604051808373ffffffffffffffffffffffffffffffffffffffff1673ffffffffffffffffffffffffffffffffffffffff1681526020018281526020019250505060405180910390a482600101925061180d565b611df9565b600092505b88889050831015611df8578888848181101515611a8857fe5b9050602002013591508686848181101515611a9f57fe5b905060200201359050611b48816002600085815260200190815260200160002060008e73ffffffffffffffffffffffffffffffffffffffff1673ffffffffffffffffffffffffffffffffffffffff16815260200190815260200160002060003373ffffffffffffffffffffffffffffffffffffffff1673ffffffffffffffffffffffffffffffffffffffff16815260200190815260200160002054613a8c90919063ffffffff16565b6002600084815260200190815260200160002060008d73ffffffffffffffffffffffffffffffffffffffff1673ffffffffffffffffffffffffffffffffffffffff16815260200190815260200160002060003373ffffffffffffffffffffffffffffffffffffffff1673ffffffffffffffffffffffffffffffffffffffff16815260200190815260200160002081905550611c3f816003600085815260200190815260200160002060020160008e73ffffffffffffffffffffffffffffffffffffffff1673ffffffffffffffffffffffffffffffffffffffff16815260200190815260200160002054613a8c90919063ffffffff16565b6003600084815260200190815260200160002060020160008d73ffffffffffffffffffffffffffffffffffffffff1673ffffffffffffffffffffffffffffffffffffffff16815260200190815260200160002081905550611cfc6003600084815260200190815260200160002060020160008c73ffffffffffffffffffffffffffffffffffffffff1673ffffffffffffffffffffffffffffffffffffffff1681526020019081526020016000205482613aa590919063ffffffff16565b6003600084815260200190815260200160002060020160008c73ffffffffffffffffffffffffffffffffffffffff1673ffffffffffffffffffffffffffffffffffffffff16815260200190815260200160002081905550818a73ffffffffffffffffffffffffffffffffffffffff168c73ffffffffffffffffffffffffffffffffffffffff167f1b3d7edb2e9c0b0e7c525b20aaaef0f5940d2ed71663c7d39266ecafac7288593385604051808373ffffffffffffffffffffffffffffffffffffffff1673ffffffffffffffffffffffffffffffffffffffff1681526020018281526020019250505060405180910390a4826001019250611a6f565b5b5050505050505050505050565b60006003600084815260200190815260200160002060020160008373ffffffffffffffffffffffffffffffffffffffff1673ffffffffffffffffffffffffffffffffffffffff16815260200190815260200160002054905092915050565b60008060008092505b88889050831015611ef557611edf338b8b8b878181101515611e8b57fe5b905060200201358a8a888181101515611ea057fe5b9050602002013589898080601f016020809104026020016040519081016040528093929190818152602001838380828437820191505050505050613ac1565b1515611eea57600080fd5b826001019250611e6d565b600092505b88889050831015612152578888848181101515611f1357fe5b9050602002013591508686848181101515611f2a57fe5b905060200201359050611f99816003600085815260200190815260200160002060020160003373ffffffffffffffffffffffffffffffffffffffff1673ffffffffffffffffffffffffffffffffffffffff16815260200190815260200160002054613a8c90919063ffffffff16565b6003600084815260200190815260200160002060020160003373ffffffffffffffffffffffffffffffffffffffff1673ffffffffffffffffffffffffffffffffffffffff168152602001908152602001600020819055506120566003600084815260200190815260200160002060020160008c73ffffffffffffffffffffffffffffffffffffffff1673ffffffffffffffffffffffffffffffffffffffff1681526020019081526020016000205482613aa590919063ffffffff16565b6003600084815260200190815260200160002060020160008c73ffffffffffffffffffffffffffffffffffffffff1673ffffffffffffffffffffffffffffffffffffffff16815260200190815260200160002081905550818a73ffffffffffffffffffffffffffffffffffffffff163373ffffffffffffffffffffffffffffffffffffffff167f1b3d7edb2e9c0b0e7c525b20aaaef0f5940d2ed71663c7d39266ecafac7288593385604051808373ffffffffffffffffffffffffffffffffffffffff1673ffffffffffffffffffffffffffffffffffffffff1681526020018281526020019250505060405180910390a4826001019250611efa565b50505050505050505050565b600080600083815260200190815260200160002060009054906101000a900460ff169050919050565b6060600160008381526020019081526020016000208054600181600116156101000203166002900480601f0160208091040260200160405190810160405280929190818152602001828054600181600116156101000203166002900480156122305780601f1061220557610100808354040283529160200191612230565b820191906000526020600020905b81548152906001019060200180831161221357829003601f168201915b50505050509050919050565b60046020528060005260406000206000915090508054600181600116156101000203166002900480601f0160208091040260200160405190810160405280929190818152602001828054600181600116156101000203166002900480156122e45780601f106122b9576101008083540402835291602001916122e4565b820191906000526020600020905b8154815290600101906020018083116122c757829003601f168201915b505050505081565b60008114806123875750816002600085815260200190815260200160002060003373ffffffffffffffffffffffffffffffffffffffff1673ffffffffffffffffffffffffffffffffffffffff16815260200190815260200160002060008673ffffffffffffffffffffffffffffffffffffffff1673ffffffffffffffffffffffffffffffffffffffff16815260200190815260200160002054145b151561239257600080fd5b806002600085815260200190815260200160002060003373ffffffffffffffffffffffffffffffffffffffff1673ffffffffffffffffffffffffffffffffffffffff16815260200190815260200160002060008673ffffffffffffffffffffffffffffffffffffffff1673ffffffffffffffffffffffffffffffffffffffff16815260200190815260200160002081905550828473ffffffffffffffffffffffffffffffffffffffff163373ffffffffffffffffffffffffffffffffffffffff167f3a9c85c6b31f7a9d7fe1478f53e1be42e85db97ca30d1789cfef9196dbc472c98585604051808381526020018281526020019250505060405180910390a450505050565b600080600080600093505b898990508410156127285787878581811015156124bc57fe5b90506020020135925085858581811015156124d357fe5b90506020020135915089898581811015156124ea57fe5b9050602002013573ffffffffffffffffffffffffffffffffffffffff16905061256f826003600086815260200190815260200160002060020160003373ffffffffffffffffffffffffffffffffffffffff1673ffffffffffffffffffffffffffffffffffffffff16815260200190815260200160002054613a8c90919063ffffffff16565b6003600085815260200190815260200160002060020160003373ffffffffffffffffffffffffffffffffffffffff1673ffffffffffffffffffffffffffffffffffffffff1681526020019081526020016000208190555061262c6003600085815260200190815260200160002060020160008373ffffffffffffffffffffffffffffffffffffffff1673ffffffffffffffffffffffffffffffffffffffff1681526020019081526020016000205483613aa590919063ffffffff16565b6003600085815260200190815260200160002060020160008373ffffffffffffffffffffffffffffffffffffffff1673ffffffffffffffffffffffffffffffffffffffff16815260200190815260200160002081905550828173ffffffffffffffffffffffffffffffffffffffff163373ffffffffffffffffffffffffffffffffffffffff167f1b3d7edb2e9c0b0e7c525b20aaaef0f5940d2ed71663c7d39266ecafac7288593386604051808373ffffffffffffffffffffffffffffffffffffffff1673ffffffffffffffffffffffffffffffffffffffff1681526020018281526020019250505060405180910390a48360010193506124a3565b50505050505050505050565b6127733386868686868080601f016020809104026020016040519081016040528093929190818152602001838380828437820191505050505050613ac1565b151561277e57600080fd5b6127e4836003600087815260200190815260200160002060020160003373ffffffffffffffffffffffffffffffffffffffff1673ffffffffffffffffffffffffffffffffffffffff16815260200190815260200160002054613a8c90919063ffffffff16565b6003600086815260200190815260200160002060020160003373ffffffffffffffffffffffffffffffffffffffff1673ffffffffffffffffffffffffffffffffffffffff168152602001908152602001600020819055506128a16003600086815260200190815260200160002060020160008773ffffffffffffffffffffffffffffffffffffffff1673ffffffffffffffffffffffffffffffffffffffff1681526020019081526020016000205484613aa590919063ffffffff16565b6003600086815260200190815260200160002060020160008773ffffffffffffffffffffffffffffffffffffffff1673ffffffffffffffffffffffffffffffffffffffff16815260200190815260200160002081905550838573ffffffffffffffffffffffffffffffffffffffff163373ffffffffffffffffffffffffffffffffffffffff167f1b3d7edb2e9c0b0e7c525b20aaaef0f5940d2ed71663c7d39266ecafac7288593387604051808373ffffffffffffffffffffffffffffffffffffffff1673ffffffffffffffffffffffffffffffffffffffff1681526020018281526020019250505060405180910390a45050505050565b600060036000838152602001908152602001600020600101549050919050565b6003602052806000526040600020600091509050806000018054600181600116156101000203166002900480601f016020809104026020016040519081016040528092919081815260200182805460018160011615610100020316600290048015612a655780601f10612a3a57610100808354040283529160200191612a65565b820191906000526020600020905b815481529060010190602001808311612a4857829003601f168201915b5050505050908060010154905082565b60016020528060005260406000206000915090508054600181600116156101000203166002900480601f016020809104026020016040519081016040528092919081815260200182805460018160011615610100020316600290048015612b1d5780601f10612af257610100808354040283529160200191612b1d565b820191906000526020600020905b815481529060010190602001808311612b0057829003601f168201915b505050505081565b60008060008090505b88889050811015612d40578888828181101515612b4757fe5b9050602002013592508484828181101515612b5e57fe5b9050602002013591506000821480612c1657508686828181101515612b7f57fe5b905060200201356002600085815260200190815260200160002060003373ffffffffffffffffffffffffffffffffffffffff1673ffffffffffffffffffffffffffffffffffffffff16815260200190815260200160002060008c73ffffffffffffffffffffffffffffffffffffffff1673ffffffffffffffffffffffffffffffffffffffff16815260200190815260200160002054145b1515612c2157600080fd5b816002600085815260200190815260200160002060003373ffffffffffffffffffffffffffffffffffffffff1673ffffffffffffffffffffffffffffffffffffffff16815260200190815260200160002060008c73ffffffffffffffffffffffffffffffffffffffff1673ffffffffffffffffffffffffffffffffffffffff16815260200190815260200160002081905550828a73ffffffffffffffffffffffffffffffffffffffff163373ffffffffffffffffffffffffffffffffffffffff167f3a9c85c6b31f7a9d7fe1478f53e1be42e85db97ca30d1789cfef9196dbc472c98a8a868181101515612d1157fe5b9050602002013586604051808381526020018281526020019250505060405180910390a4806001019050612b2e565b50505050505050505050565b600080600080600093505b89899050841015612e0957612df3338d8d878181101515612d7457fe5b9050602002013573ffffffffffffffffffffffffffffffffffffffff168c8c888181101515612d9f57fe5b905060200201358b8b898181101515612db457fe5b905060200201358a8a8080601f016020809104026020016040519081016040528093929190818152602001838380828437820191505050505050613ac1565b1515612dfe57600080fd5b836001019350612d57565b600093505b8b8b9050841015613093578989858181101515612e2757fe5b9050602002013592508787858181101515612e3e57fe5b9050602002013591508b8b858181101515612e5557fe5b9050602002013573ffffffffffffffffffffffffffffffffffffffff169050612eda826003600086815260200190815260200160002060020160003373ffffffffffffffffffffffffffffffffffffffff1673ffffffffffffffffffffffffffffffffffffffff16815260200190815260200160002054613a8c90919063ffffffff16565b6003600085815260200190815260200160002060020160003373ffffffffffffffffffffffffffffffffffffffff1673ffffffffffffffffffffffffffffffffffffffff16815260200190815260200160002081905550612f976003600085815260200190815260200160002060020160008373ffffffffffffffffffffffffffffffffffffffff1673ffffffffffffffffffffffffffffffffffffffff1681526020019081526020016000205483613aa590919063ffffffff16565b6003600085815260200190815260200160002060020160008373ffffffffffffffffffffffffffffffffffffffff1673ffffffffffffffffffffffffffffffffffffffff16815260200190815260200160002081905550828173ffffffffffffffffffffffffffffffffffffffff163373ffffffffffffffffffffffffffffffffffffffff167f1b3d7edb2e9c0b0e7c525b20aaaef0f5940d2ed71663c7d39266ecafac7288593386604051808373ffffffffffffffffffffffffffffffffffffffff1673ffffffffffffffffffffffffffffffffffffffff1681526020018281526020019250505060405180910390a4836001019350612e0e565b505050505050505050505050565b60008060008090505b868690508110156133025786868281811015156130c357fe5b90506020020135925084848281811015156130da57fe5b905060200201359150613149826003600086815260200190815260200160002060020160003373ffffffffffffffffffffffffffffffffffffffff1673ffffffffffffffffffffffffffffffffffffffff16815260200190815260200160002054613a8c90919063ffffffff16565b6003600085815260200190815260200160002060020160003373ffffffffffffffffffffffffffffffffffffffff1673ffffffffffffffffffffffffffffffffffffffff168152602001908152602001600020819055506132066003600085815260200190815260200160002060020160008a73ffffffffffffffffffffffffffffffffffffffff1673ffffffffffffffffffffffffffffffffffffffff1681526020019081526020016000205483613aa590919063ffffffff16565b6003600085815260200190815260200160002060020160008a73ffffffffffffffffffffffffffffffffffffffff1673ffffffffffffffffffffffffffffffffffffffff16815260200190815260200160002081905550828873ffffffffffffffffffffffffffffffffffffffff163373ffffffffffffffffffffffffffffffffffffffff167f1b3d7edb2e9c0b0e7c525b20aaaef0f5940d2ed71663c7d39266ecafac7288593386604051808373ffffffffffffffffffffffffffffffffffffffff1673ffffffffffffffffffffffffffffffffffffffff1681526020018281526020019250505060405180910390a48060010190506130aa565b5050505050505050565b600260205282600052604060002060205281600052604060002060205280600052604060002060009250925050505481565b61337d8686868686868080601f016020809104026020016040519081016040528093929190818152602001838380828437820191505050505050613ac1565b151561338857600080fd5b3373ffffffffffffffffffffffffffffffffffffffff168673ffffffffffffffffffffffffffffffffffffffff161415156134ef5761345d836002600087815260200190815260200160002060008973ffffffffffffffffffffffffffffffffffffffff1673ffffffffffffffffffffffffffffffffffffffff16815260200190815260200160002060003373ffffffffffffffffffffffffffffffffffffffff1673ffffffffffffffffffffffffffffffffffffffff16815260200190815260200160002054613a8c90919063ffffffff16565b6002600086815260200190815260200160002060008873ffffffffffffffffffffffffffffffffffffffff1673ffffffffffffffffffffffffffffffffffffffff16815260200190815260200160002060003373ffffffffffffffffffffffffffffffffffffffff1673ffffffffffffffffffffffffffffffffffffffff168152602001908152602001600020819055505b613555836003600087815260200190815260200160002060020160008973ffffffffffffffffffffffffffffffffffffffff1673ffffffffffffffffffffffffffffffffffffffff16815260200190815260200160002054613a8c90919063ffffffff16565b6003600086815260200190815260200160002060020160008873ffffffffffffffffffffffffffffffffffffffff1673ffffffffffffffffffffffffffffffffffffffff168152602001908152602001600020819055506136126003600086815260200190815260200160002060020160008773ffffffffffffffffffffffffffffffffffffffff1673ffffffffffffffffffffffffffffffffffffffff1681526020019081526020016000205484613aa590919063ffffffff16565b6003600086815260200190815260200160002060020160008773ffffffffffffffffffffffffffffffffffffffff1673ffffffffffffffffffffffffffffffffffffffff16815260200190815260200160002081905550838573ffffffffffffffffffffffffffffffffffffffff168773ffffffffffffffffffffffffffffffffffffffff167f1b3d7edb2e9c0b0e7c525b20aaaef0f5940d2ed71663c7d39266ecafac7288593387604051808373ffffffffffffffffffffffffffffffffffffffff1673ffffffffffffffffffffffffffffffffffffffff1681526020018281526020019250505060405180910390a4505050505050565b3373ffffffffffffffffffffffffffffffffffffffff168473ffffffffffffffffffffffffffffffffffffffff16141515613872576137e0816002600085815260200190815260200160002060008773ffffffffffffffffffffffffffffffffffffffff1673ffffffffffffffffffffffffffffffffffffffff16815260200190815260200160002060003373ffffffffffffffffffffffffffffffffffffffff1673ffffffffffffffffffffffffffffffffffffffff16815260200190815260200160002054613a8c90919063ffffffff16565b6002600084815260200190815260200160002060008673ffffffffffffffffffffffffffffffffffffffff1673ffffffffffffffffffffffffffffffffffffffff16815260200190815260200160002060003373ffffffffffffffffffffffffffffffffffffffff1673ffffffffffffffffffffffffffffffffffffffff168152602001908152602001600020819055505b6138d8816003600085815260200190815260200160002060020160008773ffffffffffffffffffffffffffffffffffffffff1673ffffffffffffffffffffffffffffffffffffffff16815260200190815260200160002054613a8c90919063ffffffff16565b6003600084815260200190815260200160002060020160008673ffffffffffffffffffffffffffffffffffffffff1673ffffffffffffffffffffffffffffffffffffffff168152602001908152602001600020819055506139956003600084815260200190815260200160002060020160008573ffffffffffffffffffffffffffffffffffffffff1673ffffffffffffffffffffffffffffffffffffffff1681526020019081526020016000205482613aa590919063ffffffff16565b6003600084815260200190815260200160002060020160008573ffffffffffffffffffffffffffffffffffffffff1673ffffffffffffffffffffffffffffffffffffffff16815260200190815260200160002081905550818373ffffffffffffffffffffffffffffffffffffffff168573ffffffffffffffffffffffffffffffffffffffff167f1b3d7edb2e9c0b0e7c525b20aaaef0f5940d2ed71663c7d39266ecafac7288593385604051808373ffffffffffffffffffffffffffffffffffffffff1673ffffffffffffffffffffffffffffffffffffffff1681526020018281526020019250505060405180910390a450505050565b6000828211151515613a9a57fe5b818303905092915050565b60008183019050828110151515613ab857fe5b80905092915050565b600080613ae38673ffffffffffffffffffffffffffffffffffffffff16613cec565b1515613af25760019150613ce2565b8573ffffffffffffffffffffffffffffffffffffffff1663f23a6e6133898888886040518663ffffffff167c0100000000000000000000000000000000000000000000000000000000028152600401808673ffffffffffffffffffffffffffffffffffffffff1673ffffffffffffffffffffffffffffffffffffffff1681526020018573ffffffffffffffffffffffffffffffffffffffff1673ffffffffffffffffffffffffffffffffffffffff16815260200184815260200183815260200180602001828103825283818151815260200191508051906020019080838360005b83811015613bee578082015181840152602081019050613bd3565b50505050905090810190601f168015613c1b5780820380516001836020036101000a031916815260200191505b509650505050505050602060405180830381600087803b158015613c3e57600080fd5b505af1158015613c52573d6000803e3d6000fd5b505050506040513d6020811015613c6857600080fd5b8101908080519060200190929190505050905063f23a6e617c0100000000000000000000000000000000000000000000000000000000027bffffffffffffffffffffffffffffffffffffffffffffffffffffffff1916817bffffffffffffffffffffffffffffffffffffffffffffffffffffffff19161491505b5095945050505050565b600080823b9050600081119150509190505600a165627a7a72305820a29c0465d1a6a28bf4ed172f82d0647f1eff61ef502661c03d3b153f1787e9bc0029",
  "source": "pragma solidity ^0.4.17;\n\nimport \"./ERC1155SafeMath.sol\";\nimport \"./Address.sol\";\nimport \"./IERC1155.sol\";\n\ncontract ERC1155 is IERC1155, IERC1155Extended, IERC1155BatchTransfer, IERC1155BatchTransferExtended {\n    using ERC1155SafeMath for uint256;\n    using Address for address;\n\n    // Variables\n    struct Items {\n        string name;\n        uint256 totalSupply;\n        mapping (address => uint256) balances;\n    }\n    mapping (uint256 => uint8) public decimals;\n    mapping (uint256 => string) public symbols;\n    mapping (uint256 => mapping(address => mapping(address => uint256))) public allowances;\n    mapping (uint256 => Items) public items;\n    mapping (uint256 => string) public metadataURIs;\n\n    bytes4 constant private ERC1155_RECEIVED = 0xf23a6e61;\n\n/////////////////////////////////////////// IERC1155 //////////////////////////////////////////////\n\n    // Events\n    event Approval(address indexed _owner, address indexed _spender, uint256 indexed _id, uint256 _oldValue, uint256 _value);\n    event Transfer(address _spender, address indexed _from, address indexed _to, uint256 indexed _id, uint256 _value);\n\n    function transferFrom(address _from, address _to, uint256 _id, uint256 _value) external {\n        if(_from != msg.sender) {\n            //require(allowances[_id][_from][msg.sender] >= _value);\n            allowances[_id][_from][msg.sender] = allowances[_id][_from][msg.sender].sub(_value);\n        }\n\n        items[_id].balances[_from] = items[_id].balances[_from].sub(_value);\n        items[_id].balances[_to] = _value.add(items[_id].balances[_to]);\n\n        Transfer(msg.sender, _from, _to, _id, _value);\n    }\n\n    function safeTransferFrom(address _from, address _to, uint256 _id, uint256 _value, bytes _data) external {\n        //this.transferFrom(_from, _to, _id, _value);\n\n        // solium-disable-next-line arg-overflow\n        require(_checkAndCallSafeTransfer(_from, _to, _id, _value, _data));\n        if(_from != msg.sender) {\n            //require(allowances[_id][_from][msg.sender] >= _value);\n            allowances[_id][_from][msg.sender] = allowances[_id][_from][msg.sender].sub(_value);\n        }\n\n        items[_id].balances[_from] = items[_id].balances[_from].sub(_value);\n        items[_id].balances[_to] = _value.add(items[_id].balances[_to]);\n\n        Transfer(msg.sender, _from, _to, _id, _value);\n    }\n\n    function approve(address _spender, uint256 _id, uint256 _currentValue, uint256 _value) external {\n        // if the allowance isn't 0, it can only be updated to 0 to prevent an allowance change immediately after withdrawal\n        require(_value == 0 || allowances[_id][msg.sender][_spender] == _currentValue);\n        allowances[_id][msg.sender][_spender] = _value;\n        Approval(msg.sender, _spender, _id, _currentValue, _value);\n    }\n\n    function balanceOf(uint256 _id, address _owner) external view returns (uint256) {\n        return items[_id].balances[_owner];\n    }\n\n    function allowance(uint256 _id, address _owner, address _spender) external view returns (uint256) {\n        return allowances[_id][_owner][_spender];\n    }\n\n/////////////////////////////////////// IERC1155Extended //////////////////////////////////////////\n\n    function transfer(address _to, uint256 _id, uint256 _value) external {\n        // Not needed. SafeMath will do the same check on .sub(_value)\n        //require(_value <= items[_id].balances[msg.sender]);\n        items[_id].balances[msg.sender] = items[_id].balances[msg.sender].sub(_value);\n        items[_id].balances[_to] = _value.add(items[_id].balances[_to]);\n        Transfer(msg.sender, msg.sender, _to, _id, _value);\n    }\n\n    function safeTransfer(address _to, uint256 _id, uint256 _value, bytes _data) external {\n        //this.transfer(_to, _id, _value);\n                \n        // solium-disable-next-line arg-overflow\n        require(_checkAndCallSafeTransfer(msg.sender, _to, _id, _value, _data));\n        items[_id].balances[msg.sender] = items[_id].balances[msg.sender].sub(_value);\n        items[_id].balances[_to] = _value.add(items[_id].balances[_to]);\n        Transfer(msg.sender, msg.sender, _to, _id, _value);\n    }\n\n//////////////////////////////////// IERC1155BatchTransfer ////////////////////////////////////////\n\n    function batchTransferFrom(address _from, address _to, uint256[] _ids, uint256[] _values) external {\n        uint256 _id;\n        uint256 _value;\n\n        if(_from == msg.sender) {\n            for (uint256 i = 0; i < _ids.length; ++i) {\n                _id = _ids[i];\n                _value = _values[i];\n\n                items[_id].balances[_from] = items[_id].balances[_from].sub(_value);\n                items[_id].balances[_to] = _value.add(items[_id].balances[_to]);\n\n                Transfer(msg.sender, _from, _to, _id, _value);\n            }\n        }\n        else {\n            for (i = 0; i < _ids.length; ++i) {\n                _id = _ids[i];\n                _value = _values[i];\n\n                allowances[_id][_from][msg.sender] = allowances[_id][_from][msg.sender].sub(_value);\n\n                items[_id].balances[_from] = items[_id].balances[_from].sub(_value);\n                items[_id].balances[_to] = _value.add(items[_id].balances[_to]);\n\n                Transfer(msg.sender, _from, _to, _id, _value);\n            }\n        }\n    }\n\n    function safeBatchTransferFrom(address _from, address _to, uint256[] _ids, uint256[] _values, bytes _data) external {\n        //this.batchTransferFrom(_from, _to, _ids, _values);\n\n        for (uint256 i = 0; i < _ids.length; ++i) {\n            // solium-disable-next-line arg-overflow\n            require(_checkAndCallSafeTransfer(_from, _to, _ids[i], _values[i], _data));\n        }\n\n        uint256 _id;\n        uint256 _value;\n\n        if(_from == msg.sender) {\n            for (i = 0; i < _ids.length; ++i) {\n                _id = _ids[i];\n                _value = _values[i];\n\n                items[_id].balances[_from] = items[_id].balances[_from].sub(_value);\n                items[_id].balances[_to] = _value.add(items[_id].balances[_to]);\n\n                Transfer(msg.sender, _from, _to, _id, _value);\n            }\n        }\n        else {\n            for (i = 0; i < _ids.length; ++i) {\n                _id = _ids[i];\n                _value = _values[i];\n\n                allowances[_id][_from][msg.sender] = allowances[_id][_from][msg.sender].sub(_value);\n\n                items[_id].balances[_from] = items[_id].balances[_from].sub(_value);\n                items[_id].balances[_to] = _value.add(items[_id].balances[_to]);\n\n                Transfer(msg.sender, _from, _to, _id, _value);\n            }\n        }\n    }\n\n    function batchApprove(address _spender, uint256[] _ids,  uint256[] _currentValues, uint256[] _values) external {\n        uint256 _id;\n        uint256 _value;\n\n        for (uint256 i = 0; i < _ids.length; ++i) {\n            _id = _ids[i];\n            _value = _values[i];\n\n            require(_value == 0 || allowances[_id][msg.sender][_spender] == _currentValues[i]);\n            allowances[_id][msg.sender][_spender] = _value;\n            Approval(msg.sender, _spender, _id, _currentValues[i], _value);\n        }\n    }\n\n//////////////////////////////// IERC1155BatchTransferExtended ////////////////////////////////////\n\n    function batchTransfer(address _to, uint256[] _ids, uint256[] _values) external {\n        uint256 _id;\n        uint256 _value;\n\n        for (uint256 i = 0; i < _ids.length; ++i) {\n            _id = _ids[i];\n            _value = _values[i];\n\n            items[_id].balances[msg.sender] = items[_id].balances[msg.sender].sub(_value);\n            items[_id].balances[_to] = _value.add(items[_id].balances[_to]);\n\n            Transfer(msg.sender, msg.sender, _to, _id, _value);\n        }\n    }\n\n    function safeBatchTransfer(address _to, uint256[] _ids, uint256[] _values, bytes _data) external {\n        //this.batchTransfer(_to, _ids, _values);\n\n        for (uint256 i = 0; i < _ids.length; ++i) {\n            // solium-disable-next-line arg-overflow\n            require(_checkAndCallSafeTransfer(msg.sender, _to, _ids[i], _values[i], _data));\n        }\n\n        uint256 _id;\n        uint256 _value;\n\n        for (i = 0; i < _ids.length; ++i) {\n            _id = _ids[i];\n            _value = _values[i];\n\n            items[_id].balances[msg.sender] = items[_id].balances[msg.sender].sub(_value);\n            items[_id].balances[_to] = _value.add(items[_id].balances[_to]);\n\n            Transfer(msg.sender, msg.sender, _to, _id, _value);\n        }\n    }\n\n//////////////////////////////// IERC1155BatchTransferExtended ////////////////////////////////////\n\n    // Optional meta data view Functions\n    // consider multi-lingual support for name?\n    function name(uint256 _id) external view returns (string) {\n        return items[_id].name;\n    }\n\n    function symbol(uint256 _id) external view returns (string) {\n        return symbols[_id];\n    }\n\n    function decimals(uint256 _id) external view returns (uint8) {\n        return decimals[_id];\n    }\n\n    function totalSupply(uint256 _id) external view returns (uint256) {\n        return items[_id].totalSupply;\n    }\n\n    function uri(uint256 _id) external view returns (string) {\n        return metadataURIs[_id];\n    }\n\n////////////////////////////////////////// OPTIONALS //////////////////////////////////////////////\n\n\n    function multicastTransfer(address[] _to, uint256[] _ids, uint256[] _values) external {\n        for (uint256 i = 0; i < _to.length; ++i) {\n            uint256 _id = _ids[i];\n            uint256 _value = _values[i];\n            address _dst = _to[i];\n\n            items[_id].balances[msg.sender] = items[_id].balances[msg.sender].sub(_value);\n            items[_id].balances[_dst] = _value.add(items[_id].balances[_dst]);\n\n            Transfer(msg.sender, msg.sender, _dst, _id, _value);\n        }\n    }\n\n    function safeMulticastTransfer(address[] _to, uint256[] _ids, uint256[] _values, bytes _data) external {\n        //this.multicastTransfer(_to, _ids, _values);\n\n        for (uint256 i = 0; i < _ids.length; ++i) {\n            // solium-disable-next-line arg-overflow\n            require(_checkAndCallSafeTransfer(msg.sender, _to[i], _ids[i], _values[i], _data));\n        }\n\n        for (i = 0; i < _to.length; ++i) {\n            uint256 _id = _ids[i];\n            uint256 _value = _values[i];\n            address _dst = _to[i];\n\n            items[_id].balances[msg.sender] = items[_id].balances[msg.sender].sub(_value);\n            items[_id].balances[_dst] = _value.add(items[_id].balances[_dst]);\n\n            Transfer(msg.sender, msg.sender, _dst, _id, _value);\n        }\n    }\n\n////////////////////////////////////////// INTERNAL //////////////////////////////////////////////\n\n    function _checkAndCallSafeTransfer(\n        address _from,\n        address _to,\n        uint256 _id,\n        uint256 _value,\n        bytes _data\n    )\n    internal\n    returns (bool)\n    {\n        if (!_to.isContract()) {\n            return true;\n        }\n        bytes4 retval = IERC1155TokenReceiver(_to).onERC1155Received(\n            msg.sender, _from, _id, _value, _data);\n        return (retval == ERC1155_RECEIVED);\n    }\n}",
  "sourcePath": "/Users/najienka/Desktop/populous-app/populous-exchangecontracts/contracts/ERC1155.sol",
  "compiler": {
    "name": "solc",
    "version": "0.4.25+commit.59dbf8f1.Emscripten.clang"
  },
  "schemaVersion": "2.0.2",
  "updatedAt": "2019-03-26T14:16:00.662Z"
}