{
  "contractName": "Exchange",
  "abi": [
    {
      "constant": false,
      "inputs": [
        {
          "name": "_accessManager",
          "type": "address"
        }
      ],
      "name": "updateAccessManager",
      "outputs": [],
      "payable": false,
      "stateMutability": "nonpayable",
      "type": "function"
    },
    {
      "constant": true,
      "inputs": [
        {
          "name": "",
          "type": "bytes8"
        }
      ],
      "name": "tokenDetails",
      "outputs": [
        {
          "name": "_token",
          "type": "address"
        },
        {
          "name": "_precision",
          "type": "uint256"
        }
      ],
      "payable": false,
      "stateMutability": "view",
      "type": "function"
    },
    {
      "constant": true,
      "inputs": [],
      "name": "AM",
      "outputs": [
        {
          "name": "",
          "type": "address"
        }
      ],
      "payable": false,
      "stateMutability": "view",
      "type": "function"
    },
    {
      "inputs": [
        {
          "name": "_accessManager",
          "type": "address"
        }
      ],
      "payable": false,
      "stateMutability": "nonpayable",
      "type": "constructor"
    },
    {
      "anonymous": false,
      "inputs": [
        {
          "indexed": false,
          "name": "_blockchainActionId",
          "type": "bytes32"
        },
        {
          "indexed": false,
          "name": "ether_address",
          "type": "address"
        },
        {
          "indexed": false,
          "name": "amount",
          "type": "uint256"
        },
        {
          "indexed": false,
          "name": "accountId",
          "type": "bytes32"
        },
        {
          "indexed": false,
          "name": "depositContract",
          "type": "address"
        },
        {
          "indexed": false,
          "name": "to",
          "type": "address"
        },
        {
          "indexed": false,
          "name": "pptFee",
          "type": "uint256"
        }
      ],
      "name": "EventWithdrawEther",
      "type": "event"
    },
    {
      "anonymous": false,
      "inputs": [
        {
          "indexed": false,
          "name": "_blockchainActionId",
          "type": "bytes32"
        },
        {
          "indexed": false,
          "name": "erc721_tokenAddress",
          "type": "address"
        },
        {
          "indexed": false,
          "name": "token_id",
          "type": "uint256"
        },
        {
          "indexed": false,
          "name": "accountId",
          "type": "bytes32"
        },
        {
          "indexed": false,
          "name": "depositContract",
          "type": "address"
        },
        {
          "indexed": false,
          "name": "to",
          "type": "address"
        },
        {
          "indexed": false,
          "name": "pptFee",
          "type": "uint256"
        }
      ],
      "name": "EventWithdrawERC721",
      "type": "event"
    },
    {
      "anonymous": false,
      "inputs": [
        {
          "indexed": false,
          "name": "blockchainActionId",
          "type": "bytes32"
        },
        {
          "indexed": false,
          "name": "pptAddress",
          "type": "address"
        },
        {
          "indexed": false,
          "name": "amount",
          "type": "uint256"
        },
        {
          "indexed": false,
          "name": "accountId",
          "type": "bytes32"
        },
        {
          "indexed": false,
          "name": "depositContract",
          "type": "address"
        },
        {
          "indexed": false,
          "name": "to",
          "type": "address"
        }
      ],
      "name": "EventWithdrawPPT",
      "type": "event"
    },
    {
      "anonymous": false,
      "inputs": [
        {
          "indexed": false,
          "name": "blockchainActionId",
          "type": "bytes32"
        },
        {
          "indexed": false,
          "name": "clientId",
          "type": "bytes32"
        },
        {
          "indexed": false,
          "name": "depositContractAddress",
          "type": "address"
        },
        {
          "indexed": false,
          "name": "version",
          "type": "uint256"
        }
      ],
      "name": "EventNewDepositContract",
      "type": "event"
    },
    {
      "anonymous": false,
      "inputs": [
        {
          "indexed": false,
          "name": "_blockchainActionId",
          "type": "bytes32"
        },
        {
          "indexed": false,
          "name": "erc1155Token",
          "type": "address"
        },
        {
          "indexed": false,
          "name": "token_id",
          "type": "uint256"
        },
        {
          "indexed": false,
          "name": "amount",
          "type": "uint256"
        },
        {
          "indexed": false,
          "name": "accountId",
          "type": "bytes32"
        },
        {
          "indexed": false,
          "name": "depositContract",
          "type": "address"
        },
        {
          "indexed": false,
          "name": "to",
          "type": "address"
        },
        {
          "indexed": false,
          "name": "pptFee",
          "type": "uint256"
        }
      ],
      "name": "EventWithdrawXAUp",
      "type": "event"
    },
    {
      "constant": false,
      "inputs": [
        {
          "name": "_dataManager",
          "type": "address"
        },
        {
          "name": "_blockchainActionId",
          "type": "bytes32"
        },
        {
          "name": "clientId",
          "type": "bytes32"
        }
      ],
      "name": "createAddress",
      "outputs": [],
      "payable": false,
      "stateMutability": "nonpayable",
      "type": "function"
    },
    {
      "constant": false,
      "inputs": [
        {
          "name": "_dataManager",
          "type": "address"
        },
        {
          "name": "_blockchainActionId",
          "type": "bytes32"
        },
        {
          "name": "pptAddress",
          "type": "address"
        },
        {
          "name": "accountId",
          "type": "bytes32"
        },
        {
          "name": "to",
          "type": "address"
        },
        {
          "name": "amount",
          "type": "uint256"
        },
        {
          "name": "inCollateral",
          "type": "uint256"
        },
        {
          "name": "pptFee",
          "type": "uint256"
        },
        {
          "name": "adminExternalWallet",
          "type": "address"
        }
      ],
      "name": "withdrawERC20",
      "outputs": [],
      "payable": false,
      "stateMutability": "nonpayable",
      "type": "function"
    },
    {
      "constant": false,
      "inputs": [
        {
          "name": "_dataManager",
          "type": "address"
        },
        {
          "name": "_blockchainActionId",
          "type": "bytes32"
        },
        {
          "name": "_to",
          "type": "address"
        },
        {
          "name": "_value",
          "type": "uint256"
        },
        {
          "name": "accountId",
          "type": "bytes32"
        },
        {
          "name": "pptFee",
          "type": "uint256"
        },
        {
          "name": "adminExternalWallet",
          "type": "address"
        }
      ],
      "name": "withdrawEther",
      "outputs": [],
      "payable": false,
      "stateMutability": "nonpayable",
      "type": "function"
    },
    {
      "constant": false,
      "inputs": [
        {
          "name": "_dataManager",
          "type": "address"
        },
        {
          "name": "_blockchainActionId",
          "type": "bytes32"
        },
        {
          "name": "_to",
          "type": "address"
        },
        {
          "name": "_id",
          "type": "uint256"
        },
        {
          "name": "erc721Token",
          "type": "address"
        },
        {
          "name": "erc721TokenSymbol",
          "type": "bytes32"
        },
        {
          "name": "accountId",
          "type": "bytes32"
        },
        {
          "name": "pptFee",
          "type": "uint256"
        },
        {
          "name": "adminExternalWallet",
          "type": "address"
        }
      ],
      "name": "withdrawERC721",
      "outputs": [],
      "payable": false,
      "stateMutability": "nonpayable",
      "type": "function"
    },
    {
      "constant": false,
      "inputs": [
        {
          "name": "_dataManager",
          "type": "address"
        },
        {
          "name": "_blockchainActionId",
          "type": "bytes32"
        },
        {
          "name": "_to",
          "type": "address"
        },
        {
          "name": "_id",
          "type": "uint256"
        },
        {
          "name": "_value",
          "type": "uint256"
        },
        {
          "name": "accountId",
          "type": "bytes32"
        },
        {
          "name": "pptFee",
          "type": "uint256"
        },
        {
          "name": "adminExternalWallet",
          "type": "address"
        }
      ],
      "name": "withdrawERC1155",
      "outputs": [],
      "payable": false,
      "stateMutability": "nonpayable",
      "type": "function"
    }
  ],
  "bytecode": "0x608060405234801561001057600080fd5b506040516020806154308339810180604052810190808051906020019092919050505080806000806101000a81548173ffffffffffffffffffffffffffffffffffffffff021916908373ffffffffffffffffffffffffffffffffffffffff1602179055505073c14830e53aa344e8c14603a91229a0b925b0b262600160006250585478010000000000000000000000000000000000000000000000000277ffffffffffffffffffffffffffffffffffffffffffffffff1916815260200190815260200160002060000160006101000a81548173ffffffffffffffffffffffffffffffffffffffff021916908373ffffffffffffffffffffffffffffffffffffffff1602179055506008600160006250585478010000000000000000000000000000000000000000000000000277ffffffffffffffffffffffffffffffffffffffffffffffff191681526020019081526020016000206001018190555073a0b86991c6218b36c1d19d4a2e9eb0ce3606eb4860016000635553444378010000000000000000000000000000000000000000000000000277ffffffffffffffffffffffffffffffffffffffffffffffff1916815260200190815260200160002060000160006101000a81548173ffffffffffffffffffffffffffffffffffffffff021916908373ffffffffffffffffffffffffffffffffffffffff160217905550600660016000635553444378010000000000000000000000000000000000000000000000000277ffffffffffffffffffffffffffffffffffffffffffffffff1916815260200190815260200160002060010181905550738dd5fbce2f6a956c3022ba3663759011dd51e73e60016000635455534478010000000000000000000000000000000000000000000000000277ffffffffffffffffffffffffffffffffffffffffffffffff1916815260200190815260200160002060000160006101000a81548173ffffffffffffffffffffffffffffffffffffffff021916908373ffffffffffffffffffffffffffffffffffffffff160217905550601260016000635455534478010000000000000000000000000000000000000000000000000277ffffffffffffffffffffffffffffffffffffffffffffffff191681526020019081526020016000206001018190555073d4fa1460f537bb9085d22c7bccb5dd450ef28e3a600160006250505478010000000000000000000000000000000000000000000000000277ffffffffffffffffffffffffffffffffffffffffffffffff1916815260200190815260200160002060000160006101000a81548173ffffffffffffffffffffffffffffffffffffffff021916908373ffffffffffffffffffffffffffffffffffffffff1602179055506008600160006250505478010000000000000000000000000000000000000000000000000277ffffffffffffffffffffffffffffffffffffffffffffffff19168152602001908152602001600020600101819055507373a3b7dffe9af119621f8467d8609771ab4bc33f600160006258415578010000000000000000000000000000000000000000000000000277ffffffffffffffffffffffffffffffffffffffffffffffff1916815260200190815260200160002060000160006101000a81548173ffffffffffffffffffffffffffffffffffffffff021916908373ffffffffffffffffffffffffffffffffffffffff1602179055506000600160006258415578010000000000000000000000000000000000000000000000000277ffffffffffffffffffffffffffffffffffffffffffffffff191681526020019081526020016000206001018190555050614ed48061055c6000396000f30060806040526004361061008e576000357c0100000000000000000000000000000000000000000000000000000000900463ffffffff16806302ab72c414610093578063314ab77a146100d65780633da4138c146101b75780633e111ca714610294578063878f666b14610347578063a78caf19146103d6578063e531cb2414610435578063f7f01b4b146104f2575b600080fd5b34801561009f57600080fd5b506100d4600480360381019080803573ffffffffffffffffffffffffffffffffffffffff169060200190929190505050610549565b005b3480156100e257600080fd5b506101b5600480360381019080803573ffffffffffffffffffffffffffffffffffffffff1690602001909291908035600019169060200190929190803573ffffffffffffffffffffffffffffffffffffffff16906020019092919080359060200190929190803573ffffffffffffffffffffffffffffffffffffffff1690602001909291908035600019169060200190929190803560001916906020019092919080359060200190929190803573ffffffffffffffffffffffffffffffffffffffff169060200190929190505050610695565b005b3480156101c357600080fd5b50610292600480360381019080803573ffffffffffffffffffffffffffffffffffffffff1690602001909291908035600019169060200190929190803573ffffffffffffffffffffffffffffffffffffffff1690602001909291908035600019169060200190929190803573ffffffffffffffffffffffffffffffffffffffff169060200190929190803590602001909291908035906020019092919080359060200190929190803573ffffffffffffffffffffffffffffffffffffffff169060200190929190505050610f74565b005b3480156102a057600080fd5b50610345600480360381019080803573ffffffffffffffffffffffffffffffffffffffff1690602001909291908035600019169060200190929190803573ffffffffffffffffffffffffffffffffffffffff16906020019092919080359060200190929190803560001916906020019092919080359060200190929190803573ffffffffffffffffffffffffffffffffffffffff169060200190929190505050611bad565b005b34801561035357600080fd5b5061038d600480360381019080803577ffffffffffffffffffffffffffffffffffffffffffffffff191690602001909291905050506123d1565b604051808373ffffffffffffffffffffffffffffffffffffffff1673ffffffffffffffffffffffffffffffffffffffff1681526020018281526020019250505060405180910390f35b3480156103e257600080fd5b50610433600480360381019080803573ffffffffffffffffffffffffffffffffffffffff16906020019092919080356000191690602001909291908035600019169060200190929190505050612415565b005b34801561044157600080fd5b506104f0600480360381019080803573ffffffffffffffffffffffffffffffffffffffff1690602001909291908035600019169060200190929190803573ffffffffffffffffffffffffffffffffffffffff1690602001909291908035906020019092919080359060200190929190803560001916906020019092919080359060200190929190803573ffffffffffffffffffffffffffffffffffffffff169060200190929190505050612a97565b005b3480156104fe57600080fd5b50610507613401565b604051808273ffffffffffffffffffffffffffffffffffffffff1673ffffffffffffffffffffffffffffffffffffffff16815260200191505060405180910390f35b600115156000809054906101000a900473ffffffffffffffffffffffffffffffffffffffff1673ffffffffffffffffffffffffffffffffffffffff1663fda08958336040518263ffffffff167c0100000000000000000000000000000000000000000000000000000000028152600401808273ffffffffffffffffffffffffffffffffffffffff1673ffffffffffffffffffffffffffffffffffffffff168152602001915050602060405180830381600087803b15801561060957600080fd5b505af115801561061d573d6000803e3d6000fd5b505050506040513d602081101561063357600080fd5b8101908080519060200190929190505050151514151561065257600080fd5b806000806101000a81548173ffffffffffffffffffffffffffffffffffffffff021916908373ffffffffffffffffffffffffffffffffffffffff16021790555050565b6000600115156000809054906101000a900473ffffffffffffffffffffffffffffffffffffffff1673ffffffffffffffffffffffffffffffffffffffff1663fda08958336040518263ffffffff167c0100000000000000000000000000000000000000000000000000000000028152600401808273ffffffffffffffffffffffffffffffffffffffff1673ffffffffffffffffffffffffffffffffffffffff168152602001915050602060405180830381600087803b15801561075757600080fd5b505af115801561076b573d6000803e3d6000fd5b505050506040513d602081101561078157600080fd5b810190808051906020019092919050505015151415156107a057600080fd5b600015158a73ffffffffffffffffffffffffffffffffffffffff1663bea0897c8b6040518263ffffffff167c0100000000000000000000000000000000000000000000000000000000028152600401808260001916600019168152602001915050602060405180830381600087803b15801561081b57600080fd5b505af115801561082f573d6000803e3d6000fd5b505050506040513d602081101561084557600080fd5b8101908080519060200190929190505050151514801561092d575060008a73ffffffffffffffffffffffffffffffffffffffff16632a01a451866040518263ffffffff167c0100000000000000000000000000000000000000000000000000000000028152600401808260001916600019168152602001915050602060405180830381600087803b1580156108d957600080fd5b505af11580156108ed573d6000803e3d6000fd5b505050506040513d602081101561090357600080fd5b810190808051906020019092919050505073ffffffffffffffffffffffffffffffffffffffff1614155b151561093857600080fd5b60008273ffffffffffffffffffffffffffffffffffffffff161415801561095f5750600083115b151561096a57600080fd5b8973ffffffffffffffffffffffffffffffffffffffff16632a01a451856040518263ffffffff167c0100000000000000000000000000000000000000000000000000000000028152600401808260001916600019168152602001915050602060405180830381600087803b1580156109e157600080fd5b505af11580156109f5573d6000803e3d6000fd5b505050506040513d6020811015610a0b57600080fd5b81019080805190602001909291905050509050600115158173ffffffffffffffffffffffffffffffffffffffff1663beabacc8600160006250505478010000000000000000000000000000000000000000000000000277ffffffffffffffffffffffffffffffffffffffffffffffff1916815260200190815260200160002060000160009054906101000a900473ffffffffffffffffffffffffffffffffffffffff1685876040518463ffffffff167c0100000000000000000000000000000000000000000000000000000000028152600401808473ffffffffffffffffffffffffffffffffffffffff1673ffffffffffffffffffffffffffffffffffffffff1681526020018373ffffffffffffffffffffffffffffffffffffffff1673ffffffffffffffffffffffffffffffffffffffff1681526020018281526020019350505050602060405180830381600087803b158015610b6857600080fd5b505af1158015610b7c573d6000803e3d6000fd5b505050506040513d6020811015610b9257600080fd5b81019080805190602001909291905050501515141515610bb157600080fd5b600115158173ffffffffffffffffffffffffffffffffffffffff16631aca6376888b8b6040518463ffffffff167c0100000000000000000000000000000000000000000000000000000000028152600401808473ffffffffffffffffffffffffffffffffffffffff1673ffffffffffffffffffffffffffffffffffffffff1681526020018373ffffffffffffffffffffffffffffffffffffffff1673ffffffffffffffffffffffffffffffffffffffff1681526020018281526020019350505050602060405180830381600087803b158015610c8c57600080fd5b505af1158015610ca0573d6000803e3d6000fd5b505050506040513d6020811015610cb657600080fd5b81019080805190602001909291905050501515141515610cd557600080fd5b600115158a73ffffffffffffffffffffffffffffffffffffffff166392c4b8678b886000898e8a6040518763ffffffff167c0100000000000000000000000000000000000000000000000000000000028152600401808760001916600019168152602001866000191660001916815260200185815260200184600019166000191681526020018373ffffffffffffffffffffffffffffffffffffffff1673ffffffffffffffffffffffffffffffffffffffff1681526020018281526020019650505050505050602060405180830381600087803b158015610db557600080fd5b505af1158015610dc9573d6000803e3d6000fd5b505050506040513d6020811015610ddf57600080fd5b81019080805190602001909291905050501515141515610dfe57600080fd5b7fffd68fa24236ad8861d091366d9eb834a12caa7eac8de6b0b43efadd472b1b0f89600160006258415578010000000000000000000000000000000000000000000000000277ffffffffffffffffffffffffffffffffffffffffffffffff1916815260200190815260200160002060000160009054906101000a900473ffffffffffffffffffffffffffffffffffffffff168987858d896040518088600019166000191681526020018773ffffffffffffffffffffffffffffffffffffffff1673ffffffffffffffffffffffffffffffffffffffff16815260200186815260200185600019166000191681526020018473ffffffffffffffffffffffffffffffffffffffff1673ffffffffffffffffffffffffffffffffffffffff1681526020018373ffffffffffffffffffffffffffffffffffffffff1673ffffffffffffffffffffffffffffffffffffffff16815260200182815260200197505050505050505060405180910390a150505050505050505050565b600080600080600115156000809054906101000a900473ffffffffffffffffffffffffffffffffffffffff1673ffffffffffffffffffffffffffffffffffffffff1663fda08958336040518263ffffffff167c0100000000000000000000000000000000000000000000000000000000028152600401808273ffffffffffffffffffffffffffffffffffffffff1673ffffffffffffffffffffffffffffffffffffffff168152602001915050602060405180830381600087803b15801561103a57600080fd5b505af115801561104e573d6000803e3d6000fd5b505050506040513d602081101561106457600080fd5b8101908080519060200190929190505050151514151561108357600080fd5b60008d73ffffffffffffffffffffffffffffffffffffffff16141515156110a957600080fd5b600015158d73ffffffffffffffffffffffffffffffffffffffff1663bea0897c8e6040518263ffffffff167c0100000000000000000000000000000000000000000000000000000000028152600401808260001916600019168152602001915050602060405180830381600087803b15801561112457600080fd5b505af1158015611138573d6000803e3d6000fd5b505050506040513d602081101561114e57600080fd5b81019080805190602001909291905050501515148015611236575060008d73ffffffffffffffffffffffffffffffffffffffff16632a01a4518c6040518263ffffffff167c0100000000000000000000000000000000000000000000000000000000028152600401808260001916600019168152602001915050602060405180830381600087803b1580156111e257600080fd5b505af11580156111f6573d6000803e3d6000fd5b505050506040513d602081101561120c57600080fd5b810190808051906020019092919050505073ffffffffffffffffffffffffffffffffffffffff1614155b151561124157600080fd5b60008573ffffffffffffffffffffffffffffffffffffffff16141580156112685750600086115b80156112745750600088115b151561127f57600080fd5b8c73ffffffffffffffffffffffffffffffffffffffff16632a01a4518b6040518263ffffffff167c0100000000000000000000000000000000000000000000000000000000028152600401808260001916600019168152602001915050602060405180830381600087803b1580156112f657600080fd5b505af115801561130a573d6000803e3d6000fd5b505050506040513d602081101561132057600080fd5b81019080805190602001909291905050509350600160006250505478010000000000000000000000000000000000000000000000000277ffffffffffffffffffffffffffffffffffffffffffffffff1916815260200190815260200160002060000160009054906101000a900473ffffffffffffffffffffffffffffffffffffffff1673ffffffffffffffffffffffffffffffffffffffff168b73ffffffffffffffffffffffffffffffffffffffff161415611543576115248473ffffffffffffffffffffffffffffffffffffffff166370a08231600160006250505478010000000000000000000000000000000000000000000000000277ffffffffffffffffffffffffffffffffffffffffffffffff1916815260200190815260200160002060000160009054906101000a900473ffffffffffffffffffffffffffffffffffffffff166040518263ffffffff167c0100000000000000000000000000000000000000000000000000000000028152600401808273ffffffffffffffffffffffffffffffffffffffff1673ffffffffffffffffffffffffffffffffffffffff168152602001915050602060405180830381600087803b1580156114e357600080fd5b505af11580156114f7573d6000803e3d6000fd5b505050506040513d602081101561150d57600080fd5b810190808051906020019092919050505088613426565b9250611530888761343f565b831015151561153e57600080fd5b61162b565b8373ffffffffffffffffffffffffffffffffffffffff166370a082318c6040518263ffffffff167c0100000000000000000000000000000000000000000000000000000000028152600401808273ffffffffffffffffffffffffffffffffffffffff1673ffffffffffffffffffffffffffffffffffffffff168152602001915050602060405180830381600087803b1580156115de57600080fd5b505af11580156115f2573d6000803e3d6000fd5b505050506040513d602081101561160857600080fd5b8101908080519060200190929190505050915087821015151561162a57600080fd5b5b600115158473ffffffffffffffffffffffffffffffffffffffff1663beabacc8600160006250505478010000000000000000000000000000000000000000000000000277ffffffffffffffffffffffffffffffffffffffffffffffff1916815260200190815260200160002060000160009054906101000a900473ffffffffffffffffffffffffffffffffffffffff16888a6040518463ffffffff167c0100000000000000000000000000000000000000000000000000000000028152600401808473ffffffffffffffffffffffffffffffffffffffff1673ffffffffffffffffffffffffffffffffffffffff1681526020018373ffffffffffffffffffffffffffffffffffffffff1673ffffffffffffffffffffffffffffffffffffffff1681526020018281526020019350505050602060405180830381600087803b15801561177557600080fd5b505af1158015611789573d6000803e3d6000fd5b505050506040513d602081101561179f57600080fd5b810190808051906020019092919050505015151415156117be57600080fd5b600115158473ffffffffffffffffffffffffffffffffffffffff1663beabacc88d8c8c6040518463ffffffff167c0100000000000000000000000000000000000000000000000000000000028152600401808473ffffffffffffffffffffffffffffffffffffffff1673ffffffffffffffffffffffffffffffffffffffff1681526020018373ffffffffffffffffffffffffffffffffffffffff1673ffffffffffffffffffffffffffffffffffffffff1681526020018281526020019350505050602060405180830381600087803b15801561189957600080fd5b505af11580156118ad573d6000803e3d6000fd5b505050506040513d60208110156118c357600080fd5b810190808051906020019092919050505015151415156118e257600080fd5b8a73ffffffffffffffffffffffffffffffffffffffff166395d89b416040518163ffffffff167c0100000000000000000000000000000000000000000000000000000000028152600401602060405180830381600087803b15801561194657600080fd5b505af115801561195a573d6000803e3d6000fd5b505050506040513d602081101561197057600080fd5b81019080805190602001909291905050509050600115158d73ffffffffffffffffffffffffffffffffffffffff166392c4b8678e848c8f8f8d6040518763ffffffff167c0100000000000000000000000000000000000000000000000000000000028152600401808760001916600019168152602001866000191660001916815260200185815260200184600019166000191681526020018373ffffffffffffffffffffffffffffffffffffffff1673ffffffffffffffffffffffffffffffffffffffff1681526020018281526020019650505050505050602060405180830381600087803b158015611a6257600080fd5b505af1158015611a76573d6000803e3d6000fd5b505050506040513d6020811015611a8c57600080fd5b81019080805190602001909291905050501515141515611aab57600080fd5b7f0937f6ae31c5aad135b091d75de1c090f72de5fb85bc6986a9a1c55dc11c2ed88c8c8a8d888e6040518087600019166000191681526020018673ffffffffffffffffffffffffffffffffffffffff1673ffffffffffffffffffffffffffffffffffffffff16815260200185815260200184600019166000191681526020018373ffffffffffffffffffffffffffffffffffffffff1673ffffffffffffffffffffffffffffffffffffffff1681526020018273ffffffffffffffffffffffffffffffffffffffff1673ffffffffffffffffffffffffffffffffffffffff168152602001965050505050505060405180910390a150505050505050505050505050565b6000600115156000809054906101000a900473ffffffffffffffffffffffffffffffffffffffff1673ffffffffffffffffffffffffffffffffffffffff1663fda08958336040518263ffffffff167c0100000000000000000000000000000000000000000000000000000000028152600401808273ffffffffffffffffffffffffffffffffffffffff1673ffffffffffffffffffffffffffffffffffffffff168152602001915050602060405180830381600087803b158015611c6f57600080fd5b505af1158015611c83573d6000803e3d6000fd5b505050506040513d6020811015611c9957600080fd5b81019080805190602001909291905050501515141515611cb857600080fd5b600015158873ffffffffffffffffffffffffffffffffffffffff1663bea0897c896040518263ffffffff167c0100000000000000000000000000000000000000000000000000000000028152600401808260001916600019168152602001915050602060405180830381600087803b158015611d3357600080fd5b505af1158015611d47573d6000803e3d6000fd5b505050506040513d6020811015611d5d57600080fd5b81019080805190602001909291905050501515148015611e45575060008873ffffffffffffffffffffffffffffffffffffffff16632a01a451866040518263ffffffff167c0100000000000000000000000000000000000000000000000000000000028152600401808260001916600019168152602001915050602060405180830381600087803b158015611df157600080fd5b505af1158015611e05573d6000803e3d6000fd5b505050506040513d6020811015611e1b57600080fd5b810190808051906020019092919050505073ffffffffffffffffffffffffffffffffffffffff1614155b1515611e5057600080fd5b60008273ffffffffffffffffffffffffffffffffffffffff1614158015611e775750600083115b1515611e8257600080fd5b8773ffffffffffffffffffffffffffffffffffffffff16632a01a451856040518263ffffffff167c0100000000000000000000000000000000000000000000000000000000028152600401808260001916600019168152602001915050602060405180830381600087803b158015611ef957600080fd5b505af1158015611f0d573d6000803e3d6000fd5b505050506040513d6020811015611f2357600080fd5b81019080805190602001909291905050509050600115158173ffffffffffffffffffffffffffffffffffffffff1663beabacc8600160006250505478010000000000000000000000000000000000000000000000000277ffffffffffffffffffffffffffffffffffffffffffffffff1916815260200190815260200160002060000160009054906101000a900473ffffffffffffffffffffffffffffffffffffffff1685876040518463ffffffff167c0100000000000000000000000000000000000000000000000000000000028152600401808473ffffffffffffffffffffffffffffffffffffffff1673ffffffffffffffffffffffffffffffffffffffff1681526020018373ffffffffffffffffffffffffffffffffffffffff1673ffffffffffffffffffffffffffffffffffffffff1681526020018281526020019350505050602060405180830381600087803b15801561208057600080fd5b505af1158015612094573d6000803e3d6000fd5b505050506040513d60208110156120aa57600080fd5b810190808051906020019092919050505015151415156120c957600080fd5b600115158173ffffffffffffffffffffffffffffffffffffffff166305b1137b88886040518363ffffffff167c0100000000000000000000000000000000000000000000000000000000028152600401808373ffffffffffffffffffffffffffffffffffffffff1673ffffffffffffffffffffffffffffffffffffffff16815260200182815260200192505050602060405180830381600087803b15801561217057600080fd5b505af1158015612184573d6000803e3d6000fd5b505050506040513d602081101561219a57600080fd5b810190808051906020019092919050505015151415156121b957600080fd5b600115158873ffffffffffffffffffffffffffffffffffffffff166392c4b86789600080898c8a6040518763ffffffff167c01000000000000000000000000000000000000000000000000000000000281526004018087600019166000191681526020018660010260001916815260200185815260200184600019166000191681526020018373ffffffffffffffffffffffffffffffffffffffff1673ffffffffffffffffffffffffffffffffffffffff1681526020018281526020019650505050505050602060405180830381600087803b15801561229857600080fd5b505af11580156122ac573d6000803e3d6000fd5b505050506040513d60208110156122c257600080fd5b810190808051906020019092919050505015151415156122e157600080fd5b7f7166b4b376ab553e00850e20633309dfe012fc5fe2a147654a3126ec338ec6038760008787858b896040518088600019166000191681526020018773ffffffffffffffffffffffffffffffffffffffff16815260200186815260200185600019166000191681526020018473ffffffffffffffffffffffffffffffffffffffff1673ffffffffffffffffffffffffffffffffffffffff1681526020018373ffffffffffffffffffffffffffffffffffffffff1673ffffffffffffffffffffffffffffffffffffffff16815260200182815260200197505050505050505060405180910390a15050505050505050565b60016020528060005260406000206000915090508060000160009054906101000a900473ffffffffffffffffffffffffffffffffffffffff16908060010154905082565b6000600115156000809054906101000a900473ffffffffffffffffffffffffffffffffffffffff1673ffffffffffffffffffffffffffffffffffffffff1663fda08958336040518263ffffffff167c0100000000000000000000000000000000000000000000000000000000028152600401808273ffffffffffffffffffffffffffffffffffffffff1673ffffffffffffffffffffffffffffffffffffffff168152602001915050602060405180830381600087803b1580156124d757600080fd5b505af11580156124eb573d6000803e3d6000fd5b505050506040513d602081101561250157600080fd5b8101908080519060200190929190505050151514151561252057600080fd5b60008473ffffffffffffffffffffffffffffffffffffffff161415151561254657600080fd5b816000809054906101000a900473ffffffffffffffffffffffffffffffffffffffff16612571613469565b8083600019166000191681526020018273ffffffffffffffffffffffffffffffffffffffff1673ffffffffffffffffffffffffffffffffffffffff16815260200192505050604051809103906000f0801580156125d2573d6000803e3d6000fd5b509050600115158473ffffffffffffffffffffffffffffffffffffffff16630e8ba1678584866040518463ffffffff167c01000000000000000000000000000000000000000000000000000000000281526004018084600019166000191681526020018373ffffffffffffffffffffffffffffffffffffffff1673ffffffffffffffffffffffffffffffffffffffff16815260200182600019166000191681526020019350505050602060405180830381600087803b15801561269457600080fd5b505af11580156126a8573d6000803e3d6000fd5b505050506040513d60208110156126be57600080fd5b810190808051906020019092919050505015151415156126dd57600080fd5b600115158473ffffffffffffffffffffffffffffffffffffffff166392c4b86785600080878a73ffffffffffffffffffffffffffffffffffffffff16632a01a4518a6040518263ffffffff167c0100000000000000000000000000000000000000000000000000000000028152600401808260001916600019168152602001915050602060405180830381600087803b15801561277957600080fd5b505af115801561278d573d6000803e3d6000fd5b505050506040513d60208110156127a357600080fd5b810190808051906020019092919050505060006040518763ffffffff167c01000000000000000000000000000000000000000000000000000000000281526004018087600019166000191681526020018660010260001916815260200185815260200184600019166000191681526020018373ffffffffffffffffffffffffffffffffffffffff1673ffffffffffffffffffffffffffffffffffffffff1681526020018281526020019650505050505050602060405180830381600087803b15801561286e57600080fd5b505af1158015612882573d6000803e3d6000fd5b505050506040513d602081101561289857600080fd5b810190808051906020019092919050505015151415156128b757600080fd5b7f0fb3e865b3e3996382296fd8ddd17b0bb8ae5d9866b08a51945a2e58cac3073083838673ffffffffffffffffffffffffffffffffffffffff16632a01a451866040518263ffffffff167c0100000000000000000000000000000000000000000000000000000000028152600401808260001916600019168152602001915050602060405180830381600087803b15801561295157600080fd5b505af1158015612965573d6000803e3d6000fd5b505050506040513d602081101561297b57600080fd5b81019080805190602001909291905050508473ffffffffffffffffffffffffffffffffffffffff16630d8e6e2c6040518163ffffffff167c0100000000000000000000000000000000000000000000000000000000028152600401602060405180830381600087803b1580156129f057600080fd5b505af1158015612a04573d6000803e3d6000fd5b505050506040513d6020811015612a1a57600080fd5b810190808051906020019092919050505060405180856000191660001916815260200184600019166000191681526020018373ffffffffffffffffffffffffffffffffffffffff1673ffffffffffffffffffffffffffffffffffffffff16815260200182815260200194505050505060405180910390a150505050565b6000600115156000809054906101000a900473ffffffffffffffffffffffffffffffffffffffff1673ffffffffffffffffffffffffffffffffffffffff1663fda08958336040518263ffffffff167c0100000000000000000000000000000000000000000000000000000000028152600401808273ffffffffffffffffffffffffffffffffffffffff1673ffffffffffffffffffffffffffffffffffffffff168152602001915050602060405180830381600087803b158015612b5957600080fd5b505af1158015612b6d573d6000803e3d6000fd5b505050506040513d6020811015612b8357600080fd5b81019080805190602001909291905050501515141515612ba257600080fd5b600015158973ffffffffffffffffffffffffffffffffffffffff1663bea0897c8a6040518263ffffffff167c0100000000000000000000000000000000000000000000000000000000028152600401808260001916600019168152602001915050602060405180830381600087803b158015612c1d57600080fd5b505af1158015612c31573d6000803e3d6000fd5b505050506040513d6020811015612c4757600080fd5b81019080805190602001909291905050501515148015612d2f575060008973ffffffffffffffffffffffffffffffffffffffff16632a01a451866040518263ffffffff167c0100000000000000000000000000000000000000000000000000000000028152600401808260001916600019168152602001915050602060405180830381600087803b158015612cdb57600080fd5b505af1158015612cef573d6000803e3d6000fd5b505050506040513d6020811015612d0557600080fd5b810190808051906020019092919050505073ffffffffffffffffffffffffffffffffffffffff1614155b1515612d3a57600080fd5b60008273ffffffffffffffffffffffffffffffffffffffff1614158015612d615750600083115b8015612d6d5750600085115b1515612d7857600080fd5b8873ffffffffffffffffffffffffffffffffffffffff16632a01a451856040518263ffffffff167c0100000000000000000000000000000000000000000000000000000000028152600401808260001916600019168152602001915050602060405180830381600087803b158015612def57600080fd5b505af1158015612e03573d6000803e3d6000fd5b505050506040513d6020811015612e1957600080fd5b81019080805190602001909291905050509050600115158173ffffffffffffffffffffffffffffffffffffffff1663beabacc8600160006250505478010000000000000000000000000000000000000000000000000277ffffffffffffffffffffffffffffffffffffffffffffffff1916815260200190815260200160002060000160009054906101000a900473ffffffffffffffffffffffffffffffffffffffff1685876040518463ffffffff167c0100000000000000000000000000000000000000000000000000000000028152600401808473ffffffffffffffffffffffffffffffffffffffff1673ffffffffffffffffffffffffffffffffffffffff1681526020018373ffffffffffffffffffffffffffffffffffffffff1673ffffffffffffffffffffffffffffffffffffffff1681526020018281526020019350505050602060405180830381600087803b158015612f7657600080fd5b505af1158015612f8a573d6000803e3d6000fd5b505050506040513d6020811015612fa057600080fd5b81019080805190602001909291905050501515141515612fbf57600080fd5b600115158173ffffffffffffffffffffffffffffffffffffffff16630a7e880c600160006258415578010000000000000000000000000000000000000000000000000277ffffffffffffffffffffffffffffffffffffffffffffffff1916815260200190815260200160002060000160009054906101000a900473ffffffffffffffffffffffffffffffffffffffff168a8a8a6040518563ffffffff167c0100000000000000000000000000000000000000000000000000000000028152600401808573ffffffffffffffffffffffffffffffffffffffff1673ffffffffffffffffffffffffffffffffffffffff1681526020018473ffffffffffffffffffffffffffffffffffffffff1673ffffffffffffffffffffffffffffffffffffffff168152602001838152602001828152602001945050505050602060405180830381600087803b15801561311157600080fd5b505af1158015613125573d6000803e3d6000fd5b505050506040513d602081101561313b57600080fd5b8101908080519060200190929190505050151514151561315a57600080fd5b600115158973ffffffffffffffffffffffffffffffffffffffff166392c4b8678a6258415589898d8a6040518763ffffffff167c01000000000000000000000000000000000000000000000000000000000281526004018087600019166000191681526020018660010260001916815260200185815260200184600019166000191681526020018373ffffffffffffffffffffffffffffffffffffffff1673ffffffffffffffffffffffffffffffffffffffff1681526020018281526020019650505050505050602060405180830381600087803b15801561323b57600080fd5b505af115801561324f573d6000803e3d6000fd5b505050506040513d602081101561326557600080fd5b8101908080519060200190929190505050151514151561328457600080fd5b7ff6596b058662ad016018c5c91e35ed03631c85a79fb0f2242075b1b3c83e0eb188600160006258415578010000000000000000000000000000000000000000000000000277ffffffffffffffffffffffffffffffffffffffffffffffff1916815260200190815260200160002060000160009054906101000a900473ffffffffffffffffffffffffffffffffffffffff16888888868d8a6040518089600019166000191681526020018873ffffffffffffffffffffffffffffffffffffffff1673ffffffffffffffffffffffffffffffffffffffff16815260200187815260200186815260200185600019166000191681526020018473ffffffffffffffffffffffffffffffffffffffff1673ffffffffffffffffffffffffffffffffffffffff1681526020018373ffffffffffffffffffffffffffffffffffffffff1673ffffffffffffffffffffffffffffffffffffffff1681526020018281526020019850505050505050505060405180910390a1505050505050505050565b6000809054906101000a900473ffffffffffffffffffffffffffffffffffffffff1681565b600082821115151561343457fe5b818303905092915050565b60008082840190508381101580156134575750828110155b151561345f57fe5b8091505092915050565b604051611a2f8061347a8339019056006080604052600160025534801561001557600080fd5b50604051604080611a2f833981018060405281019080805190602001909291908051906020019092919050505080806000806101000a81548173ffffffffffffffffffffffffffffffffffffffff021916908373ffffffffffffffffffffffffffffffffffffffff160217905550508160018160001916905550505061198f806100a06000396000f3006080604052600436106100e6576000357c0100000000000000000000000000000000000000000000000000000000900463ffffffff16806302ab72c4146100e857806305b1137b1461012b578063089587cd146101905780630a7e880c146101e75780630d8e6e2c14610276578063150b7a02146102a15780631aca6376146103a6578063418ae2691461042b578063468f26221461048c578063527fe413146104e357806354fd4d50146105165780636bb3471a1461054157806370a0823114610574578063beabacc8146105cb578063f23a6e6114610650578063f7f01b4b1461075f575b005b3480156100f457600080fd5b50610129600480360381019080803573ffffffffffffffffffffffffffffffffffffffff1690602001909291905050506107b6565b005b34801561013757600080fd5b50610176600480360381019080803573ffffffffffffffffffffffffffffffffffffffff16906020019092919080359060200190929190505050610902565b604051808215151515815260200191505060405180910390f35b34801561019c57600080fd5b506101a5610bf4565b604051808273ffffffffffffffffffffffffffffffffffffffff1673ffffffffffffffffffffffffffffffffffffffff16815260200191505060405180910390f35b3480156101f357600080fd5b5061025c600480360381019080803573ffffffffffffffffffffffffffffffffffffffff169060200190929190803573ffffffffffffffffffffffffffffffffffffffff1690602001909291908035906020019092919080359060200190929190505050610cbb565b604051808215151515815260200191505060405180910390f35b34801561028257600080fd5b5061028b610fae565b6040518082815260200191505060405180910390f35b3480156102ad57600080fd5b50610352600480360381019080803573ffffffffffffffffffffffffffffffffffffffff169060200190929190803573ffffffffffffffffffffffffffffffffffffffff16906020019092919080359060200190929190803590602001908201803590602001908080601f0160208091040260200160405190810160405280939291908181526020018383808284378201915050505050509192919290505050610fb8565b60405180827bffffffffffffffffffffffffffffffffffffffffffffffffffffffff19167bffffffffffffffffffffffffffffffffffffffffffffffffffffffff1916815260200191505060405180910390f35b3480156103b257600080fd5b50610411600480360381019080803573ffffffffffffffffffffffffffffffffffffffff169060200190929190803573ffffffffffffffffffffffffffffffffffffffff16906020019092919080359060200190929190505050610fe8565b604051808215151515815260200191505060405180910390f35b34801561043757600080fd5b50610476600480360381019080803573ffffffffffffffffffffffffffffffffffffffff16906020019092919080359060200190929190505050611306565b6040518082815260200191505060405180910390f35b34801561049857600080fd5b506104cd600480360381019080803573ffffffffffffffffffffffffffffffffffffffff1690602001909291905050506113ee565b6040518082815260200191505060405180910390f35b3480156104ef57600080fd5b506104f86114cd565b60405180826000191660001916815260200191505060405180910390f35b34801561052257600080fd5b5061052b6114d7565b6040518082815260200191505060405180910390f35b34801561054d57600080fd5b506105566114dd565b60405180826000191660001916815260200191505060405180910390f35b34801561058057600080fd5b506105b5600480360381019080803573ffffffffffffffffffffffffffffffffffffffff1690602001909291905050506114e3565b6040518082815260200191505060405180910390f35b3480156105d757600080fd5b50610636600480360381019080803573ffffffffffffffffffffffffffffffffffffffff169060200190929190803573ffffffffffffffffffffffffffffffffffffffff16906020019092919080359060200190929190505050611616565b604051808215151515815260200191505060405180910390f35b34801561065c57600080fd5b5061070b600480360381019080803573ffffffffffffffffffffffffffffffffffffffff169060200190929190803573ffffffffffffffffffffffffffffffffffffffff1690602001909291908035906020019092919080359060200190929190803590602001908201803590602001908080601f016020809104026020016040519081016040528093929190818152602001838380828437820191505050505050919291929050505061190d565b60405180827bffffffffffffffffffffffffffffffffffffffffffffffffffffffff19167bffffffffffffffffffffffffffffffffffffffffffffffffffffffff1916815260200191505060405180910390f35b34801561076b57600080fd5b5061077461193e565b604051808273ffffffffffffffffffffffffffffffffffffffff1673ffffffffffffffffffffffffffffffffffffffff16815260200191505060405180910390f35b600115156000809054906101000a900473ffffffffffffffffffffffffffffffffffffffff1673ffffffffffffffffffffffffffffffffffffffff1663fda08958336040518263ffffffff167c0100000000000000000000000000000000000000000000000000000000028152600401808273ffffffffffffffffffffffffffffffffffffffff1673ffffffffffffffffffffffffffffffffffffffff168152602001915050602060405180830381600087803b15801561087657600080fd5b505af115801561088a573d6000803e3d6000fd5b505050506040513d60208110156108a057600080fd5b810190808051906020019092919050505015151415156108bf57600080fd5b806000806101000a81548173ffffffffffffffffffffffffffffffffffffffff021916908373ffffffffffffffffffffffffffffffffffffffff16021790555050565b6000600115156000809054906101000a900473ffffffffffffffffffffffffffffffffffffffff1673ffffffffffffffffffffffffffffffffffffffff1663fda08958336040518263ffffffff167c0100000000000000000000000000000000000000000000000000000000028152600401808273ffffffffffffffffffffffffffffffffffffffff1673ffffffffffffffffffffffffffffffffffffffff168152602001915050602060405180830381600087803b1580156109c457600080fd5b505af11580156109d8573d6000803e3d6000fd5b505050506040513d60208110156109ee57600080fd5b810190808051906020019092919050505015151480610b075750600115156000809054906101000a900473ffffffffffffffffffffffffffffffffffffffff1673ffffffffffffffffffffffffffffffffffffffff166305fd22d0336040518263ffffffff167c0100000000000000000000000000000000000000000000000000000000028152600401808273ffffffffffffffffffffffffffffffffffffffff1673ffffffffffffffffffffffffffffffffffffffff168152602001915050602060405180830381600087803b158015610ac857600080fd5b505af1158015610adc573d6000803e3d6000fd5b505050506040513d6020811015610af257600080fd5b81019080805190602001909291905050501515145b1515610b1257600080fd5b813073ffffffffffffffffffffffffffffffffffffffff163110151515610b3857600080fd5b600115158373ffffffffffffffffffffffffffffffffffffffff166108fc849081150290604051600060405180830381858888f193505050501515141515610b7f57600080fd5b7f1853ca9dc0208799379313b2b43364e45db022f073c72648fbc206dc0bacbcdc8383604051808373ffffffffffffffffffffffffffffffffffffffff1673ffffffffffffffffffffffffffffffffffffffff1681526020018281526020019250505060405180910390a16001905092915050565b60008060009054906101000a900473ffffffffffffffffffffffffffffffffffffffff1673ffffffffffffffffffffffffffffffffffffffff1663fd922a426040518163ffffffff167c0100000000000000000000000000000000000000000000000000000000028152600401602060405180830381600087803b158015610c7b57600080fd5b505af1158015610c8f573d6000803e3d6000fd5b505050506040513d6020811015610ca557600080fd5b8101908080519060200190929190505050905090565b6000600115156000809054906101000a900473ffffffffffffffffffffffffffffffffffffffff1673ffffffffffffffffffffffffffffffffffffffff1663fda08958336040518263ffffffff167c0100000000000000000000000000000000000000000000000000000000028152600401808273ffffffffffffffffffffffffffffffffffffffff1673ffffffffffffffffffffffffffffffffffffffff168152602001915050602060405180830381600087803b158015610d7d57600080fd5b505af1158015610d91573d6000803e3d6000fd5b505050506040513d6020811015610da757600080fd5b810190808051906020019092919050505015151480610ec05750600115156000809054906101000a900473ffffffffffffffffffffffffffffffffffffffff1673ffffffffffffffffffffffffffffffffffffffff166305fd22d0336040518263ffffffff167c0100000000000000000000000000000000000000000000000000000000028152600401808273ffffffffffffffffffffffffffffffffffffffff1673ffffffffffffffffffffffffffffffffffffffff168152602001915050602060405180830381600087803b158015610e8157600080fd5b505af1158015610e95573d6000803e3d6000fd5b505050506040513d6020811015610eab57600080fd5b81019080805190602001909291905050501515145b1515610ecb57600080fd5b8473ffffffffffffffffffffffffffffffffffffffff1663ae28b68c8585856040518463ffffffff167c0100000000000000000000000000000000000000000000000000000000028152600401808473ffffffffffffffffffffffffffffffffffffffff1673ffffffffffffffffffffffffffffffffffffffff16815260200183815260200182815260200180602001828103825260008152602001602001945050505050600060405180830381600087803b158015610f8a57600080fd5b505af1158015610f9e573d6000803e3d6000fd5b5050505060019050949350505050565b6000600254905090565b600063150b7a027c0100000000000000000000000000000000000000000000000000000000029050949350505050565b6000600115156000809054906101000a900473ffffffffffffffffffffffffffffffffffffffff1673ffffffffffffffffffffffffffffffffffffffff1663fda08958336040518263ffffffff167c0100000000000000000000000000000000000000000000000000000000028152600401808273ffffffffffffffffffffffffffffffffffffffff1673ffffffffffffffffffffffffffffffffffffffff168152602001915050602060405180830381600087803b1580156110aa57600080fd5b505af11580156110be573d6000803e3d6000fd5b505050506040513d60208110156110d457600080fd5b8101908080519060200190929190505050151514806111ed5750600115156000809054906101000a900473ffffffffffffffffffffffffffffffffffffffff1673ffffffffffffffffffffffffffffffffffffffff166305fd22d0336040518263ffffffff167c0100000000000000000000000000000000000000000000000000000000028152600401808273ffffffffffffffffffffffffffffffffffffffff1673ffffffffffffffffffffffffffffffffffffffff168152602001915050602060405180830381600087803b1580156111ae57600080fd5b505af11580156111c2573d6000803e3d6000fd5b505050506040513d60208110156111d857600080fd5b81019080805190602001909291905050501515145b15156111f857600080fd5b8373ffffffffffffffffffffffffffffffffffffffff1663b88d4fde3085856040518463ffffffff167c0100000000000000000000000000000000000000000000000000000000028152600401808473ffffffffffffffffffffffffffffffffffffffff1673ffffffffffffffffffffffffffffffffffffffff1681526020018373ffffffffffffffffffffffffffffffffffffffff1673ffffffffffffffffffffffffffffffffffffffff16815260200182815260200180602001828103825260008152602001602001945050505050600060405180830381600087803b1580156112e357600080fd5b505af11580156112f7573d6000803e3d6000fd5b50505050600190509392505050565b60008273ffffffffffffffffffffffffffffffffffffffff16633656eec283306040518363ffffffff167c0100000000000000000000000000000000000000000000000000000000028152600401808381526020018273ffffffffffffffffffffffffffffffffffffffff1673ffffffffffffffffffffffffffffffffffffffff16815260200192505050602060405180830381600087803b1580156113ab57600080fd5b505af11580156113bf573d6000803e3d6000fd5b505050506040513d60208110156113d557600080fd5b8101908080519060200190929190505050905092915050565b60008173ffffffffffffffffffffffffffffffffffffffff166370a08231306040518263ffffffff167c0100000000000000000000000000000000000000000000000000000000028152600401808273ffffffffffffffffffffffffffffffffffffffff1673ffffffffffffffffffffffffffffffffffffffff168152602001915050602060405180830381600087803b15801561148b57600080fd5b505af115801561149f573d6000803e3d6000fd5b505050506040513d60208110156114b557600080fd5b81019080805190602001909291905050509050919050565b6000600154905090565b60025481565b60015481565b60008073ffffffffffffffffffffffffffffffffffffffff168273ffffffffffffffffffffffffffffffffffffffff161415611538573073ffffffffffffffffffffffffffffffffffffffff16319050611611565b8173ffffffffffffffffffffffffffffffffffffffff166370a08231306040518263ffffffff167c0100000000000000000000000000000000000000000000000000000000028152600401808273ffffffffffffffffffffffffffffffffffffffff1673ffffffffffffffffffffffffffffffffffffffff168152602001915050602060405180830381600087803b1580156115d357600080fd5b505af11580156115e7573d6000803e3d6000fd5b505050506040513d60208110156115fd57600080fd5b810190808051906020019092919050505090505b919050565b6000600115156000809054906101000a900473ffffffffffffffffffffffffffffffffffffffff1673ffffffffffffffffffffffffffffffffffffffff1663fda08958336040518263ffffffff167c0100000000000000000000000000000000000000000000000000000000028152600401808273ffffffffffffffffffffffffffffffffffffffff1673ffffffffffffffffffffffffffffffffffffffff168152602001915050602060405180830381600087803b1580156116d857600080fd5b505af11580156116ec573d6000803e3d6000fd5b505050506040513d602081101561170257600080fd5b81019080805190602001909291905050501515148061181b5750600115156000809054906101000a900473ffffffffffffffffffffffffffffffffffffffff1673ffffffffffffffffffffffffffffffffffffffff166305fd22d0336040518263ffffffff167c0100000000000000000000000000000000000000000000000000000000028152600401808273ffffffffffffffffffffffffffffffffffffffff1673ffffffffffffffffffffffffffffffffffffffff168152602001915050602060405180830381600087803b1580156117dc57600080fd5b505af11580156117f0573d6000803e3d6000fd5b505050506040513d602081101561180657600080fd5b81019080805190602001909291905050501515145b151561182657600080fd5b8373ffffffffffffffffffffffffffffffffffffffff1663a9059cbb84846040518363ffffffff167c0100000000000000000000000000000000000000000000000000000000028152600401808373ffffffffffffffffffffffffffffffffffffffff1673ffffffffffffffffffffffffffffffffffffffff16815260200182815260200192505050602060405180830381600087803b1580156118c957600080fd5b505af11580156118dd573d6000803e3d6000fd5b505050506040513d60208110156118f357600080fd5b810190808051906020019092919050505090509392505050565b600063f23a6e617c010000000000000000000000000000000000000000000000000000000002905095945050505050565b6000809054906101000a900473ffffffffffffffffffffffffffffffffffffffff16815600a165627a7a7230582065a4776bfe41161549a512815bd92774acff9572c4bdfa12f18019a51d4c0cc40029a165627a7a723058207860369df7307dd851d6c3dca283b011d375fc02e895c64c109050c0cad8754f0029",
  "source": "pragma solidity ^0.4.17;\n/**\nThis is the core module of the system. Currently it holds the code of\nthe Bank and crowdsale modules to avoid external calls and higher gas costs.\nIt might be a good idea in the future to split the code, separate Bank\nand crowdsale modules into external files and have the core interact with them\nwith addresses and interfaces. \n*/\nimport \"./iERC20Token.sol\";\nimport \"./CurrencyToken.sol\";\nimport \"./DepositContract.sol\";\nimport \"./SafeMath.sol\";\nimport \"./DataManager.sol\";\nimport \"./ERC1155.sol\";\nimport \"./withAccessManager.sol\";\n\n/// @title Exchange contract\ncontract Exchange is withAccessManager {\n    // EVENTS\n    // Bank events\n    event EventWithdrawEther(bytes32 _blockchainActionId, address ether_address, uint256 amount, bytes32 accountId, address depositContract, address to, uint pptFee);\n    event EventWithdrawERC721(bytes32 _blockchainActionId, address erc721_tokenAddress, uint256 token_id, bytes32 accountId, address depositContract, address to, uint pptFee);\n    event EventWithdrawPPT(bytes32 blockchainActionId, address pptAddress, uint amount, bytes32 accountId, address depositContract, address to);\n    event EventNewDepositContract(bytes32 blockchainActionId, bytes32 clientId, address depositContractAddress, uint256 version);\n    event EventWithdrawXAUp(bytes32 _blockchainActionId, address erc1155Token, uint token_id, uint amount, bytes32 accountId, address depositContract, address to, uint pptFee);\n\n    // FIELDS\n    struct tokens {   \n        address _token;\n        uint256 _precision;\n    }\n    mapping(bytes8 => tokens) public tokenDetails;\n\n    // NON-CONSTANT METHODS\n    // Constructor method called when contract instance is \n    // deployed with 'withAccessManager' modifier.\n    constructor(address _accessManager) public withAccessManager(_accessManager) {\n        //pxt\n        tokenDetails[0x505854]._token = 0xc14830E53aA344E8c14603A91229A0b925b0B262;\n        tokenDetails[0x505854]._precision = 8;\n        //usdc\n        tokenDetails[0x55534443]._token = 0xA0b86991c6218b36c1d19D4a2e9Eb0cE3606eB48;\n        tokenDetails[0x55534443]._precision = 6;\n        //tusd\n        tokenDetails[0x54555344]._token = 0x8dd5fbCe2F6a956C3022bA3663759011Dd51e73E;\n        tokenDetails[0x54555344]._precision = 18;\n        //ppt\n        tokenDetails[0x505054]._token = 0xd4fa1460F537bb9085d22C7bcCB5DD450Ef28e3a;        \n        tokenDetails[0x505054]._precision = 8;\n        //xau\n        tokenDetails[0x584155]._token = 0x73a3b7DFFE9af119621f8467D8609771AB4BC33f;\n        tokenDetails[0x584155]._precision = 0;\n    }\n\n    /**\n    BANK MODULE\n    */\n    // NON-CONSTANT METHODS\n\n    // Creates a new 'depositAddress' gotten from deploying a deposit contract linked to a client ID\n    function createAddress(address _dataManager, bytes32 _blockchainActionId, bytes32 clientId) \n        public\n        onlyServer\n    {   \n        require(_dataManager != 0x0);\n        DepositContract newDepositContract = new DepositContract(clientId, AM);\n        require(DataManager(_dataManager).setDepositAddress(_blockchainActionId, newDepositContract, clientId) == true);\n        require(DataManager(_dataManager).setBlockchainActionData(_blockchainActionId, 0x0, 0, clientId, DataManager(_dataManager).getDepositAddress(clientId), 0) == true);\n        EventNewDepositContract(_blockchainActionId, clientId, DataManager(_dataManager).getDepositAddress(clientId), newDepositContract.getVersion());\n    }\n\n    /** @dev Withdraw an amount of PPT Populous tokens to a blockchain address \n      * @param _blockchainActionId the blockchain action id\n      * @param pptAddress the address of the PPT smart contract\n      * @param accountId the account id of the client\n      * @param pptFee the amount of fees to pay in PPT tokens\n      * @param adminExternalWallet the platform admin wallet address to pay the fees to \n      * @param to the blockchain address to withdraw and transfer the pokens to\n      * @param inCollateral the amount of pokens withheld by the platform\n      */    \n    function withdrawERC20(\n        address _dataManager, bytes32 _blockchainActionId, \n        address pptAddress, bytes32 accountId, \n        address to, uint256 amount, uint256 inCollateral, \n        uint256 pptFee, address adminExternalWallet) \n        public \n        onlyServer \n    {   \n        require(_dataManager != 0x0);\n        require(DataManager(_dataManager).getActionStatus(_blockchainActionId) == false && DataManager(_dataManager).getDepositAddress(accountId) != 0x0);\n        require(adminExternalWallet != 0x0 && pptFee > 0 && amount > 0);\n        address depositContract = DataManager(_dataManager).getDepositAddress(accountId);\n        if(pptAddress == tokenDetails[0x505054]._token) {\n            uint pptBalance = SafeMath.safeSub(DepositContract(depositContract).balanceOf(tokenDetails[0x505054]._token), inCollateral);\n            require(pptBalance >= SafeMath.safeAdd(amount, pptFee));\n        } else {\n            uint erc20Balance = DepositContract(depositContract).balanceOf(pptAddress);\n            require(erc20Balance >= amount);\n        }\n        require(DepositContract(depositContract).transfer(tokenDetails[0x505054]._token, adminExternalWallet, pptFee) == true);\n        require(DepositContract(depositContract).transfer(pptAddress, to, amount) == true);\n        bytes32 tokenSymbol = iERC20Token(pptAddress).symbol();    \n        require(DataManager(_dataManager).setBlockchainActionData(_blockchainActionId, tokenSymbol, amount, accountId, to, pptFee) == true);\n        emit EventWithdrawPPT(_blockchainActionId, pptAddress, amount, accountId, depositContract, to);\n    }\n\n    // ether withdraw function using transferEther in deposit contract\n    function withdrawEther(\n        address _dataManager, bytes32 _blockchainActionId,\n        address _to, uint256 _value,\n        bytes32 accountId, uint256 pptFee, \n        address adminExternalWallet) \n        public\n        onlyServer \n    {\n        require(DataManager(_dataManager).getActionStatus(_blockchainActionId) == false && DataManager(_dataManager).getDepositAddress(accountId) != 0x0);\n        require(adminExternalWallet != 0x0 && pptFee > 0);\n        DepositContract o = DepositContract(DataManager(_dataManager).getDepositAddress(accountId));\n        // send ppt fee\n        require(o.transfer(tokenDetails[0x505054]._token, adminExternalWallet, pptFee) == true);\n        // transfer erc721 tokens to address from deposit contract\n        require(o.transferEther(_to, _value) == true);\n        // set action status in dataManager\n        require(DataManager(_dataManager).setBlockchainActionData(_blockchainActionId, 0x0, 0, accountId, _to, pptFee) == true);\n        // emit event \n        emit EventWithdrawEther(_blockchainActionId, 0x0, _value, accountId, o, _to, pptFee);\n    }\n\n    // erc721 withdraw function using transferFrom in erc1155 token contract\n    function withdrawERC721(\n        address _dataManager, bytes32 _blockchainActionId,\n        address _to, uint256 _id, address erc721Token, bytes32 erc721TokenSymbol,\n        bytes32 accountId, uint256 pptFee, \n        address adminExternalWallet) \n        public\n        onlyServer \n    {\n        require(DataManager(_dataManager).getActionStatus(_blockchainActionId) == false && DataManager(_dataManager).getDepositAddress(accountId) != 0x0);\n        require(adminExternalWallet != 0x0 && pptFee > 0);\n        DepositContract o = DepositContract(DataManager(_dataManager).getDepositAddress(accountId));\n        // send ppt fee\n        require(o.transfer(tokenDetails[0x505054]._token, adminExternalWallet, pptFee) == true);\n        // transfer erc721 tokens to address from deposit contract\n        require(o.transferERC721(erc721Token, _to, _id) == true);\n        // set action status in dataManager\n        require(DataManager(_dataManager).setBlockchainActionData(_blockchainActionId, erc721TokenSymbol, 0, accountId, _to, pptFee) == true);\n        // emit event \n        emit EventWithdrawERC721(_blockchainActionId, tokenDetails[0x584155]._token, _id, accountId, o, _to, pptFee);\n    }\n\n    // erc1155 withdraw function using transferFrom in erc1155 token contract\n    function withdrawERC1155(\n        address _dataManager, bytes32 _blockchainActionId,\n        address _to, uint256 _id, uint256 _value,\n        bytes32 accountId, uint256 pptFee, \n        address adminExternalWallet) \n        public\n        onlyServer \n    {\n        require(DataManager(_dataManager).getActionStatus(_blockchainActionId) == false && DataManager(_dataManager).getDepositAddress(accountId) != 0x0);\n        require(adminExternalWallet != 0x0 && pptFee > 0 && _value > 0);\n        DepositContract o = DepositContract(DataManager(_dataManager).getDepositAddress(accountId));\n        require(o.transfer(tokenDetails[0x505054]._token, adminExternalWallet, pptFee) == true);\n        // transfer xaup tokens to address from deposit contract\n        require(o.transferERC1155(tokenDetails[0x584155]._token, _to, _id, _value) == true);\n        // set action status in dataManager\n        require(DataManager(_dataManager).setBlockchainActionData(_blockchainActionId, 0x584155, _value, accountId, _to, pptFee) == true);\n        // emit event \n        emit EventWithdrawXAUp(_blockchainActionId, tokenDetails[0x584155]._token, _id, _value, accountId, o, _to, pptFee);\n    }\n}",
  "sourcePath": "/Users/najienka/Desktop/populous-app/populous-exchangecontracts/contracts/Exchange.sol",
  "compiler": {
    "name": "solc",
    "version": "0.4.25+commit.59dbf8f1.Emscripten.clang"
  },
  "schemaVersion": "2.0.2",
  "updatedAt": "2019-03-26T14:12:24.975Z"
}