{
  "contractName": "Exchange",
  "abi": [
    {
      "constant": false,
      "inputs": [
        {
          "name": "_accessManager",
          "type": "address"
        }
      ],
      "name": "updateAccessManager",
      "outputs": [],
      "payable": false,
      "stateMutability": "nonpayable",
      "type": "function"
    },
    {
      "constant": true,
      "inputs": [
        {
          "name": "",
          "type": "bytes8"
        }
      ],
      "name": "tokenDetails",
      "outputs": [
        {
          "name": "_token",
          "type": "address"
        },
        {
          "name": "_precision",
          "type": "uint256"
        }
      ],
      "payable": false,
      "stateMutability": "view",
      "type": "function"
    },
    {
      "constant": true,
      "inputs": [],
      "name": "AM",
      "outputs": [
        {
          "name": "",
          "type": "address"
        }
      ],
      "payable": false,
      "stateMutability": "view",
      "type": "function"
    },
    {
      "inputs": [
        {
          "name": "_accessManager",
          "type": "address"
        }
      ],
      "payable": false,
      "stateMutability": "nonpayable",
      "type": "constructor"
    },
    {
      "anonymous": false,
      "inputs": [
        {
          "indexed": false,
          "name": "_blockchainActionId",
          "type": "bytes32"
        },
        {
          "indexed": false,
          "name": "erc20_tokenAddress",
          "type": "address"
        },
        {
          "indexed": false,
          "name": "erc20_amount",
          "type": "uint256"
        },
        {
          "indexed": false,
          "name": "xaup_amount",
          "type": "uint256"
        },
        {
          "indexed": false,
          "name": "_tokenId",
          "type": "uint256"
        },
        {
          "indexed": false,
          "name": "_clientId",
          "type": "bytes32"
        },
        {
          "indexed": false,
          "name": "_from",
          "type": "address"
        }
      ],
      "name": "EventExchangeXAUp",
      "type": "event"
    },
    {
      "anonymous": false,
      "inputs": [
        {
          "indexed": false,
          "name": "blockchainActionId",
          "type": "bytes32"
        },
        {
          "indexed": false,
          "name": "oldDepositContract",
          "type": "address"
        },
        {
          "indexed": false,
          "name": "newDepositContract",
          "type": "address"
        },
        {
          "indexed": false,
          "name": "clientId",
          "type": "bytes32"
        },
        {
          "indexed": false,
          "name": "version",
          "type": "uint256"
        }
      ],
      "name": "EventDepositAddressUpgrade",
      "type": "event"
    },
    {
      "anonymous": false,
      "inputs": [
        {
          "indexed": false,
          "name": "blockchainActionId",
          "type": "bytes32"
        },
        {
          "indexed": false,
          "name": "accountId",
          "type": "bytes32"
        },
        {
          "indexed": false,
          "name": "depositContract",
          "type": "address"
        },
        {
          "indexed": false,
          "name": "to",
          "type": "address"
        },
        {
          "indexed": false,
          "name": "amount",
          "type": "uint256"
        }
      ],
      "name": "EventWithdrawPPT",
      "type": "event"
    },
    {
      "anonymous": false,
      "inputs": [
        {
          "indexed": false,
          "name": "_blockchainActionId",
          "type": "bytes32"
        },
        {
          "indexed": false,
          "name": "accountId",
          "type": "bytes32"
        },
        {
          "indexed": false,
          "name": "currency",
          "type": "bytes32"
        },
        {
          "indexed": false,
          "name": "amount",
          "type": "uint256"
        }
      ],
      "name": "EventWithdrawPoken",
      "type": "event"
    },
    {
      "anonymous": false,
      "inputs": [
        {
          "indexed": false,
          "name": "blockchainActionId",
          "type": "bytes32"
        },
        {
          "indexed": false,
          "name": "clientId",
          "type": "bytes32"
        },
        {
          "indexed": false,
          "name": "depositContractAddress",
          "type": "address"
        },
        {
          "indexed": false,
          "name": "version",
          "type": "uint256"
        }
      ],
      "name": "EventNewDepositContract",
      "type": "event"
    },
    {
      "anonymous": false,
      "inputs": [
        {
          "indexed": false,
          "name": "_blockchainActionId",
          "type": "bytes32"
        },
        {
          "indexed": false,
          "name": "erc1155Token",
          "type": "address"
        },
        {
          "indexed": false,
          "name": "amount",
          "type": "uint256"
        },
        {
          "indexed": false,
          "name": "token_id",
          "type": "uint256"
        },
        {
          "indexed": false,
          "name": "accountId",
          "type": "bytes32"
        },
        {
          "indexed": false,
          "name": "pptFee",
          "type": "uint256"
        }
      ],
      "name": "EventWithdrawXAUp",
      "type": "event"
    },
    {
      "constant": false,
      "inputs": [
        {
          "name": "_dataManager",
          "type": "address"
        },
        {
          "name": "_blockchainActionId",
          "type": "bytes32"
        },
        {
          "name": "erc20_tokenAddress",
          "type": "address"
        },
        {
          "name": "erc20_amount",
          "type": "uint256"
        },
        {
          "name": "xaup_amount",
          "type": "uint256"
        },
        {
          "name": "_tokenId",
          "type": "uint256"
        },
        {
          "name": "_clientId",
          "type": "bytes32"
        },
        {
          "name": "adminExternalWallet",
          "type": "address"
        }
      ],
      "name": "exchangeXAUP",
      "outputs": [],
      "payable": false,
      "stateMutability": "nonpayable",
      "type": "function"
    },
    {
      "constant": false,
      "inputs": [
        {
          "name": "_dataManager",
          "type": "address"
        },
        {
          "name": "_blockchainActionId",
          "type": "bytes32"
        },
        {
          "name": "clientId",
          "type": "bytes32"
        }
      ],
      "name": "createAddress",
      "outputs": [],
      "payable": false,
      "stateMutability": "nonpayable",
      "type": "function"
    },
    {
      "constant": false,
      "inputs": [
        {
          "name": "_dataManager",
          "type": "address"
        },
        {
          "name": "_blockchainActionId",
          "type": "bytes32"
        },
        {
          "name": "currency",
          "type": "bytes32"
        },
        {
          "name": "amount",
          "type": "uint256"
        },
        {
          "name": "amountUSD",
          "type": "uint256"
        },
        {
          "name": "from",
          "type": "address"
        },
        {
          "name": "to",
          "type": "address"
        },
        {
          "name": "accountId",
          "type": "bytes32"
        },
        {
          "name": "inCollateral",
          "type": "uint256"
        },
        {
          "name": "pptFee",
          "type": "uint256"
        },
        {
          "name": "adminExternalWallet",
          "type": "address"
        }
      ],
      "name": "withdrawPoken",
      "outputs": [],
      "payable": false,
      "stateMutability": "nonpayable",
      "type": "function"
    },
    {
      "constant": false,
      "inputs": [
        {
          "name": "_dataManager",
          "type": "address"
        },
        {
          "name": "_blockchainActionId",
          "type": "bytes32"
        },
        {
          "name": "pptAddress",
          "type": "address"
        },
        {
          "name": "accountId",
          "type": "bytes32"
        },
        {
          "name": "to",
          "type": "address"
        },
        {
          "name": "amount",
          "type": "uint256"
        },
        {
          "name": "inCollateral",
          "type": "uint256"
        },
        {
          "name": "pptFee",
          "type": "uint256"
        },
        {
          "name": "adminExternalWallet",
          "type": "address"
        }
      ],
      "name": "withdrawERC20",
      "outputs": [],
      "payable": false,
      "stateMutability": "nonpayable",
      "type": "function"
    }
  ],
  "bytecode": "0x608060405234801561001057600080fd5b506040516020806160e98339810180604052810190808051906020019092919050505080806000806101000a81548173ffffffffffffffffffffffffffffffffffffffff021916908373ffffffffffffffffffffffffffffffffffffffff1602179055505073c14830e53aa344e8c14603a91229a0b925b0b262600160006250585478010000000000000000000000000000000000000000000000000277ffffffffffffffffffffffffffffffffffffffffffffffff1916815260200190815260200160002060000160006101000a81548173ffffffffffffffffffffffffffffffffffffffff021916908373ffffffffffffffffffffffffffffffffffffffff1602179055506008600160006250585478010000000000000000000000000000000000000000000000000277ffffffffffffffffffffffffffffffffffffffffffffffff191681526020019081526020016000206001018190555073a0b86991c6218b36c1d19d4a2e9eb0ce3606eb4860016000635553444378010000000000000000000000000000000000000000000000000277ffffffffffffffffffffffffffffffffffffffffffffffff1916815260200190815260200160002060000160006101000a81548173ffffffffffffffffffffffffffffffffffffffff021916908373ffffffffffffffffffffffffffffffffffffffff160217905550600660016000635553444378010000000000000000000000000000000000000000000000000277ffffffffffffffffffffffffffffffffffffffffffffffff1916815260200190815260200160002060010181905550738dd5fbce2f6a956c3022ba3663759011dd51e73e60016000635455534478010000000000000000000000000000000000000000000000000277ffffffffffffffffffffffffffffffffffffffffffffffff1916815260200190815260200160002060000160006101000a81548173ffffffffffffffffffffffffffffffffffffffff021916908373ffffffffffffffffffffffffffffffffffffffff160217905550601260016000635455534478010000000000000000000000000000000000000000000000000277ffffffffffffffffffffffffffffffffffffffffffffffff191681526020019081526020016000206001018190555073d4fa1460f537bb9085d22c7bccb5dd450ef28e3a600160006250505478010000000000000000000000000000000000000000000000000277ffffffffffffffffffffffffffffffffffffffffffffffff1916815260200190815260200160002060000160006101000a81548173ffffffffffffffffffffffffffffffffffffffff021916908373ffffffffffffffffffffffffffffffffffffffff1602179055506008600160006250505478010000000000000000000000000000000000000000000000000277ffffffffffffffffffffffffffffffffffffffffffffffff19168152602001908152602001600020600101819055507373a3b7dffe9af119621f8467d8609771ab4bc33f600160006258415578010000000000000000000000000000000000000000000000000277ffffffffffffffffffffffffffffffffffffffffffffffff1916815260200190815260200160002060000160006101000a81548173ffffffffffffffffffffffffffffffffffffffff021916908373ffffffffffffffffffffffffffffffffffffffff1602179055506000600160006258415578010000000000000000000000000000000000000000000000000277ffffffffffffffffffffffffffffffffffffffffffffffff191681526020019081526020016000206001018190555050615b8d8061055c6000396000f300608060405260043610610083576000357c0100000000000000000000000000000000000000000000000000000000900463ffffffff16806302ab72c4146100885780633da4138c146100cb57806342c1ada9146101a85780635904243e1461029d578063878f666b1461035a578063a78caf19146103e9578063f7f01b4b14610448575b600080fd5b34801561009457600080fd5b506100c9600480360381019080803573ffffffffffffffffffffffffffffffffffffffff16906020019092919050505061049f565b005b3480156100d757600080fd5b506101a6600480360381019080803573ffffffffffffffffffffffffffffffffffffffff1690602001909291908035600019169060200190929190803573ffffffffffffffffffffffffffffffffffffffff1690602001909291908035600019169060200190929190803573ffffffffffffffffffffffffffffffffffffffff169060200190929190803590602001909291908035906020019092919080359060200190929190803573ffffffffffffffffffffffffffffffffffffffff1690602001909291905050506105eb565b005b3480156101b457600080fd5b5061029b600480360381019080803573ffffffffffffffffffffffffffffffffffffffff169060200190929190803560001916906020019092919080356000191690602001909291908035906020019092919080359060200190929190803573ffffffffffffffffffffffffffffffffffffffff169060200190929190803573ffffffffffffffffffffffffffffffffffffffff16906020019092919080356000191690602001909291908035906020019092919080359060200190929190803573ffffffffffffffffffffffffffffffffffffffff1690602001909291905050506112a1565b005b3480156102a957600080fd5b50610358600480360381019080803573ffffffffffffffffffffffffffffffffffffffff1690602001909291908035600019169060200190929190803573ffffffffffffffffffffffffffffffffffffffff1690602001909291908035906020019092919080359060200190929190803590602001909291908035600019169060200190929190803573ffffffffffffffffffffffffffffffffffffffff169060200190929190505050612571565b005b34801561036657600080fd5b506103a0600480360381019080803577ffffffffffffffffffffffffffffffffffffffffffffffff19169060200190929190505050612e97565b604051808373ffffffffffffffffffffffffffffffffffffffff1673ffffffffffffffffffffffffffffffffffffffff1681526020018281526020019250505060405180910390f35b3480156103f557600080fd5b50610446600480360381019080803573ffffffffffffffffffffffffffffffffffffffff16906020019092919080356000191690602001909291908035600019169060200190929190505050612edb565b005b34801561045457600080fd5b5061045d6141e1565b604051808273ffffffffffffffffffffffffffffffffffffffff1673ffffffffffffffffffffffffffffffffffffffff16815260200191505060405180910390f35b600115156000809054906101000a900473ffffffffffffffffffffffffffffffffffffffff1673ffffffffffffffffffffffffffffffffffffffff1663fda08958336040518263ffffffff167c0100000000000000000000000000000000000000000000000000000000028152600401808273ffffffffffffffffffffffffffffffffffffffff1673ffffffffffffffffffffffffffffffffffffffff168152602001915050602060405180830381600087803b15801561055f57600080fd5b505af1158015610573573d6000803e3d6000fd5b505050506040513d602081101561058957600080fd5b810190808051906020019092919050505015151415156105a857600080fd5b806000806101000a81548173ffffffffffffffffffffffffffffffffffffffff021916908373ffffffffffffffffffffffffffffffffffffffff16021790555050565b600080600080600115156000809054906101000a900473ffffffffffffffffffffffffffffffffffffffff1673ffffffffffffffffffffffffffffffffffffffff1663fda08958336040518263ffffffff167c0100000000000000000000000000000000000000000000000000000000028152600401808273ffffffffffffffffffffffffffffffffffffffff1673ffffffffffffffffffffffffffffffffffffffff168152602001915050602060405180830381600087803b1580156106b157600080fd5b505af11580156106c5573d6000803e3d6000fd5b505050506040513d60208110156106db57600080fd5b810190808051906020019092919050505015151415156106fa57600080fd5b60008d73ffffffffffffffffffffffffffffffffffffffff161415151561072057600080fd5b600015158d73ffffffffffffffffffffffffffffffffffffffff1663bea0897c8e6040518263ffffffff167c0100000000000000000000000000000000000000000000000000000000028152600401808260001916600019168152602001915050602060405180830381600087803b15801561079b57600080fd5b505af11580156107af573d6000803e3d6000fd5b505050506040513d60208110156107c557600080fd5b810190808051906020019092919050505015151480156108ad575060008d73ffffffffffffffffffffffffffffffffffffffff16632a01a4518c6040518263ffffffff167c0100000000000000000000000000000000000000000000000000000000028152600401808260001916600019168152602001915050602060405180830381600087803b15801561085957600080fd5b505af115801561086d573d6000803e3d6000fd5b505050506040513d602081101561088357600080fd5b810190808051906020019092919050505073ffffffffffffffffffffffffffffffffffffffff1614155b15156108b857600080fd5b60008573ffffffffffffffffffffffffffffffffffffffff16141580156108df5750600086115b80156108eb5750600088115b15156108f657600080fd5b8c73ffffffffffffffffffffffffffffffffffffffff16632a01a4518b6040518263ffffffff167c0100000000000000000000000000000000000000000000000000000000028152600401808260001916600019168152602001915050602060405180830381600087803b15801561096d57600080fd5b505af1158015610981573d6000803e3d6000fd5b505050506040513d602081101561099757600080fd5b81019080805190602001909291905050509350600160006250505478010000000000000000000000000000000000000000000000000277ffffffffffffffffffffffffffffffffffffffffffffffff1916815260200190815260200160002060000160009054906101000a900473ffffffffffffffffffffffffffffffffffffffff1673ffffffffffffffffffffffffffffffffffffffff168b73ffffffffffffffffffffffffffffffffffffffff161415610bba57610b9b8473ffffffffffffffffffffffffffffffffffffffff166370a08231600160006250505478010000000000000000000000000000000000000000000000000277ffffffffffffffffffffffffffffffffffffffffffffffff1916815260200190815260200160002060000160009054906101000a900473ffffffffffffffffffffffffffffffffffffffff166040518263ffffffff167c0100000000000000000000000000000000000000000000000000000000028152600401808273ffffffffffffffffffffffffffffffffffffffff1673ffffffffffffffffffffffffffffffffffffffff168152602001915050602060405180830381600087803b158015610b5a57600080fd5b505af1158015610b6e573d6000803e3d6000fd5b505050506040513d6020811015610b8457600080fd5b810190808051906020019092919050505088614206565b9250610ba7888761421f565b8310151515610bb557600080fd5b610ca2565b8373ffffffffffffffffffffffffffffffffffffffff166370a082318c6040518263ffffffff167c0100000000000000000000000000000000000000000000000000000000028152600401808273ffffffffffffffffffffffffffffffffffffffff1673ffffffffffffffffffffffffffffffffffffffff168152602001915050602060405180830381600087803b158015610c5557600080fd5b505af1158015610c69573d6000803e3d6000fd5b505050506040513d6020811015610c7f57600080fd5b81019080805190602001909291905050509150878210151515610ca157600080fd5b5b600115158473ffffffffffffffffffffffffffffffffffffffff1663beabacc8600160006250505478010000000000000000000000000000000000000000000000000277ffffffffffffffffffffffffffffffffffffffffffffffff1916815260200190815260200160002060000160009054906101000a900473ffffffffffffffffffffffffffffffffffffffff16888a6040518463ffffffff167c0100000000000000000000000000000000000000000000000000000000028152600401808473ffffffffffffffffffffffffffffffffffffffff1673ffffffffffffffffffffffffffffffffffffffff1681526020018373ffffffffffffffffffffffffffffffffffffffff1673ffffffffffffffffffffffffffffffffffffffff1681526020018281526020019350505050602060405180830381600087803b158015610dec57600080fd5b505af1158015610e00573d6000803e3d6000fd5b505050506040513d6020811015610e1657600080fd5b81019080805190602001909291905050501515141515610e3557600080fd5b600115158473ffffffffffffffffffffffffffffffffffffffff1663beabacc88d8c8c6040518463ffffffff167c0100000000000000000000000000000000000000000000000000000000028152600401808473ffffffffffffffffffffffffffffffffffffffff1673ffffffffffffffffffffffffffffffffffffffff1681526020018373ffffffffffffffffffffffffffffffffffffffff1673ffffffffffffffffffffffffffffffffffffffff1681526020018281526020019350505050602060405180830381600087803b158015610f1057600080fd5b505af1158015610f24573d6000803e3d6000fd5b505050506040513d6020811015610f3a57600080fd5b81019080805190602001909291905050501515141515610f5957600080fd5b8a73ffffffffffffffffffffffffffffffffffffffff166395d89b416040518163ffffffff167c0100000000000000000000000000000000000000000000000000000000028152600401602060405180830381600087803b158015610fbd57600080fd5b505af1158015610fd1573d6000803e3d6000fd5b505050506040513d6020811015610fe757600080fd5b81019080805190602001909291905050509050600115158d73ffffffffffffffffffffffffffffffffffffffff166392c4b8678e848c8f8f8d6040518763ffffffff167c0100000000000000000000000000000000000000000000000000000000028152600401808760001916600019168152602001866000191660001916815260200185815260200184600019166000191681526020018373ffffffffffffffffffffffffffffffffffffffff1673ffffffffffffffffffffffffffffffffffffffff1681526020018281526020019650505050505050602060405180830381600087803b1580156110d957600080fd5b505af11580156110ed573d6000803e3d6000fd5b505050506040513d602081101561110357600080fd5b8101908080519060200190929190505050151514151561112257600080fd5b7fb34e83f654f4c047e331cea47cc1783dd0511abde3cac240a47bfbdefd6812e88c8b8f73ffffffffffffffffffffffffffffffffffffffff16632a01a4518e6040518263ffffffff167c0100000000000000000000000000000000000000000000000000000000028152600401808260001916600019168152602001915050602060405180830381600087803b1580156111bc57600080fd5b505af11580156111d0573d6000803e3d6000fd5b505050506040513d60208110156111e657600080fd5b81019080805190602001909291905050508c8c60405180866000191660001916815260200185600019166000191681526020018473ffffffffffffffffffffffffffffffffffffffff1673ffffffffffffffffffffffffffffffffffffffff1681526020018373ffffffffffffffffffffffffffffffffffffffff1673ffffffffffffffffffffffffffffffffffffffff1681526020018281526020019550505050505060405180910390a150505050505050505050505050565b6000600115156000809054906101000a900473ffffffffffffffffffffffffffffffffffffffff1673ffffffffffffffffffffffffffffffffffffffff1663fda08958336040518263ffffffff167c0100000000000000000000000000000000000000000000000000000000028152600401808273ffffffffffffffffffffffffffffffffffffffff1673ffffffffffffffffffffffffffffffffffffffff168152602001915050602060405180830381600087803b15801561136357600080fd5b505af1158015611377573d6000803e3d6000fd5b505050506040513d602081101561138d57600080fd5b810190808051906020019092919050505015151415156113ac57600080fd5b60008c73ffffffffffffffffffffffffffffffffffffffff16141515156113d257600080fd5b600015158c73ffffffffffffffffffffffffffffffffffffffff1663bea0897c8d6040518263ffffffff167c0100000000000000000000000000000000000000000000000000000000028152600401808260001916600019168152602001915050602060405180830381600087803b15801561144d57600080fd5b505af1158015611461573d6000803e3d6000fd5b505050506040513d602081101561147757600080fd5b8101908080519060200190929190505050151514801561155f575060008c73ffffffffffffffffffffffffffffffffffffffff16632a01a451876040518263ffffffff167c0100000000000000000000000000000000000000000000000000000000028152600401808260001916600019168152602001915050602060405180830381600087803b15801561150b57600080fd5b505af115801561151f573d6000803e3d6000fd5b505050506040513d602081101561153557600080fd5b810190808051906020019092919050505073ffffffffffffffffffffffffffffffffffffffff1614155b151561156a57600080fd5b60008273ffffffffffffffffffffffffffffffffffffffff16141580156115915750600083115b801561159d5750600089115b15156115a857600080fd5b60008c73ffffffffffffffffffffffffffffffffffffffff1663d383b80d8c6040518263ffffffff167c0100000000000000000000000000000000000000000000000000000000028152600401808260001916600019168152602001915050602060405180830381600087803b15801561162157600080fd5b505af1158015611635573d6000803e3d6000fd5b505050506040513d602081101561164b57600080fd5b810190808051906020019092919050505073ffffffffffffffffffffffffffffffffffffffff161415151561167f57600080fd5b8b73ffffffffffffffffffffffffffffffffffffffff16632a01a451866040518263ffffffff167c0100000000000000000000000000000000000000000000000000000000028152600401808260001916600019168152602001915050602060405180830381600087803b1580156116f657600080fd5b505af115801561170a573d6000803e3d6000fd5b505050506040513d602081101561172057600080fd5b81019080805190602001909291905050509050826118828273ffffffffffffffffffffffffffffffffffffffff166370a08231600160006250505478010000000000000000000000000000000000000000000000000277ffffffffffffffffffffffffffffffffffffffffffffffff1916815260200190815260200160002060000160009054906101000a900473ffffffffffffffffffffffffffffffffffffffff166040518263ffffffff167c0100000000000000000000000000000000000000000000000000000000028152600401808273ffffffffffffffffffffffffffffffffffffffff1673ffffffffffffffffffffffffffffffffffffffff168152602001915050602060405180830381600087803b15801561184157600080fd5b505af1158015611855573d6000803e3d6000fd5b505050506040513d602081101561186b57600080fd5b810190808051906020019092919050505086614206565b1015151561188f57600080fd5b600115158173ffffffffffffffffffffffffffffffffffffffff1663beabacc8600160006250505478010000000000000000000000000000000000000000000000000277ffffffffffffffffffffffffffffffffffffffffffffffff1916815260200190815260200160002060000160009054906101000a900473ffffffffffffffffffffffffffffffffffffffff1685876040518463ffffffff167c0100000000000000000000000000000000000000000000000000000000028152600401808473ffffffffffffffffffffffffffffffffffffffff1673ffffffffffffffffffffffffffffffffffffffff1681526020018373ffffffffffffffffffffffffffffffffffffffff1673ffffffffffffffffffffffffffffffffffffffff1681526020018281526020019350505050602060405180830381600087803b1580156119d957600080fd5b505af11580156119ed573d6000803e3d6000fd5b505050506040513d6020811015611a0357600080fd5b81019080805190602001909291905050501515141515611a2257600080fd5b8b73ffffffffffffffffffffffffffffffffffffffff1663d383b80d8b6040518263ffffffff167c0100000000000000000000000000000000000000000000000000000000028152600401808260001916600019168152602001915050602060405180830381600087803b158015611a9957600080fd5b505af1158015611aad573d6000803e3d6000fd5b505050506040513d6020811015611ac357600080fd5b810190808051906020019092919050505073ffffffffffffffffffffffffffffffffffffffff166370a08231886040518263ffffffff167c0100000000000000000000000000000000000000000000000000000000028152600401808273ffffffffffffffffffffffffffffffffffffffff1673ffffffffffffffffffffffffffffffffffffffff168152602001915050602060405180830381600087803b158015611b6e57600080fd5b505af1158015611b82573d6000803e3d6000fd5b505050506040513d6020811015611b9857600080fd5b8101908080519060200190929190505050891115611edc57600115158c73ffffffffffffffffffffffffffffffffffffffff1663d383b80d8c6040518263ffffffff167c0100000000000000000000000000000000000000000000000000000000028152600401808260001916600019168152602001915050602060405180830381600087803b158015611c2b57600080fd5b505af1158015611c3f573d6000803e3d6000fd5b505050506040513d6020811015611c5557600080fd5b810190808051906020019092919050505073ffffffffffffffffffffffffffffffffffffffff16630156b3238e73ffffffffffffffffffffffffffffffffffffffff1663d383b80d8e6040518263ffffffff167c0100000000000000000000000000000000000000000000000000000000028152600401808260001916600019168152602001915050602060405180830381600087803b158015611cf857600080fd5b505af1158015611d0c573d6000803e3d6000fd5b505050506040513d6020811015611d2257600080fd5b810190808051906020019092919050505073ffffffffffffffffffffffffffffffffffffffff166370a082318b6040518263ffffffff167c0100000000000000000000000000000000000000000000000000000000028152600401808273ffffffffffffffffffffffffffffffffffffffff1673ffffffffffffffffffffffffffffffffffffffff168152602001915050602060405180830381600087803b158015611dcd57600080fd5b505af1158015611de1573d6000803e3d6000fd5b505050506040513d6020811015611df757600080fd5b81019080805190602001909291905050508a6040518363ffffffff167c0100000000000000000000000000000000000000000000000000000000028152600401808381526020018273ffffffffffffffffffffffffffffffffffffffff1673ffffffffffffffffffffffffffffffffffffffff16815260200192505050602060405180830381600087803b158015611e8e57600080fd5b505af1158015611ea2573d6000803e3d6000fd5b505050506040513d6020811015611eb857600080fd5b81019080805190602001909291905050501515141515611ed757600080fd5b61207e565b600115158c73ffffffffffffffffffffffffffffffffffffffff1663d383b80d8c6040518263ffffffff167c0100000000000000000000000000000000000000000000000000000000028152600401808260001916600019168152602001915050602060405180830381600087803b158015611f5757600080fd5b505af1158015611f6b573d6000803e3d6000fd5b505050506040513d6020811015611f8157600080fd5b810190808051906020019092919050505073ffffffffffffffffffffffffffffffffffffffff16630156b3238b8a6040518363ffffffff167c0100000000000000000000000000000000000000000000000000000000028152600401808381526020018273ffffffffffffffffffffffffffffffffffffffff1673ffffffffffffffffffffffffffffffffffffffff16815260200192505050602060405180830381600087803b15801561203457600080fd5b505af1158015612048573d6000803e3d6000fd5b505050506040513d602081101561205e57600080fd5b8101908080519060200190929190505050151514151561207d57600080fd5b5b600088111561220f5760016000635553444378010000000000000000000000000000000000000000000000000277ffffffffffffffffffffffffffffffffffffffffffffffff1916815260200190815260200160002060000160009054906101000a900473ffffffffffffffffffffffffffffffffffffffff1673ffffffffffffffffffffffffffffffffffffffff166323b872dd33888b6040518463ffffffff167c0100000000000000000000000000000000000000000000000000000000028152600401808473ffffffffffffffffffffffffffffffffffffffff1673ffffffffffffffffffffffffffffffffffffffff1681526020018373ffffffffffffffffffffffffffffffffffffffff1673ffffffffffffffffffffffffffffffffffffffff1681526020018281526020019350505050602060405180830381600087803b1580156121ce57600080fd5b505af11580156121e2573d6000803e3d6000fd5b505050506040513d60208110156121f857600080fd5b8101908080519060200190929190505050506123d4565b8b73ffffffffffffffffffffffffffffffffffffffff1663d383b80d8b6040518263ffffffff167c0100000000000000000000000000000000000000000000000000000000028152600401808260001916600019168152602001915050602060405180830381600087803b15801561228657600080fd5b505af115801561229a573d6000803e3d6000fd5b505050506040513d60208110156122b057600080fd5b810190808051906020019092919050505073ffffffffffffffffffffffffffffffffffffffff166323b872dd33888c6040518463ffffffff167c0100000000000000000000000000000000000000000000000000000000028152600401808473ffffffffffffffffffffffffffffffffffffffff1673ffffffffffffffffffffffffffffffffffffffff1681526020018373ffffffffffffffffffffffffffffffffffffffff1673ffffffffffffffffffffffffffffffffffffffff1681526020018281526020019350505050602060405180830381600087803b15801561239757600080fd5b505af11580156123ab573d6000803e3d6000fd5b505050506040513d60208110156123c157600080fd5b8101908080519060200190929190505050505b600115158c73ffffffffffffffffffffffffffffffffffffffff166392c4b8678d8d8d8a8c8a6040518763ffffffff167c0100000000000000000000000000000000000000000000000000000000028152600401808760001916600019168152602001866000191660001916815260200185815260200184600019166000191681526020018373ffffffffffffffffffffffffffffffffffffffff1673ffffffffffffffffffffffffffffffffffffffff1681526020018281526020019650505050505050602060405180830381600087803b1580156124b357600080fd5b505af11580156124c7573d6000803e3d6000fd5b505050506040513d60208110156124dd57600080fd5b810190808051906020019092919050505015151415156124fc57600080fd5b7f7ad4d17a5e7c561e98e5c4a65c9108011dda4b022882de21c25c530df0054a6c8b868c8c6040518085600019166000191681526020018460001916600019168152602001836000191660001916815260200182815260200194505050505060405180910390a1505050505050505050505050565b600080600115156000809054906101000a900473ffffffffffffffffffffffffffffffffffffffff1673ffffffffffffffffffffffffffffffffffffffff1663fda08958336040518263ffffffff167c0100000000000000000000000000000000000000000000000000000000028152600401808273ffffffffffffffffffffffffffffffffffffffff1673ffffffffffffffffffffffffffffffffffffffff168152602001915050602060405180830381600087803b15801561263457600080fd5b505af1158015612648573d6000803e3d6000fd5b505050506040513d602081101561265e57600080fd5b8101908080519060200190929190505050151514151561267d57600080fd5b600160006258415578010000000000000000000000000000000000000000000000000277ffffffffffffffffffffffffffffffffffffffffffffffff1916815260200190815260200160002060000160009054906101000a900473ffffffffffffffffffffffffffffffffffffffff1691508973ffffffffffffffffffffffffffffffffffffffff16632a01a451856040518263ffffffff167c0100000000000000000000000000000000000000000000000000000000028152600401808260001916600019168152602001915050602060405180830381600087803b15801561276657600080fd5b505af115801561277a573d6000803e3d6000fd5b505050506040513d602081101561279057600080fd5b8101908080519060200190929190505050905060008a73ffffffffffffffffffffffffffffffffffffffff16141580156127e1575060008173ffffffffffffffffffffffffffffffffffffffff1614155b8015612804575060008873ffffffffffffffffffffffffffffffffffffffff1614155b80156128c55750600015158a73ffffffffffffffffffffffffffffffffffffffff1663bea0897c8b6040518263ffffffff167c0100000000000000000000000000000000000000000000000000000000028152600401808260001916600019168152602001915050602060405180830381600087803b15801561288657600080fd5b505af115801561289a573d6000803e3d6000fd5b505050506040513d60208110156128b057600080fd5b81019080805190602001909291905050501515145b8015612970575060028173ffffffffffffffffffffffffffffffffffffffff16630d8e6e2c6040518163ffffffff167c0100000000000000000000000000000000000000000000000000000000028152600401602060405180830381600087803b15801561293257600080fd5b505af1158015612946573d6000803e3d6000fd5b505050506040513d602081101561295c57600080fd5b810190808051906020019092919050505010155b8015612a595750858273ffffffffffffffffffffffffffffffffffffffff16633656eec287336040518363ffffffff167c0100000000000000000000000000000000000000000000000000000000028152600401808381526020018273ffffffffffffffffffffffffffffffffffffffff1673ffffffffffffffffffffffffffffffffffffffff16815260200192505050602060405180830381600087803b158015612a1b57600080fd5b505af1158015612a2f573d6000803e3d6000fd5b505050506040513d6020811015612a4557600080fd5b810190808051906020019092919050505010155b1515612a6457600080fd5b600115158173ffffffffffffffffffffffffffffffffffffffff1663beabacc88a868b6040518463ffffffff167c0100000000000000000000000000000000000000000000000000000000028152600401808473ffffffffffffffffffffffffffffffffffffffff1673ffffffffffffffffffffffffffffffffffffffff1681526020018373ffffffffffffffffffffffffffffffffffffffff1673ffffffffffffffffffffffffffffffffffffffff1681526020018281526020019350505050602060405180830381600087803b158015612b3f57600080fd5b505af1158015612b53573d6000803e3d6000fd5b505050506040513d6020811015612b6957600080fd5b81019080805190602001909291905050501515141515612b8857600080fd5b8173ffffffffffffffffffffffffffffffffffffffff1663f242432a3383888a6040518563ffffffff167c0100000000000000000000000000000000000000000000000000000000028152600401808573ffffffffffffffffffffffffffffffffffffffff1673ffffffffffffffffffffffffffffffffffffffff1681526020018473ffffffffffffffffffffffffffffffffffffffff1673ffffffffffffffffffffffffffffffffffffffff1681526020018381526020018281526020018060200182810382526000815260200160200195505050505050600060405180830381600087803b158015612c7b57600080fd5b505af1158015612c8f573d6000803e3d6000fd5b50505050600115158a73ffffffffffffffffffffffffffffffffffffffff166392c4b8678b60008b898760006040518763ffffffff167c01000000000000000000000000000000000000000000000000000000000281526004018087600019166000191681526020018660010260001916815260200185815260200184600019166000191681526020018373ffffffffffffffffffffffffffffffffffffffff1673ffffffffffffffffffffffffffffffffffffffff1681526020018281526020019650505050505050602060405180830381600087803b158015612d7357600080fd5b505af1158015612d87573d6000803e3d6000fd5b505050506040513d6020811015612d9d57600080fd5b81019080805190602001909291905050501515141515612dbc57600080fd5b7f3a0f94ac6dfce4f3ae7bdb44dc7ca27dfc76d4747283fbbea8cc33c59cc35afe898989898989876040518088600019166000191681526020018773ffffffffffffffffffffffffffffffffffffffff1673ffffffffffffffffffffffffffffffffffffffff16815260200186815260200185815260200184815260200183600019166000191681526020018273ffffffffffffffffffffffffffffffffffffffff1673ffffffffffffffffffffffffffffffffffffffff16815260200197505050505050505060405180910390a150505050505050505050565b60016020528060005260406000206000915090508060000160009054906101000a900473ffffffffffffffffffffffffffffffffffffffff16908060010154905082565b600080600080600115156000809054906101000a900473ffffffffffffffffffffffffffffffffffffffff1673ffffffffffffffffffffffffffffffffffffffff1663fda08958336040518263ffffffff167c0100000000000000000000000000000000000000000000000000000000028152600401808273ffffffffffffffffffffffffffffffffffffffff1673ffffffffffffffffffffffffffffffffffffffff168152602001915050602060405180830381600087803b158015612fa157600080fd5b505af1158015612fb5573d6000803e3d6000fd5b505050506040513d6020811015612fcb57600080fd5b81019080805190602001909291905050501515141515612fea57600080fd5b60008773ffffffffffffffffffffffffffffffffffffffff161415151561301057600080fd5b60008773ffffffffffffffffffffffffffffffffffffffff16632a01a451876040518263ffffffff167c0100000000000000000000000000000000000000000000000000000000028152600401808260001916600019168152602001915050602060405180830381600087803b15801561308957600080fd5b505af115801561309d573d6000803e3d6000fd5b505050506040513d60208110156130b357600080fd5b810190808051906020019092919050505073ffffffffffffffffffffffffffffffffffffffff16141515613c8c578673ffffffffffffffffffffffffffffffffffffffff16632a01a451866040518263ffffffff167c0100000000000000000000000000000000000000000000000000000000028152600401808260001916600019168152602001915050602060405180830381600087803b15801561315857600080fd5b505af115801561316c573d6000803e3d6000fd5b505050506040513d602081101561318257600080fd5b81019080805190602001909291905050509250846000809054906101000a900473ffffffffffffffffffffffffffffffffffffffff166131c0614249565b8083600019166000191681526020018273ffffffffffffffffffffffffffffffffffffffff1673ffffffffffffffffffffffffffffffffffffffff16815260200192505050604051809103906000f080158015613221573d6000803e3d6000fd5b5093508273ffffffffffffffffffffffffffffffffffffffff1660405180807f67657456657273696f6e28290000000000000000000000000000000000000000815250600c01905060405180910390207c010000000000000000000000000000000000000000000000000000000090046040518163ffffffff167c01000000000000000000000000000000000000000000000000000000000281526004016000604051808303816000875af1925050501515156132dd57600080fd5b600160006250585478010000000000000000000000000000000000000000000000000277ffffffffffffffffffffffffffffffffffffffffffffffff1916815260200190815260200160002060000160009054906101000a900473ffffffffffffffffffffffffffffffffffffffff169150600160006250505478010000000000000000000000000000000000000000000000000277ffffffffffffffffffffffffffffffffffffffffffffffff1916815260200190815260200160002060000160009054906101000a900473ffffffffffffffffffffffffffffffffffffffff16905060008373ffffffffffffffffffffffffffffffffffffffff166370a08231846040518263ffffffff167c0100000000000000000000000000000000000000000000000000000000028152600401808273ffffffffffffffffffffffffffffffffffffffff1673ffffffffffffffffffffffffffffffffffffffff168152602001915050602060405180830381600087803b15801561345e57600080fd5b505af1158015613472573d6000803e3d6000fd5b505050506040513d602081101561348857600080fd5b8101908080519060200190929190505050111561369957600115158373ffffffffffffffffffffffffffffffffffffffff1663beabacc884878773ffffffffffffffffffffffffffffffffffffffff166370a08231886040518263ffffffff167c0100000000000000000000000000000000000000000000000000000000028152600401808273ffffffffffffffffffffffffffffffffffffffff1673ffffffffffffffffffffffffffffffffffffffff168152602001915050602060405180830381600087803b15801561355c57600080fd5b505af1158015613570573d6000803e3d6000fd5b505050506040513d602081101561358657600080fd5b81019080805190602001909291905050506040518463ffffffff167c0100000000000000000000000000000000000000000000000000000000028152600401808473ffffffffffffffffffffffffffffffffffffffff1673ffffffffffffffffffffffffffffffffffffffff1681526020018373ffffffffffffffffffffffffffffffffffffffff1673ffffffffffffffffffffffffffffffffffffffff1681526020018281526020019350505050602060405180830381600087803b15801561364f57600080fd5b505af1158015613663573d6000803e3d6000fd5b505050506040513d602081101561367957600080fd5b8101908080519060200190929190505050151514151561369857600080fd5b5b60008373ffffffffffffffffffffffffffffffffffffffff166370a08231836040518263ffffffff167c0100000000000000000000000000000000000000000000000000000000028152600401808273ffffffffffffffffffffffffffffffffffffffff1673ffffffffffffffffffffffffffffffffffffffff168152602001915050602060405180830381600087803b15801561373657600080fd5b505af115801561374a573d6000803e3d6000fd5b505050506040513d602081101561376057600080fd5b8101908080519060200190929190505050111561397157600115158373ffffffffffffffffffffffffffffffffffffffff1663beabacc883878773ffffffffffffffffffffffffffffffffffffffff166370a08231876040518263ffffffff167c0100000000000000000000000000000000000000000000000000000000028152600401808273ffffffffffffffffffffffffffffffffffffffff1673ffffffffffffffffffffffffffffffffffffffff168152602001915050602060405180830381600087803b15801561383457600080fd5b505af1158015613848573d6000803e3d6000fd5b505050506040513d602081101561385e57600080fd5b81019080805190602001909291905050506040518463ffffffff167c0100000000000000000000000000000000000000000000000000000000028152600401808473ffffffffffffffffffffffffffffffffffffffff1673ffffffffffffffffffffffffffffffffffffffff1681526020018373ffffffffffffffffffffffffffffffffffffffff1673ffffffffffffffffffffffffffffffffffffffff1681526020018281526020019350505050602060405180830381600087803b15801561392757600080fd5b505af115801561393b573d6000803e3d6000fd5b505050506040513d602081101561395157600080fd5b8101908080519060200190929190505050151514151561397057600080fd5b5b600115158773ffffffffffffffffffffffffffffffffffffffff1663c9939d0e8888886040518463ffffffff167c010000000000000000000000000000000000000000000000000000000002815260040180846000191660001916815260200183600019166000191681526020018273ffffffffffffffffffffffffffffffffffffffff1673ffffffffffffffffffffffffffffffffffffffff1681526020019350505050602060405180830381600087803b158015613a3057600080fd5b505af1158015613a44573d6000803e3d6000fd5b505050506040513d6020811015613a5a57600080fd5b81019080805190602001909291905050501515141515613a7957600080fd5b7f0456067687d27fcf6d3db141acb08cedd0fa786fdc7d672a7ed802514669b2e086848973ffffffffffffffffffffffffffffffffffffffff16632a01a451896040518263ffffffff167c0100000000000000000000000000000000000000000000000000000000028152600401808260001916600019168152602001915050602060405180830381600087803b158015613b1357600080fd5b505af1158015613b27573d6000803e3d6000fd5b505050506040513d6020811015613b3d57600080fd5b8101908080519060200190929190505050888873ffffffffffffffffffffffffffffffffffffffff16630d8e6e2c6040518163ffffffff167c0100000000000000000000000000000000000000000000000000000000028152600401602060405180830381600087803b158015613bb357600080fd5b505af1158015613bc7573d6000803e3d6000fd5b505050506040513d6020811015613bdd57600080fd5b81019080805190602001909291905050506040518086600019166000191681526020018573ffffffffffffffffffffffffffffffffffffffff1673ffffffffffffffffffffffffffffffffffffffff1681526020018473ffffffffffffffffffffffffffffffffffffffff1673ffffffffffffffffffffffffffffffffffffffff16815260200183600019166000191681526020018281526020019550505050505060405180910390a16141d8565b846000809054906101000a900473ffffffffffffffffffffffffffffffffffffffff16613cb7614249565b8083600019166000191681526020018273ffffffffffffffffffffffffffffffffffffffff1673ffffffffffffffffffffffffffffffffffffffff16815260200192505050604051809103906000f080158015613d18573d6000803e3d6000fd5b509350600115158773ffffffffffffffffffffffffffffffffffffffff16630e8ba1678887896040518463ffffffff167c01000000000000000000000000000000000000000000000000000000000281526004018084600019166000191681526020018373ffffffffffffffffffffffffffffffffffffffff1673ffffffffffffffffffffffffffffffffffffffff16815260200182600019166000191681526020019350505050602060405180830381600087803b158015613dda57600080fd5b505af1158015613dee573d6000803e3d6000fd5b505050506040513d6020811015613e0457600080fd5b81019080805190602001909291905050501515141515613e2357600080fd5b600115158773ffffffffffffffffffffffffffffffffffffffff166392c4b867886000808a8d73ffffffffffffffffffffffffffffffffffffffff16632a01a4518d6040518263ffffffff167c0100000000000000000000000000000000000000000000000000000000028152600401808260001916600019168152602001915050602060405180830381600087803b158015613ebf57600080fd5b505af1158015613ed3573d6000803e3d6000fd5b505050506040513d6020811015613ee957600080fd5b810190808051906020019092919050505060006040518763ffffffff167c01000000000000000000000000000000000000000000000000000000000281526004018087600019166000191681526020018660010260001916815260200185815260200184600019166000191681526020018373ffffffffffffffffffffffffffffffffffffffff1673ffffffffffffffffffffffffffffffffffffffff1681526020018281526020019650505050505050602060405180830381600087803b158015613fb457600080fd5b505af1158015613fc8573d6000803e3d6000fd5b505050506040513d6020811015613fde57600080fd5b81019080805190602001909291905050501515141515613ffd57600080fd5b7f0fb3e865b3e3996382296fd8ddd17b0bb8ae5d9866b08a51945a2e58cac3073086868973ffffffffffffffffffffffffffffffffffffffff16632a01a451896040518263ffffffff167c0100000000000000000000000000000000000000000000000000000000028152600401808260001916600019168152602001915050602060405180830381600087803b15801561409757600080fd5b505af11580156140ab573d6000803e3d6000fd5b505050506040513d60208110156140c157600080fd5b81019080805190602001909291905050508773ffffffffffffffffffffffffffffffffffffffff16630d8e6e2c6040518163ffffffff167c0100000000000000000000000000000000000000000000000000000000028152600401602060405180830381600087803b15801561413657600080fd5b505af115801561414a573d6000803e3d6000fd5b505050506040513d602081101561416057600080fd5b810190808051906020019092919050505060405180856000191660001916815260200184600019166000191681526020018373ffffffffffffffffffffffffffffffffffffffff1673ffffffffffffffffffffffffffffffffffffffff16815260200182815260200194505050505060405180910390a15b50505050505050565b6000809054906101000a900473ffffffffffffffffffffffffffffffffffffffff1681565b600082821115151561421457fe5b818303905092915050565b60008082840190508381101580156142375750828110155b151561423f57fe5b8091505092915050565b6040516119088061425a83390190560060806040526002805534801561001457600080fd5b50604051604080611908833981018060405281019080805190602001909291908051906020019092919050505080806000806101000a81548173ffffffffffffffffffffffffffffffffffffffff021916908373ffffffffffffffffffffffffffffffffffffffff16021790555050816001816000191690555050506118698061009f6000396000f3006080604052600436106100db576000357c0100000000000000000000000000000000000000000000000000000000900463ffffffff16806302ab72c4146100e057806305b1137b146101235780630a7e880c146101885780630d8e6e2c14610217578063150b7a02146102425780631aca637614610347578063418ae269146103cc578063468f26221461042d578063527fe4131461048457806354fd4d50146104b75780636bb3471a146104e257806370a0823114610515578063beabacc81461056c578063f23a6e61146105f1578063f7f01b4b14610700575b600080fd5b3480156100ec57600080fd5b50610121600480360381019080803573ffffffffffffffffffffffffffffffffffffffff169060200190929190505050610757565b005b34801561012f57600080fd5b5061016e600480360381019080803573ffffffffffffffffffffffffffffffffffffffff169060200190929190803590602001909291905050506108a3565b604051808215151515815260200191505060405180910390f35b34801561019457600080fd5b506101fd600480360381019080803573ffffffffffffffffffffffffffffffffffffffff169060200190929190803573ffffffffffffffffffffffffffffffffffffffff1690602001909291908035906020019092919080359060200190929190505050610b95565b604051808215151515815260200191505060405180910390f35b34801561022357600080fd5b5061022c610e88565b6040518082815260200191505060405180910390f35b34801561024e57600080fd5b506102f3600480360381019080803573ffffffffffffffffffffffffffffffffffffffff169060200190929190803573ffffffffffffffffffffffffffffffffffffffff16906020019092919080359060200190929190803590602001908201803590602001908080601f0160208091040260200160405190810160405280939291908181526020018383808284378201915050505050509192919290505050610e92565b60405180827bffffffffffffffffffffffffffffffffffffffffffffffffffffffff19167bffffffffffffffffffffffffffffffffffffffffffffffffffffffff1916815260200191505060405180910390f35b34801561035357600080fd5b506103b2600480360381019080803573ffffffffffffffffffffffffffffffffffffffff169060200190929190803573ffffffffffffffffffffffffffffffffffffffff16906020019092919080359060200190929190505050610ec2565b604051808215151515815260200191505060405180910390f35b3480156103d857600080fd5b50610417600480360381019080803573ffffffffffffffffffffffffffffffffffffffff169060200190929190803590602001909291905050506111e0565b6040518082815260200191505060405180910390f35b34801561043957600080fd5b5061046e600480360381019080803573ffffffffffffffffffffffffffffffffffffffff1690602001909291905050506112c8565b6040518082815260200191505060405180910390f35b34801561049057600080fd5b506104996113a7565b60405180826000191660001916815260200191505060405180910390f35b3480156104c357600080fd5b506104cc6113b1565b6040518082815260200191505060405180910390f35b3480156104ee57600080fd5b506104f76113b7565b60405180826000191660001916815260200191505060405180910390f35b34801561052157600080fd5b50610556600480360381019080803573ffffffffffffffffffffffffffffffffffffffff1690602001909291905050506113bd565b6040518082815260200191505060405180910390f35b34801561057857600080fd5b506105d7600480360381019080803573ffffffffffffffffffffffffffffffffffffffff169060200190929190803573ffffffffffffffffffffffffffffffffffffffff169060200190929190803590602001909291905050506114f0565b604051808215151515815260200191505060405180910390f35b3480156105fd57600080fd5b506106ac600480360381019080803573ffffffffffffffffffffffffffffffffffffffff169060200190929190803573ffffffffffffffffffffffffffffffffffffffff1690602001909291908035906020019092919080359060200190929190803590602001908201803590602001908080601f01602080910402602001604051908101604052809392919081815260200183838082843782019150505050505091929192905050506117e7565b60405180827bffffffffffffffffffffffffffffffffffffffffffffffffffffffff19167bffffffffffffffffffffffffffffffffffffffffffffffffffffffff1916815260200191505060405180910390f35b34801561070c57600080fd5b50610715611818565b604051808273ffffffffffffffffffffffffffffffffffffffff1673ffffffffffffffffffffffffffffffffffffffff16815260200191505060405180910390f35b600115156000809054906101000a900473ffffffffffffffffffffffffffffffffffffffff1673ffffffffffffffffffffffffffffffffffffffff1663fda08958336040518263ffffffff167c0100000000000000000000000000000000000000000000000000000000028152600401808273ffffffffffffffffffffffffffffffffffffffff1673ffffffffffffffffffffffffffffffffffffffff168152602001915050602060405180830381600087803b15801561081757600080fd5b505af115801561082b573d6000803e3d6000fd5b505050506040513d602081101561084157600080fd5b8101908080519060200190929190505050151514151561086057600080fd5b806000806101000a81548173ffffffffffffffffffffffffffffffffffffffff021916908373ffffffffffffffffffffffffffffffffffffffff16021790555050565b6000600115156000809054906101000a900473ffffffffffffffffffffffffffffffffffffffff1673ffffffffffffffffffffffffffffffffffffffff1663fda08958336040518263ffffffff167c0100000000000000000000000000000000000000000000000000000000028152600401808273ffffffffffffffffffffffffffffffffffffffff1673ffffffffffffffffffffffffffffffffffffffff168152602001915050602060405180830381600087803b15801561096557600080fd5b505af1158015610979573d6000803e3d6000fd5b505050506040513d602081101561098f57600080fd5b810190808051906020019092919050505015151480610aa85750600115156000809054906101000a900473ffffffffffffffffffffffffffffffffffffffff1673ffffffffffffffffffffffffffffffffffffffff166305fd22d0336040518263ffffffff167c0100000000000000000000000000000000000000000000000000000000028152600401808273ffffffffffffffffffffffffffffffffffffffff1673ffffffffffffffffffffffffffffffffffffffff168152602001915050602060405180830381600087803b158015610a6957600080fd5b505af1158015610a7d573d6000803e3d6000fd5b505050506040513d6020811015610a9357600080fd5b81019080805190602001909291905050501515145b1515610ab357600080fd5b813073ffffffffffffffffffffffffffffffffffffffff163110151515610ad957600080fd5b600115158373ffffffffffffffffffffffffffffffffffffffff166108fc849081150290604051600060405180830381858888f193505050501515141515610b2057600080fd5b7f1853ca9dc0208799379313b2b43364e45db022f073c72648fbc206dc0bacbcdc8383604051808373ffffffffffffffffffffffffffffffffffffffff1673ffffffffffffffffffffffffffffffffffffffff1681526020018281526020019250505060405180910390a16001905092915050565b6000600115156000809054906101000a900473ffffffffffffffffffffffffffffffffffffffff1673ffffffffffffffffffffffffffffffffffffffff1663fda08958336040518263ffffffff167c0100000000000000000000000000000000000000000000000000000000028152600401808273ffffffffffffffffffffffffffffffffffffffff1673ffffffffffffffffffffffffffffffffffffffff168152602001915050602060405180830381600087803b158015610c5757600080fd5b505af1158015610c6b573d6000803e3d6000fd5b505050506040513d6020811015610c8157600080fd5b810190808051906020019092919050505015151480610d9a5750600115156000809054906101000a900473ffffffffffffffffffffffffffffffffffffffff1673ffffffffffffffffffffffffffffffffffffffff166305fd22d0336040518263ffffffff167c0100000000000000000000000000000000000000000000000000000000028152600401808273ffffffffffffffffffffffffffffffffffffffff1673ffffffffffffffffffffffffffffffffffffffff168152602001915050602060405180830381600087803b158015610d5b57600080fd5b505af1158015610d6f573d6000803e3d6000fd5b505050506040513d6020811015610d8557600080fd5b81019080805190602001909291905050501515145b1515610da557600080fd5b8473ffffffffffffffffffffffffffffffffffffffff1663ae28b68c8585856040518463ffffffff167c0100000000000000000000000000000000000000000000000000000000028152600401808473ffffffffffffffffffffffffffffffffffffffff1673ffffffffffffffffffffffffffffffffffffffff16815260200183815260200182815260200180602001828103825260008152602001602001945050505050600060405180830381600087803b158015610e6457600080fd5b505af1158015610e78573d6000803e3d6000fd5b5050505060019050949350505050565b6000600254905090565b600063150b7a027c0100000000000000000000000000000000000000000000000000000000029050949350505050565b6000600115156000809054906101000a900473ffffffffffffffffffffffffffffffffffffffff1673ffffffffffffffffffffffffffffffffffffffff1663fda08958336040518263ffffffff167c0100000000000000000000000000000000000000000000000000000000028152600401808273ffffffffffffffffffffffffffffffffffffffff1673ffffffffffffffffffffffffffffffffffffffff168152602001915050602060405180830381600087803b158015610f8457600080fd5b505af1158015610f98573d6000803e3d6000fd5b505050506040513d6020811015610fae57600080fd5b8101908080519060200190929190505050151514806110c75750600115156000809054906101000a900473ffffffffffffffffffffffffffffffffffffffff1673ffffffffffffffffffffffffffffffffffffffff166305fd22d0336040518263ffffffff167c0100000000000000000000000000000000000000000000000000000000028152600401808273ffffffffffffffffffffffffffffffffffffffff1673ffffffffffffffffffffffffffffffffffffffff168152602001915050602060405180830381600087803b15801561108857600080fd5b505af115801561109c573d6000803e3d6000fd5b505050506040513d60208110156110b257600080fd5b81019080805190602001909291905050501515145b15156110d257600080fd5b8373ffffffffffffffffffffffffffffffffffffffff1663b88d4fde3085856040518463ffffffff167c0100000000000000000000000000000000000000000000000000000000028152600401808473ffffffffffffffffffffffffffffffffffffffff1673ffffffffffffffffffffffffffffffffffffffff1681526020018373ffffffffffffffffffffffffffffffffffffffff1673ffffffffffffffffffffffffffffffffffffffff16815260200182815260200180602001828103825260008152602001602001945050505050600060405180830381600087803b1580156111bd57600080fd5b505af11580156111d1573d6000803e3d6000fd5b50505050600190509392505050565b60008273ffffffffffffffffffffffffffffffffffffffff16633656eec283306040518363ffffffff167c0100000000000000000000000000000000000000000000000000000000028152600401808381526020018273ffffffffffffffffffffffffffffffffffffffff1673ffffffffffffffffffffffffffffffffffffffff16815260200192505050602060405180830381600087803b15801561128557600080fd5b505af1158015611299573d6000803e3d6000fd5b505050506040513d60208110156112af57600080fd5b8101908080519060200190929190505050905092915050565b60008173ffffffffffffffffffffffffffffffffffffffff166370a08231306040518263ffffffff167c0100000000000000000000000000000000000000000000000000000000028152600401808273ffffffffffffffffffffffffffffffffffffffff1673ffffffffffffffffffffffffffffffffffffffff168152602001915050602060405180830381600087803b15801561136557600080fd5b505af1158015611379573d6000803e3d6000fd5b505050506040513d602081101561138f57600080fd5b81019080805190602001909291905050509050919050565b6000600154905090565b60025481565b60015481565b60008073ffffffffffffffffffffffffffffffffffffffff168273ffffffffffffffffffffffffffffffffffffffff161415611412573073ffffffffffffffffffffffffffffffffffffffff163190506114eb565b8173ffffffffffffffffffffffffffffffffffffffff166370a08231306040518263ffffffff167c0100000000000000000000000000000000000000000000000000000000028152600401808273ffffffffffffffffffffffffffffffffffffffff1673ffffffffffffffffffffffffffffffffffffffff168152602001915050602060405180830381600087803b1580156114ad57600080fd5b505af11580156114c1573d6000803e3d6000fd5b505050506040513d60208110156114d757600080fd5b810190808051906020019092919050505090505b919050565b6000600115156000809054906101000a900473ffffffffffffffffffffffffffffffffffffffff1673ffffffffffffffffffffffffffffffffffffffff1663fda08958336040518263ffffffff167c0100000000000000000000000000000000000000000000000000000000028152600401808273ffffffffffffffffffffffffffffffffffffffff1673ffffffffffffffffffffffffffffffffffffffff168152602001915050602060405180830381600087803b1580156115b257600080fd5b505af11580156115c6573d6000803e3d6000fd5b505050506040513d60208110156115dc57600080fd5b8101908080519060200190929190505050151514806116f55750600115156000809054906101000a900473ffffffffffffffffffffffffffffffffffffffff1673ffffffffffffffffffffffffffffffffffffffff166305fd22d0336040518263ffffffff167c0100000000000000000000000000000000000000000000000000000000028152600401808273ffffffffffffffffffffffffffffffffffffffff1673ffffffffffffffffffffffffffffffffffffffff168152602001915050602060405180830381600087803b1580156116b657600080fd5b505af11580156116ca573d6000803e3d6000fd5b505050506040513d60208110156116e057600080fd5b81019080805190602001909291905050501515145b151561170057600080fd5b8373ffffffffffffffffffffffffffffffffffffffff1663a9059cbb84846040518363ffffffff167c0100000000000000000000000000000000000000000000000000000000028152600401808373ffffffffffffffffffffffffffffffffffffffff1673ffffffffffffffffffffffffffffffffffffffff16815260200182815260200192505050602060405180830381600087803b1580156117a357600080fd5b505af11580156117b7573d6000803e3d6000fd5b505050506040513d60208110156117cd57600080fd5b810190808051906020019092919050505090509392505050565b600063f23a6e617c010000000000000000000000000000000000000000000000000000000002905095945050505050565b6000809054906101000a900473ffffffffffffffffffffffffffffffffffffffff16815600a165627a7a723058208feae1b80a0a23be1daa3b82ea947cc3774341d18870bd14d5df247966cb9f8e0029a165627a7a72305820d080379c645a79772f5a689134cbf457ddebc85c54f50141f0cfd0db3dd900fa0029",
  "source": "pragma solidity ^0.4.17;\n/**\nThis is the core module of the system. Currently it holds the code of\nthe Bank and crowdsale modules to avoid external calls and higher gas costs.\nIt might be a good idea in the future to split the code, separate Bank\nand crowdsale modules into external files and have the core interact with them\nwith addresses and interfaces. \n*/\nimport \"./iERC20Token.sol\";\nimport \"./CurrencyToken.sol\";\nimport \"./DepositContract.sol\";\nimport \"./SafeMath.sol\";\nimport \"./DataManager.sol\";\nimport \"./ERC1155.sol\";\nimport \"./withAccessManager.sol\";\n\n/// @title Exchange contract\ncontract Exchange is withAccessManager {\n    // EVENTS\n    // Bank events\n    event EventExchangeXAUp (bytes32 _blockchainActionId, address erc20_tokenAddress, uint256 erc20_amount, uint256 xaup_amount, uint256 _tokenId, bytes32 _clientId, address _from);\n    event EventDepositAddressUpgrade(bytes32 blockchainActionId, address oldDepositContract, address newDepositContract, bytes32 clientId, uint256 version);\n    event EventWithdrawPPT(bytes32 blockchainActionId, bytes32 accountId, address depositContract, address to, uint amount);\n    event EventWithdrawPoken(bytes32 _blockchainActionId, bytes32 accountId, bytes32 currency, uint amount);\n    event EventNewDepositContract(bytes32 blockchainActionId, bytes32 clientId, address depositContractAddress, uint256 version);\n    event EventWithdrawXAUp(bytes32 _blockchainActionId, address erc1155Token, uint amount, uint token_id, bytes32 accountId, uint pptFee);\n\n    // FIELDS\n    struct tokens {   \n        address _token;\n        uint256 _precision;\n    }\n    mapping(bytes8 => tokens) public tokenDetails;\n\n    // NON-CONSTANT METHODS\n    // Constructor method called when contract instance is \n    // deployed with 'withAccessManager' modifier.\n    constructor(address _accessManager) public withAccessManager(_accessManager) {\n        //pxt\n        tokenDetails[0x505854]._token = 0xc14830E53aA344E8c14603A91229A0b925b0B262;\n        tokenDetails[0x505854]._precision = 8;\n        //usdc\n        tokenDetails[0x55534443]._token = 0xA0b86991c6218b36c1d19D4a2e9Eb0cE3606eB48;\n        tokenDetails[0x55534443]._precision = 6;\n        //tusd\n        tokenDetails[0x54555344]._token = 0x8dd5fbCe2F6a956C3022bA3663759011Dd51e73E;\n        tokenDetails[0x54555344]._precision = 18;\n        //ppt\n        tokenDetails[0x505054]._token = 0xd4fa1460F537bb9085d22C7bcCB5DD450Ef28e3a;        \n        tokenDetails[0x505054]._precision = 8;\n        //xau\n        tokenDetails[0x584155]._token = 0x73a3b7DFFE9af119621f8467D8609771AB4BC33f;\n        tokenDetails[0x584155]._precision = 0;\n    }\n\n    /**\n    BANK MODULE\n    */\n    // NON-CONSTANT METHODS\n\n    /// Ether to XAUP exchange between deposit contract and Populous.sol\n    function exchangeXAUP(\n        address _dataManager, bytes32 _blockchainActionId, \n        address erc20_tokenAddress, uint erc20_amount, uint xaup_amount, \n        uint _tokenId, bytes32 _clientId, address adminExternalWallet) \n        public \n        onlyServer\n    {    \n        ERC1155 xa = ERC1155(tokenDetails[0x584155]._token);\n        // client deposit smart contract address\n        address _depositAddress = DataManager(_dataManager).getDepositAddress(_clientId);\n        require(\n            // check dataManager contract is valid\n            _dataManager != 0x0 &&\n            // check deposit address of client\n            _depositAddress != 0x0 && \n            // check xaup token address\n            // tokenDetails[0x584155]._token != 0x0 && \n            erc20_tokenAddress != 0x0 &&\n            // check action id is unused\n            DataManager(_dataManager).getActionStatus(_blockchainActionId) == false &&\n            // deposit contract version >= 2\n            DepositContract(_depositAddress).getVersion() >= 2 &&\n            // populous server xaup balance\n            xa.balanceOf(_tokenId, msg.sender) >= xaup_amount\n        );\n        // transfer erc20 token balance from clients deposit contract to server/admin\n        require(DepositContract(_depositAddress).transfer(erc20_tokenAddress, adminExternalWallet, erc20_amount) == true);\n        // transfer xaup tokens to clients deposit address from populous server allowance\n        xa.safeTransferFrom(msg.sender, _depositAddress, _tokenId, xaup_amount, \"\");\n        // set action status in dataManager\n        require(DataManager(_dataManager).setBlockchainActionData(_blockchainActionId, 0x0, erc20_amount, _clientId, _depositAddress, 0) == true);\n        // emit event \n        EventExchangeXAUp(_blockchainActionId, erc20_tokenAddress, erc20_amount, xaup_amount, _tokenId, _clientId, _depositAddress);\n    }\n\n    // Creates a new 'depositAddress' gotten from deploying a deposit contract linked to a client ID\n    function createAddress(address _dataManager, bytes32 _blockchainActionId, bytes32 clientId) \n        public\n        onlyServer\n    {   \n        require(_dataManager != 0x0);\n        DepositContract newDepositContract;\n        DepositContract dc;\n        if (DataManager(_dataManager).getDepositAddress(clientId) != 0x0) {\n            dc = DepositContract(DataManager(_dataManager).getDepositAddress(clientId));\n            newDepositContract = new DepositContract(clientId, AM);\n            require(!dc.call(bytes4(keccak256(\"getVersion()\")))); \n            // only checking version 1 now to upgrade to version 2\n            address PXT = tokenDetails[0x505854]._token;\n            address PPT = tokenDetails[0x505054]._token;            \n            if(dc.balanceOf(PXT) > 0){\n                require(dc.transfer(PXT, newDepositContract, dc.balanceOf(PXT)) == true);\n            }\n            if(dc.balanceOf(PPT) > 0) {\n                require(dc.transfer(PPT, newDepositContract, dc.balanceOf(PPT)) == true);\n            }\n            require(DataManager(_dataManager)._setDepositAddress(_blockchainActionId, clientId, newDepositContract) == true);\n            EventDepositAddressUpgrade(_blockchainActionId, address(dc), DataManager(_dataManager).getDepositAddress(clientId), clientId, newDepositContract.getVersion());\n        } else { \n            newDepositContract = new DepositContract(clientId, AM);\n            require(DataManager(_dataManager).setDepositAddress(_blockchainActionId, newDepositContract, clientId) == true);\n            require(DataManager(_dataManager).setBlockchainActionData(_blockchainActionId, 0x0, 0, clientId, DataManager(_dataManager).getDepositAddress(clientId), 0) == true);\n            EventNewDepositContract(_blockchainActionId, clientId, DataManager(_dataManager).getDepositAddress(clientId), newDepositContract.getVersion());\n        }\n    }\n\n    /** dev Import an amount of pokens of a particular currency from an ethereum wallet/address to bank\n      * @param _blockchainActionId the blockchain action id\n      * @param accountId the account id of the client\n      * @param from the blockchain address to import pokens from\n      * @param currency the poken currency\n      */\n    function withdrawPoken(\n        address _dataManager, bytes32 _blockchainActionId, \n        bytes32 currency, uint256 amount, uint256 amountUSD,\n        address from, address to, bytes32 accountId, \n        uint256 inCollateral,\n        uint256 pptFee, address adminExternalWallet) \n        public \n        onlyServer \n    {\n        require(_dataManager != 0x0);\n        //DataManager dm = DataManager(_dataManager);\n        require(DataManager(_dataManager).getActionStatus(_blockchainActionId) == false && DataManager(_dataManager).getDepositAddress(accountId) != 0x0);\n        require(adminExternalWallet != 0x0 && pptFee > 0 && amount > 0);\n        require(DataManager(_dataManager).getCurrency(currency) != 0x0);\n        DepositContract o = DepositContract(DataManager(_dataManager).getDepositAddress(accountId));\n        // check if pptbalance minus collateral held is more than pptFee then transfer pptFee from users ppt deposit to adminWallet\n        require(SafeMath.safeSub(o.balanceOf(tokenDetails[0x505054]._token), inCollateral) >= pptFee);\n        require(o.transfer(tokenDetails[0x505054]._token, adminExternalWallet, pptFee) == true);\n        // WITHDRAW PART / DEBIT\n        if(amount > CurrencyToken(DataManager(_dataManager).getCurrency(currency)).balanceOf(from)) {\n            // destroying total balance as user has less than pokens they want to withdraw\n            require(CurrencyToken(DataManager(_dataManager).getCurrency(currency)).destroyTokensFrom(CurrencyToken(DataManager(_dataManager).getCurrency(currency)).balanceOf(from), from) == true);\n            //remaining ledger balance of deposit address is 0\n        } else {\n            // destroy amount from balance as user has more than pokens they want to withdraw\n            require(CurrencyToken(DataManager(_dataManager).getCurrency(currency)).destroyTokensFrom(amount, from) == true);\n            //left over balance is deposit address balance.\n        }\n        // TRANSFER PART / CREDIT\n        // approve currency amount for populous for the next require to pass\n        if(amountUSD > 0) //give the user USDC\n        {\n            CurrencyToken(tokenDetails[0x55534443]._token).transferFrom(msg.sender, to, amountUSD);\n        }else { //give the user GBP / poken currency\n            CurrencyToken(DataManager(_dataManager).getCurrency(currency)).transferFrom(msg.sender, to, amount);\n        }\n        require(DataManager(_dataManager).setBlockchainActionData(_blockchainActionId, currency, amount, accountId, to, pptFee) == true); \n        EventWithdrawPoken(_blockchainActionId, accountId, currency, amount);\n    }\n\n    /** @dev Withdraw an amount of PPT Populous tokens to a blockchain address \n      * @param _blockchainActionId the blockchain action id\n      * @param pptAddress the address of the PPT smart contract\n      * @param accountId the account id of the client\n      * @param pptFee the amount of fees to pay in PPT tokens\n      * @param adminExternalWallet the platform admin wallet address to pay the fees to \n      * @param to the blockchain address to withdraw and transfer the pokens to\n      * @param inCollateral the amount of pokens withheld by the platform\n      */    \n    function withdrawERC20(\n        address _dataManager, bytes32 _blockchainActionId, \n        address pptAddress, bytes32 accountId, \n        address to, uint256 amount, uint256 inCollateral, \n        uint256 pptFee, address adminExternalWallet) \n        public \n        onlyServer \n    {   \n        require(_dataManager != 0x0);\n        require(DataManager(_dataManager).getActionStatus(_blockchainActionId) == false && DataManager(_dataManager).getDepositAddress(accountId) != 0x0);\n        require(adminExternalWallet != 0x0 && pptFee > 0 && amount > 0);\n        address depositContract = DataManager(_dataManager).getDepositAddress(accountId);\n        if(pptAddress == tokenDetails[0x505054]._token) {\n            uint pptBalance = SafeMath.safeSub(DepositContract(depositContract).balanceOf(tokenDetails[0x505054]._token), inCollateral);\n            require(pptBalance >= SafeMath.safeAdd(amount, pptFee));\n        } else {\n            uint erc20Balance = DepositContract(depositContract).balanceOf(pptAddress);\n            require(erc20Balance >= amount);\n        }\n        require(DepositContract(depositContract).transfer(tokenDetails[0x505054]._token, adminExternalWallet, pptFee) == true);\n        require(DepositContract(depositContract).transfer(pptAddress, to, amount) == true);\n        bytes32 tokenSymbol = iERC20Token(pptAddress).symbol();    \n        require(DataManager(_dataManager).setBlockchainActionData(_blockchainActionId, tokenSymbol, amount, accountId, to, pptFee) == true);\n        EventWithdrawPPT(_blockchainActionId, accountId, DataManager(_dataManager).getDepositAddress(accountId), to, amount);\n    }\n\n    // erc1155 withdraw function using transferFrom in erc1155 token contract\n/*     function withdrawERC1155(\n        address _dataManager, bytes32 _blockchainActionId,\n        address _to, uint256 _id, uint256 _value,\n        bytes32 accountId, uint256 pptFee, \n        address adminExternalWallet) \n        public\n        onlyServer \n    {\n        require(DataManager(_dataManager).getActionStatus(_blockchainActionId) == false && DataManager(_dataManager).getDepositAddress(accountId) != 0x0);\n        require(adminExternalWallet != 0x0 && pptFee > 0 && _value > 0);\n        DepositContract o = DepositContract(DataManager(_dataManager).getDepositAddress(accountId));\n        require(o.transfer(tokenDetails[0x505054]._token, adminExternalWallet, pptFee) == true);\n        // transfer xaup tokens to address from deposit contract\n        require(o.transferERC1155(tokenDetails[0x584155]._token, _to, _id, _value) == true);\n        // set action status in dataManager\n        require(DataManager(_dataManager).setBlockchainActionData(_blockchainActionId, 0x584155, _value, accountId, _to, pptFee) == true);\n        // emit event \n        EventWithdrawXAUp(_blockchainActionId, tokenDetails[0x584155]._token, _value, _id, accountId, pptFee);\n    } */\n}",
  "sourcePath": "/Users/najienka/Desktop/populous-app/populous-exchangecontracts/contracts/Exchange.sol",
  "compiler": {
    "name": "solc",
    "version": "0.4.25+commit.59dbf8f1.Emscripten.clang"
  },
  "schemaVersion": "2.0.2",
  "updatedAt": "2019-03-26T13:21:48.242Z"
}